{
  "_format": "hh-sol-artifact-1",
  "contractName": "StaticUtil",
  "sourceName": "contracts/static/StaticUtil.sol",
  "abi": [
    {
      "inputs": [
        {
          "internalType": "bytes",
          "name": "extra",
          "type": "bytes"
        },
        {
          "internalType": "address[7]",
          "name": "addresses",
          "type": "address[7]"
        },
        {
          "internalType": "enum AuthenticatedProxy.HowToCall[2]",
          "name": "howToCalls",
          "type": "uint8[2]"
        },
        {
          "internalType": "uint256[6]",
          "name": "uints",
          "type": "uint256[6]"
        },
        {
          "internalType": "bytes",
          "name": "data",
          "type": "bytes"
        },
        {
          "internalType": "bytes",
          "name": "counterdata",
          "type": "bytes"
        }
      ],
      "name": "and",
      "outputs": [],
      "stateMutability": "view",
      "type": "function"
    },
    {
      "inputs": [
        {
          "internalType": "bytes",
          "name": "",
          "type": "bytes"
        },
        {
          "internalType": "address[7]",
          "name": "",
          "type": "address[7]"
        },
        {
          "internalType": "enum AuthenticatedProxy.HowToCall[2]",
          "name": "",
          "type": "uint8[2]"
        },
        {
          "internalType": "uint256[6]",
          "name": "",
          "type": "uint256[6]"
        },
        {
          "internalType": "bytes",
          "name": "",
          "type": "bytes"
        },
        {
          "internalType": "bytes",
          "name": "",
          "type": "bytes"
        }
      ],
      "name": "any",
      "outputs": [
        {
          "internalType": "uint256",
          "name": "",
          "type": "uint256"
        }
      ],
      "stateMutability": "pure",
      "type": "function"
    },
    {
      "inputs": [
        {
          "internalType": "bytes",
          "name": "",
          "type": "bytes"
        },
        {
          "internalType": "address[7]",
          "name": "",
          "type": "address[7]"
        },
        {
          "internalType": "enum AuthenticatedProxy.HowToCall[2]",
          "name": "",
          "type": "uint8[2]"
        },
        {
          "internalType": "uint256[6]",
          "name": "uints",
          "type": "uint256[6]"
        },
        {
          "internalType": "bytes",
          "name": "",
          "type": "bytes"
        },
        {
          "internalType": "bytes",
          "name": "",
          "type": "bytes"
        }
      ],
      "name": "anyAddOne",
      "outputs": [
        {
          "internalType": "uint256",
          "name": "",
          "type": "uint256"
        }
      ],
      "stateMutability": "pure",
      "type": "function"
    },
    {
      "inputs": [
        {
          "internalType": "bytes",
          "name": "",
          "type": "bytes"
        },
        {
          "internalType": "address[7]",
          "name": "",
          "type": "address[7]"
        },
        {
          "internalType": "enum AuthenticatedProxy.HowToCall[2]",
          "name": "",
          "type": "uint8[2]"
        },
        {
          "internalType": "uint256[6]",
          "name": "",
          "type": "uint256[6]"
        },
        {
          "internalType": "bytes",
          "name": "",
          "type": "bytes"
        },
        {
          "internalType": "bytes",
          "name": "",
          "type": "bytes"
        }
      ],
      "name": "anyNoFill",
      "outputs": [
        {
          "internalType": "uint256",
          "name": "",
          "type": "uint256"
        }
      ],
      "stateMutability": "pure",
      "type": "function"
    },
    {
      "inputs": [
        {
          "internalType": "bytes",
          "name": "",
          "type": "bytes"
        },
        {
          "internalType": "address[7]",
          "name": "",
          "type": "address[7]"
        },
        {
          "internalType": "enum AuthenticatedProxy.HowToCall",
          "name": "",
          "type": "uint8"
        },
        {
          "internalType": "uint256[6]",
          "name": "",
          "type": "uint256[6]"
        },
        {
          "internalType": "bytes",
          "name": "",
          "type": "bytes"
        }
      ],
      "name": "anySingle",
      "outputs": [],
      "stateMutability": "pure",
      "type": "function"
    },
    {
      "inputs": [],
      "name": "atomicizer",
      "outputs": [
        {
          "internalType": "address",
          "name": "",
          "type": "address"
        }
      ],
      "stateMutability": "view",
      "type": "function"
    },
    {
      "inputs": [
        {
          "internalType": "bytes",
          "name": "extra",
          "type": "bytes"
        },
        {
          "internalType": "address[7]",
          "name": "addresses",
          "type": "address[7]"
        },
        {
          "internalType": "enum AuthenticatedProxy.HowToCall[2]",
          "name": "howToCalls",
          "type": "uint8[2]"
        },
        {
          "internalType": "uint256[6]",
          "name": "uints",
          "type": "uint256[6]"
        },
        {
          "internalType": "bytes",
          "name": "cdata",
          "type": "bytes"
        },
        {
          "internalType": "bytes",
          "name": "",
          "type": "bytes"
        }
      ],
      "name": "dumbSequenceExact",
      "outputs": [
        {
          "internalType": "uint256",
          "name": "",
          "type": "uint256"
        }
      ],
      "stateMutability": "view",
      "type": "function"
    },
    {
      "inputs": [
        {
          "internalType": "bytes",
          "name": "extra",
          "type": "bytes"
        },
        {
          "internalType": "address[7]",
          "name": "addresses",
          "type": "address[7]"
        },
        {
          "internalType": "enum AuthenticatedProxy.HowToCall[2]",
          "name": "howToCalls",
          "type": "uint8[2]"
        },
        {
          "internalType": "uint256[6]",
          "name": "uints",
          "type": "uint256[6]"
        },
        {
          "internalType": "bytes",
          "name": "data",
          "type": "bytes"
        },
        {
          "internalType": "bytes",
          "name": "counterdata",
          "type": "bytes"
        }
      ],
      "name": "or",
      "outputs": [],
      "stateMutability": "view",
      "type": "function"
    },
    {
      "inputs": [
        {
          "internalType": "bytes",
          "name": "extra",
          "type": "bytes"
        },
        {
          "internalType": "address[7]",
          "name": "addresses",
          "type": "address[7]"
        },
        {
          "internalType": "enum AuthenticatedProxy.HowToCall",
          "name": "howToCall",
          "type": "uint8"
        },
        {
          "internalType": "uint256[6]",
          "name": "uints",
          "type": "uint256[6]"
        },
        {
          "internalType": "bytes",
          "name": "cdata",
          "type": "bytes"
        }
      ],
      "name": "sequenceAnyAfter",
      "outputs": [],
      "stateMutability": "view",
      "type": "function"
    },
    {
      "inputs": [
        {
          "internalType": "bytes",
          "name": "extra",
          "type": "bytes"
        },
        {
          "internalType": "address[7]",
          "name": "addresses",
          "type": "address[7]"
        },
        {
          "internalType": "enum AuthenticatedProxy.HowToCall",
          "name": "howToCall",
          "type": "uint8"
        },
        {
          "internalType": "uint256[6]",
          "name": "uints",
          "type": "uint256[6]"
        },
        {
          "internalType": "bytes",
          "name": "cdata",
          "type": "bytes"
        }
      ],
      "name": "sequenceExact",
      "outputs": [],
      "stateMutability": "view",
      "type": "function"
    },
    {
      "inputs": [
        {
          "internalType": "bytes",
          "name": "extra",
          "type": "bytes"
        },
        {
          "internalType": "address[7]",
          "name": "addresses",
          "type": "address[7]"
        },
        {
          "internalType": "enum AuthenticatedProxy.HowToCall[2]",
          "name": "howToCalls",
          "type": "uint8[2]"
        },
        {
          "internalType": "uint256[6]",
          "name": "uints",
          "type": "uint256[6]"
        },
        {
          "internalType": "bytes",
          "name": "data",
          "type": "bytes"
        },
        {
          "internalType": "bytes",
          "name": "counterdata",
          "type": "bytes"
        }
      ],
      "name": "split",
      "outputs": [
        {
          "internalType": "uint256",
          "name": "",
          "type": "uint256"
        }
      ],
      "stateMutability": "view",
      "type": "function"
    },
    {
      "inputs": [
        {
          "internalType": "bytes",
          "name": "extra",
          "type": "bytes"
        },
        {
          "internalType": "address[7]",
          "name": "addresses",
          "type": "address[7]"
        },
        {
          "internalType": "enum AuthenticatedProxy.HowToCall[2]",
          "name": "howToCalls",
          "type": "uint8[2]"
        },
        {
          "internalType": "uint256[6]",
          "name": "uints",
          "type": "uint256[6]"
        },
        {
          "internalType": "bytes",
          "name": "data",
          "type": "bytes"
        },
        {
          "internalType": "bytes",
          "name": "counterdata",
          "type": "bytes"
        }
      ],
      "name": "splitAddOne",
      "outputs": [
        {
          "internalType": "uint256",
          "name": "",
          "type": "uint256"
        }
      ],
      "stateMutability": "view",
      "type": "function"
    }
  ],
  "bytecode": "0x608060405234801561001057600080fd5b506134b2806100206000396000f3fe608060405234801561001057600080fd5b50600436106100d45760003560e01c8063ac5cc03f11610081578063ddf98cc21161005b578063ddf98cc214611151578063e1beb48414611381578063ed94fc66146115b1576100d4565b8063ac5cc03f14610c01578063b67bf13414610d91578063dcbcb5d914610f21576100d4565b80634e9413f9116100b25780634e9413f91461056f578063837b54ad146107a1578063a09858da146109d1576100d4565b8063025b6d34146100d95780630d3b91d41461031b57806320e9a8181461033f575b600080fd5b61030960048036036102408110156100f057600080fd5b810190602081018135600160201b81111561010a57600080fd5b82018360208201111561011c57600080fd5b803590602001918460018302840111600160201b8311171561013d57600080fd5b91908080601f016020809104026020016040519081016040528093929190818152602001838380828437600092019190915250506040805160e081810190925293969594818101949350915060079083908390808284376000920191909152505060408051808201825292959493818101939250906002908390839080828437600092019190915250506040805160c08181019092529295949381810193925090600690839083908082843760009201919091525091949392602081019250359050600160201b81111561021057600080fd5b82018360208201111561022257600080fd5b803590602001918460018302840111600160201b8311171561024357600080fd5b91908080601f0160208091040260200160405190810160405280939291908181526020018383808284376000920191909152509295949360208101935035915050600160201b81111561029557600080fd5b8201836020820111156102a757600080fd5b803590602001918460018302840111600160201b831117156102c857600080fd5b91908080601f016020809104026020016040519081016040528093929190818152602001838380828437600092019190915250929550611741945050505050565b60408051918252519081900360200190f35b610323611763565b604080516001600160a01b039092168252519081900360200190f35b610309600480360361024081101561035657600080fd5b810190602081018135600160201b81111561037057600080fd5b82018360208201111561038257600080fd5b803590602001918460018302840111600160201b831117156103a357600080fd5b91908080601f016020809104026020016040519081016040528093929190818152602001838380828437600092019190915250506040805160e081810190925293969594818101949350915060079083908390808284376000920191909152505060408051808201825292959493818101939250906002908390839080828437600092019190915250506040805160c08181019092529295949381810193925090600690839083908082843760009201919091525091949392602081019250359050600160201b81111561047657600080fd5b82018360208201111561048857600080fd5b803590602001918460018302840111600160201b831117156104a957600080fd5b91908080601f0160208091040260200160405190810160405280939291908181526020018383808284376000920191909152509295949360208101935035915050600160201b8111156104fb57600080fd5b82018360208201111561050d57600080fd5b803590602001918460018302840111600160201b8311171561052e57600080fd5b91908080601f016020809104026020016040519081016040528093929190818152602001838380828437600092019190915250929550611772945050505050565b61079f600480360361024081101561058657600080fd5b810190602081018135600160201b8111156105a057600080fd5b8201836020820111156105b257600080fd5b803590602001918460018302840111600160201b831117156105d357600080fd5b91908080601f016020809104026020016040519081016040528093929190818152602001838380828437600092019190915250506040805160e081810190925293969594818101949350915060079083908390808284376000920191909152505060408051808201825292959493818101939250906002908390839080828437600092019190915250506040805160c08181019092529295949381810193925090600690839083908082843760009201919091525091949392602081019250359050600160201b8111156106a657600080fd5b8201836020820111156106b857600080fd5b803590602001918460018302840111600160201b831117156106d957600080fd5b91908080601f0160208091040260200160405190810160405280939291908181526020018383808284376000920191909152509295949360208101935035915050600160201b81111561072b57600080fd5b82018360208201111561073d57600080fd5b803590602001918460018302840111600160201b8311171561075e57600080fd5b91908080601f016020809104026020016040519081016040528093929190818152602001838380828437600092019190915250929550611bef945050505050565b005b61030960048036036102408110156107b857600080fd5b810190602081018135600160201b8111156107d257600080fd5b8201836020820111156107e457600080fd5b803590602001918460018302840111600160201b8311171561080557600080fd5b91908080601f016020809104026020016040519081016040528093929190818152602001838380828437600092019190915250506040805160e081810190925293969594818101949350915060079083908390808284376000920191909152505060408051808201825292959493818101939250906002908390839080828437600092019190915250506040805160c08181019092529295949381810193925090600690839083908082843760009201919091525091949392602081019250359050600160201b8111156108d857600080fd5b8201836020820111156108ea57600080fd5b803590602001918460018302840111600160201b8311171561090b57600080fd5b91908080601f0160208091040260200160405190810160405280939291908181526020018383808284376000920191909152509295949360208101935035915050600160201b81111561095d57600080fd5b82018360208201111561096f57600080fd5b803590602001918460018302840111600160201b8311171561099057600080fd5b91908080601f0160208091040260200160405190810160405280939291908181526020018383808284376000920191909152509295506121a3945050505050565b61030960048036036102408110156109e857600080fd5b810190602081018135600160201b811115610a0257600080fd5b820183602082011115610a1457600080fd5b803590602001918460018302840111600160201b83111715610a3557600080fd5b91908080601f016020809104026020016040519081016040528093929190818152602001838380828437600092019190915250506040805160e081810190925293969594818101949350915060079083908390808284376000920191909152505060408051808201825292959493818101939250906002908390839080828437600092019190915250506040805160c08181019092529295949381810193925090600690839083908082843760009201919091525091949392602081019250359050600160201b811115610b0857600080fd5b820183602082011115610b1a57600080fd5b803590602001918460018302840111600160201b83111715610b3b57600080fd5b91908080601f0160208091040260200160405190810160405280939291908181526020018383808284376000920191909152509295949360208101935035915050600160201b811115610b8d57600080fd5b820183602082011115610b9f57600080fd5b803590602001918460018302840111600160201b83111715610bc057600080fd5b91908080601f0160208091040260200160405190810160405280939291908181526020018383808284376000920191909152509295506121af945050505050565b61079f6004803603610200811015610c1857600080fd5b810190602081018135600160201b811115610c3257600080fd5b820183602082011115610c4457600080fd5b803590602001918460018302840111600160201b83111715610c6557600080fd5b91908080601f016020809104026020016040519081016040528093929190818152602001838380828437600092019190915250506040805160e08181019092529396959481810194935091506007908390839080828437600092019190915250506040805160c0818101909252929560ff853516959094909360e08201935091602090910190600690839083908082843760009201919091525091949392602081019250359050600160201b811115610d1d57600080fd5b820183602082011115610d2f57600080fd5b803590602001918460018302840111600160201b83111715610d5057600080fd5b91908080601f0160208091040260200160405190810160405280939291908181526020018383808284376000920191909152509295506121c8945050505050565b61079f6004803603610200811015610da857600080fd5b810190602081018135600160201b811115610dc257600080fd5b820183602082011115610dd457600080fd5b803590602001918460018302840111600160201b83111715610df557600080fd5b91908080601f016020809104026020016040519081016040528093929190818152602001838380828437600092019190915250506040805160e08181019092529396959481810194935091506007908390839080828437600092019190915250506040805160c0818101909252929560ff853516959094909360e08201935091602090910190600690839083908082843760009201919091525091949392602081019250359050600160201b811115610ead57600080fd5b820183602082011115610ebf57600080fd5b803590602001918460018302840111600160201b83111715610ee057600080fd5b91908080601f01602080910402602001604051908101604052809392919081815260200183838082843760009201919091525092955061274b945050505050565b61079f6004803603610240811015610f3857600080fd5b810190602081018135600160201b811115610f5257600080fd5b820183602082011115610f6457600080fd5b803590602001918460018302840111600160201b83111715610f8557600080fd5b91908080601f016020809104026020016040519081016040528093929190818152602001838380828437600092019190915250506040805160e081810190925293969594818101949350915060079083908390808284376000920191909152505060408051808201825292959493818101939250906002908390839080828437600092019190915250506040805160c08181019092529295949381810193925090600690839083908082843760009201919091525091949392602081019250359050600160201b81111561105857600080fd5b82018360208201111561106a57600080fd5b803590602001918460018302840111600160201b8311171561108b57600080fd5b91908080601f0160208091040260200160405190810160405280939291908181526020018383808284376000920191909152509295949360208101935035915050600160201b8111156110dd57600080fd5b8201836020820111156110ef57600080fd5b803590602001918460018302840111600160201b8311171561111057600080fd5b91908080601f016020809104026020016040519081016040528093929190818152602001838380828437600092019190915250929550612752945050505050565b610309600480360361024081101561116857600080fd5b810190602081018135600160201b81111561118257600080fd5b82018360208201111561119457600080fd5b803590602001918460018302840111600160201b831117156111b557600080fd5b91908080601f016020809104026020016040519081016040528093929190818152602001838380828437600092019190915250506040805160e081810190925293969594818101949350915060079083908390808284376000920191909152505060408051808201825292959493818101939250906002908390839080828437600092019190915250506040805160c08181019092529295949381810193925090600690839083908082843760009201919091525091949392602081019250359050600160201b81111561128857600080fd5b82018360208201111561129a57600080fd5b803590602001918460018302840111600160201b831117156112bb57600080fd5b91908080601f0160208091040260200160405190810160405280939291908181526020018383808284376000920191909152509295949360208101935035915050600160201b81111561130d57600080fd5b82018360208201111561131f57600080fd5b803590602001918460018302840111600160201b8311171561134057600080fd5b91908080601f016020809104026020016040519081016040528093929190818152602001838380828437600092019190915250929550612b40945050505050565b610309600480360361024081101561139857600080fd5b810190602081018135600160201b8111156113b257600080fd5b8201836020820111156113c457600080fd5b803590602001918460018302840111600160201b831117156113e557600080fd5b91908080601f016020809104026020016040519081016040528093929190818152602001838380828437600092019190915250506040805160e081810190925293969594818101949350915060079083908390808284376000920191909152505060408051808201825292959493818101939250906002908390839080828437600092019190915250506040805160c08181019092529295949381810193925090600690839083908082843760009201919091525091949392602081019250359050600160201b8111156114b857600080fd5b8201836020820111156114ca57600080fd5b803590602001918460018302840111600160201b831117156114eb57600080fd5b91908080601f0160208091040260200160405190810160405280939291908181526020018383808284376000920191909152509295949360208101935035915050600160201b81111561153d57600080fd5b82018360208201111561154f57600080fd5b803590602001918460018302840111600160201b8311171561157057600080fd5b91908080601f016020809104026020016040519081016040528093929190818152602001838380828437600092019190915250929550612b59945050505050565b61079f60048036036102008110156115c857600080fd5b810190602081018135600160201b8111156115e257600080fd5b8201836020820111156115f457600080fd5b803590602001918460018302840111600160201b8311171561161557600080fd5b91908080601f016020809104026020016040519081016040528093929190818152602001838380828437600092019190915250506040805160e08181019092529396959481810194935091506007908390839080828437600092019190915250506040805160c0818101909252929560ff853516959094909360e08201935091602090910190600690839083908082843760009201919091525091949392602081019250359050600160201b8111156116cd57600080fd5b8201836020820111156116df57600080fd5b803590602001918460018302840111600160201b8311171561170057600080fd5b91908080601f016020809104026020016040519081016040528093929190818152602001838380828437600092019190915250929550612b65945050505050565b600061175687878784602002015187876121c8565b5060019695505050505050565b6000546001600160a01b031681565b600061177c613426565b611784613426565b6060808a80602001905160c081101561179c57600080fd5b608082018051604080519085019390929085019185919084600160201b8211156117c557600080fd5b9083019060208201858111156117da57600080fd5b8251600160201b8111828201881017156117f357600080fd5b82525081516020918201929091019080838360005b83811015611820578181015183820152602001611808565b50505050905090810190601f16801561184d5780820380516001836020036101000a031916815260200191505b5060405260200180516040519392919084600160201b82111561186f57600080fd5b90830190602082018581111561188457600080fd5b8251600160201b81118282018810171561189d57600080fd5b82525081516020918201929091019080838360005b838110156118ca5781810151838201526020016118b2565b50505050905090810190601f1680156118f75780820380516001836020036101000a031916815260200191505b506040525050509350935093509350611ac98460006002811061191657fe5b602002015184518b5160405186918f918e908e90602481019081906044018660e080838360005b8381101561195557818101518382015260200161193d565b5050505090500185600181111561196857fe5b81526020018460c080838360005b8381101561198e578181015183820152602001611976565b5050505090500180602001838103835288818151815260200191508051906020019080838360005b838110156119ce5781810151838201526020016119b6565b50505050905090810190601f1680156119fb5780820380516001836020036101000a031916815260200191505b50838103825284518152845160209182019186019080838360005b83811015611a2e578181015183820152602001611a16565b50505050905090810190601f168015611a5b5780820380516001836020036101000a031916815260200191505b5060408051601f198184030181529190526020810180517bffffffffffffffffffffffffffffffffffffffffffffffffffffffff167fffffffff00000000000000000000000000000000000000000000000000000000909b169a909a17909952506130c89650505050505050565b611ad257600080fd5b611bd584600160200201518460016020020151836040518060e001604052808f600360078110611afe57fe5b602090810291909101516001600160a01b03168252018f6004602090810291909101516001600160a01b03168252018f6005602090810291909101516001600160a01b03168252018f6000602090810291909101516001600160a01b03168252018f6001602090810291909101516001600160a01b03168252018f6002602090810291909101516001600160a01b03168252018f600660200201516001600160a01b031690528d600160200201516040518e908d90602481019081906044018660e08083836000818101518382015260200161193d565b611bde57600080fd5b5060019a9950505050505050505050565b606080606080898060200190516080811015611c0a57600080fd5b8101908080516040519392919084600160201b821115611c2957600080fd5b908301906020820185811115611c3e57600080fd5b82518660208202830111600160201b82111715611c5a57600080fd5b82525081516020918201928201910280838360005b83811015611c87578181015183820152602001611c6f565b5050505090500160405260200180516040519392919084600160201b821115611caf57600080fd5b908301906020820185811115611cc457600080fd5b82518660208202830111600160201b82111715611ce057600080fd5b82525081516020918201928201910280838360005b83811015611d0d578181015183820152602001611cf5565b5050505090500160405260200180516040519392919084600160201b821115611d3557600080fd5b908301906020820185811115611d4a57600080fd5b82518660208202830111600160201b82111715611d6657600080fd5b82525081516020918201928201910280838360005b83811015611d93578181015183820152602001611d7b565b5050505090500160405260200180516040519392919084600160201b821115611dbb57600080fd5b908301906020820185811115611dd057600080fd5b8251600160201b811182820188101715611de957600080fd5b82525081516020918201929091019080838360005b83811015611e16578181015183820152602001611dfe565b50505050905090810190601f168015611e435780820380516001836020036101000a031916815260200191505b5060405250505093509350935093508151845114611e6057600080fd5b6000805b8551811015612195576060848281518110611e7b57fe5b602002602001015167ffffffffffffffff81118015611e9957600080fd5b506040519080825280601f01601f191660200182016040528015611ec4576020820181803683370190505b50905060005b858381518110611ed657fe5b6020026020010151811015611f2b57848481518110611ef157fe5b602001015160f81c60f81b828281518110611f0857fe5b60200101906001600160f81b031916908160001a90535060019384019301611eca565b50612183878381518110611f3b57fe5b6020026020010151878481518110611f4f57fe5b6020026020010151838f8f8f8f8f604051602401808060200187600760200280838360005b83811015611f8c578181015183820152602001611f74565b5050505090500186600260200280838360005b83811015611fb7578181015183820152602001611f9f565b5050505090500185600660200280838360005b83811015611fe2578181015183820152602001611fca565b50505050905001806020018060200184810384528a818151815260200191508051906020019080838360005b8381101561202657818101518382015260200161200e565b50505050905090810190601f1680156120535780820380516001836020036101000a031916815260200191505b50848103835286518152865160209182019188019080838360005b8381101561208657818101518382015260200161206e565b50505050905090810190601f1680156120b35780820380516001836020036101000a031916815260200191505b50848103825285518152855160209182019187019080838360005b838110156120e65781810151838201526020016120ce565b50505050905090810190601f1680156121135780820380516001836020036101000a031916815260200191505b5060408051601f198184030181529190526020810180517bffffffffffffffffffffffffffffffffffffffffffffffffffffffff167fffffffff00000000000000000000000000000000000000000000000000000000909d169c909c17909b52506130c898505050505050505050565b61218c57600080fd5b50600101611e64565b505050505050505050505050565b60019695505050505050565b60008360055b6020020151600101979650505050505050565b6060806060808880602001905160808110156121e357600080fd5b8101908080516040519392919084600160201b82111561220257600080fd5b90830190602082018581111561221757600080fd5b82518660208202830111600160201b8211171561223357600080fd5b82525081516020918201928201910280838360005b83811015612260578181015183820152602001612248565b5050505090500160405260200180516040519392919084600160201b82111561228857600080fd5b90830190602082018581111561229d57600080fd5b82518660208202830111600160201b821117156122b957600080fd5b82525081516020918201928201910280838360005b838110156122e65781810151838201526020016122ce565b5050505090500160405260200180516040519392919084600160201b82111561230e57600080fd5b90830190602082018581111561232357600080fd5b82518660208202830111600160201b8211171561233f57600080fd5b82525081516020918201928201910280838360005b8381101561236c578181015183820152602001612354565b5050505090500160405260200180516040519392919084600160201b82111561239457600080fd5b9083019060208201858111156123a957600080fd5b8251600160201b8111828201881017156123c257600080fd5b82525081516020918201929091019080838360005b838110156123ef5781810151838201526020016123d7565b50505050905090810190601f16801561241c5780820380516001836020036101000a031916815260200191505b506040525050509350935093509350825184511461243957600080fd5b60608060608061244a8960046130de565b806020019051608081101561245e57600080fd5b8101908080516040519392919084600160201b82111561247d57600080fd5b90830190602082018581111561249257600080fd5b82518660208202830111600160201b821117156124ae57600080fd5b82525081516020918201928201910280838360005b838110156124db5781810151838201526020016124c3565b5050505090500160405260200180516040519392919084600160201b82111561250357600080fd5b90830190602082018581111561251857600080fd5b82518660208202830111600160201b8211171561253457600080fd5b82525081516020918201928201910280838360005b83811015612561578181015183820152602001612549565b5050505090500160405260200180516040519392919084600160201b82111561258957600080fd5b90830190602082018581111561259e57600080fd5b82518660208202830111600160201b821117156125ba57600080fd5b82525081516020918201928201910280838360005b838110156125e75781810151838201526020016125cf565b5050505090500160405260200180516040519392919084600160201b82111561260f57600080fd5b90830190602082018581111561262457600080fd5b8251600160201b81118282018810171561263d57600080fd5b82525081516020918201929091019080838360005b8381101561266a578181015183820152602001612652565b50505050905090810190601f1680156126975780820380516001836020036101000a031916815260200191505b5060405250506000549498509296509094509250506001600160a01b03168c600260200201516001600160a01b0316146126d057600080fd5b60018b60018111156126de57fe5b146126e857600080fd5b83518851146126f657600080fd5b60005b885181101561272a5783818151811061270e57fe5b602002602001015160001461272257600080fd5b6001016126f9565b5061273c8483838f8e8d8d8d8d613102565b50505050505050505050505050565b5050505050565b60608060608089806020019051608081101561276d57600080fd5b8101908080516040519392919084600160201b82111561278c57600080fd5b9083019060208201858111156127a157600080fd5b82518660208202830111600160201b821117156127bd57600080fd5b82525081516020918201928201910280838360005b838110156127ea5781810151838201526020016127d2565b5050505090500160405260200180516040519392919084600160201b82111561281257600080fd5b90830190602082018581111561282757600080fd5b82518660208202830111600160201b8211171561284357600080fd5b82525081516020918201928201910280838360005b83811015612870578181015183820152602001612858565b5050505090500160405260200180516040519392919084600160201b82111561289857600080fd5b9083019060208201858111156128ad57600080fd5b82518660208202830111600160201b821117156128c957600080fd5b82525081516020918201928201910280838360005b838110156128f65781810151838201526020016128de565b5050505090500160405260200180516040519392919084600160201b82111561291e57600080fd5b90830190602082018581111561293357600080fd5b8251600160201b81118282018810171561294c57600080fd5b82525081516020918201929091019080838360005b83811015612979578181015183820152602001612961565b50505050905090810190601f1680156129a65780820380516001836020036101000a031916815260200191505b50604052505050935093509350935081518451146129f55760405162461bcd60e51b81526004018080602001828103825260388152602001806134456038913960400191505060405180910390fd5b6000805b8551811015612aea576060848281518110612a1057fe5b602002602001015167ffffffffffffffff81118015612a2e57600080fd5b506040519080825280601f01601f191660200182016040528015612a59576020820181803683370190505b50905060005b858381518110612a6b57fe5b6020026020010151811015612ac057848481518110612a8657fe5b602001015160f81c60f81b828281518110612a9d57fe5b60200101906001600160f81b031916908160001a90535060019384019301612a5f565b50612ad0878381518110611f3b57fe5b15612ae15750505050505050612b38565b506001016129f9565b506040805162461bcd60e51b815260206004820152601960248201527f4e6f207374617469632063616c6c732073756363656564656400000000000000604482015290519081900360640190fd5b505050505050565b6000612b50878787878787611772565b508360056121b5565b60009695505050505050565b606080606080888060200190516080811015612b8057600080fd5b8101908080516040519392919084600160201b821115612b9f57600080fd5b908301906020820185811115612bb457600080fd5b82518660208202830111600160201b82111715612bd057600080fd5b82525081516020918201928201910280838360005b83811015612bfd578181015183820152602001612be5565b5050505090500160405260200180516040519392919084600160201b821115612c2557600080fd5b908301906020820185811115612c3a57600080fd5b82518660208202830111600160201b82111715612c5657600080fd5b82525081516020918201928201910280838360005b83811015612c83578181015183820152602001612c6b565b5050505090500160405260200180516040519392919084600160201b821115612cab57600080fd5b908301906020820185811115612cc057600080fd5b82518660208202830111600160201b82111715612cdc57600080fd5b82525081516020918201928201910280838360005b83811015612d09578181015183820152602001612cf1565b5050505090500160405260200180516040519392919084600160201b821115612d3157600080fd5b908301906020820185811115612d4657600080fd5b8251600160201b811182820188101715612d5f57600080fd5b82525081516020918201929091019080838360005b83811015612d8c578181015183820152602001612d74565b50505050905090810190601f168015612db95780820380516001836020036101000a031916815260200191505b5060405250505093509350935093508251845114612dd657600080fd5b606080606080612de78960046130de565b8060200190516080811015612dfb57600080fd5b8101908080516040519392919084600160201b821115612e1a57600080fd5b908301906020820185811115612e2f57600080fd5b82518660208202830111600160201b82111715612e4b57600080fd5b82525081516020918201928201910280838360005b83811015612e78578181015183820152602001612e60565b5050505090500160405260200180516040519392919084600160201b821115612ea057600080fd5b908301906020820185811115612eb557600080fd5b82518660208202830111600160201b82111715612ed157600080fd5b82525081516020918201928201910280838360005b83811015612efe578181015183820152602001612ee6565b5050505090500160405260200180516040519392919084600160201b821115612f2657600080fd5b908301906020820185811115612f3b57600080fd5b82518660208202830111600160201b82111715612f5757600080fd5b82525081516020918201928201910280838360005b83811015612f84578181015183820152602001612f6c565b5050505090500160405260200180516040519392919084600160201b821115612fac57600080fd5b908301906020820185811115612fc157600080fd5b8251600160201b811182820188101715612fda57600080fd5b82525081516020918201929091019080838360005b83811015613007578181015183820152602001612fef565b50505050905090810190601f1680156130345780820380516001836020036101000a031916815260200191505b5060405250506000549498509296509094509250506001600160a01b03168c600260200201516001600160a01b03161461306d57600080fd5b60018b600181111561307b57fe5b1461308557600080fd5b83518851111561309457600080fd5b60005b885181101561272a578381815181106130ac57fe5b60200260200101516000146130c057600080fd5b600101613097565b600080604051835160208501865afa9392505050565b606060006130ed84518461335a565b90506130fa8484836133b7565b949350505050565b60008060005b865181101561333f57606086828151811061311f57fe5b602002602001015167ffffffffffffffff8111801561313d57600080fd5b506040519080825280601f01601f191660200182016040528015613168576020820181803683370190505b50905060005b87838151811061317a57fe5b60200260200101518110156131cf5785858151811061319557fe5b602001015160f81c60f81b8282815181106131ac57fe5b60200101906001600160f81b031916908160001a9053506001948501940161316e565b5060608c83815181106131de57fe5b602002602001015167ffffffffffffffff811180156131fc57600080fd5b506040519080825280601f01601f191660200182016040528015613227576020820181803683370190505b50905060005b8d848151811061323957fe5b602002602001015181101561328e578c858151811061325457fe5b602001015160f81c60f81b82828151811061326b57fe5b60200101906001600160f81b031916908160001a9053506001948501940161322d565b508d838151811061329b57fe5b60200260200101518b6002600781106132b057fe5b60200201906001600160a01b031690816001600160a01b03168152505061332c8984815181106132dc57fe5b60200260200101518885815181106132f057fe5b6020026020010151848e60008f87604051602401808060200186600760200280838360008381101561195557818101518382015260200161193d565b61333557600080fd5b5050600101613108565b508251821461334d57600080fd5b5050505050505050505050565b6000828211156133b1576040805162461bcd60e51b815260206004820152601e60248201527f536166654d6174683a207375627472616374696f6e206f766572666c6f770000604482015290519081900360640190fd5b50900390565b606080821580156133d35760405191506020820160405261341d565b6040519150601f8416801560200281840101858101878315602002848b0101015b8183101561340c5780518352602092830192016133f4565b5050858452601f01601f1916604052505b50949350505050565b6040518060400160405280600290602082028036833750919291505056fe446966666572656e74206e756d626572206f66207374617469632063616c6c2061646472657373657320616e642065787472616461746173a264697066735822122005a8e7a0d0c5a17b6793cf39f5eaf1ea63b8a65390cf79e52d2de65c6be3831b64736f6c63430007050033",
  "linkReferences": {},
  "deployedLinkReferences": {}
}