{
  "_format": "hh-sol-artifact-1",
  "contractName": "StaticERC20",
  "sourceName": "contracts/static/StaticERC20.sol",
  "abi": [
    {
      "inputs": [
        {
          "internalType": "bytes",
          "name": "extra",
          "type": "bytes"
        },
        {
          "internalType": "address[7]",
          "name": "addresses",
          "type": "address[7]"
        },
        {
          "internalType": "enum AuthenticatedProxy.HowToCall[2]",
          "name": "howToCalls",
          "type": "uint8[2]"
        },
        {
          "internalType": "uint256[6]",
          "name": "uints",
          "type": "uint256[6]"
        },
        {
          "internalType": "bytes",
          "name": "data",
          "type": "bytes"
        },
        {
          "internalType": "bytes",
          "name": "counterdata",
          "type": "bytes"
        }
      ],
      "name": "swapExact",
      "outputs": [
        {
          "internalType": "uint256",
          "name": "",
          "type": "uint256"
        }
      ],
      "stateMutability": "pure",
      "type": "function"
    },
    {
      "inputs": [
        {
          "internalType": "bytes",
          "name": "extra",
          "type": "bytes"
        },
        {
          "internalType": "address[7]",
          "name": "addresses",
          "type": "address[7]"
        },
        {
          "internalType": "enum AuthenticatedProxy.HowToCall[2]",
          "name": "howToCalls",
          "type": "uint8[2]"
        },
        {
          "internalType": "uint256[6]",
          "name": "uints",
          "type": "uint256[6]"
        },
        {
          "internalType": "bytes",
          "name": "data",
          "type": "bytes"
        },
        {
          "internalType": "bytes",
          "name": "counterdata",
          "type": "bytes"
        }
      ],
      "name": "swapForever",
      "outputs": [
        {
          "internalType": "uint256",
          "name": "",
          "type": "uint256"
        }
      ],
      "stateMutability": "pure",
      "type": "function"
    },
    {
      "inputs": [
        {
          "internalType": "bytes",
          "name": "extra",
          "type": "bytes"
        },
        {
          "internalType": "address[7]",
          "name": "addresses",
          "type": "address[7]"
        },
        {
          "internalType": "enum AuthenticatedProxy.HowToCall",
          "name": "howToCall",
          "type": "uint8"
        },
        {
          "internalType": "uint256[6]",
          "name": "",
          "type": "uint256[6]"
        },
        {
          "internalType": "bytes",
          "name": "data",
          "type": "bytes"
        }
      ],
      "name": "transferERC20Exact",
      "outputs": [],
      "stateMutability": "pure",
      "type": "function"
    }
  ],
  "bytecode": "0x608060405234801561001057600080fd5b50610d23806100206000396000f3fe608060405234801561001057600080fd5b50600436106100415760003560e01c806323f62d9c14610046578063265a87e71461028e578063f6280c8614610424575b600080fd5b61027c600480360361024081101561005d57600080fd5b81019060208101813564010000000081111561007857600080fd5b82018360208201111561008a57600080fd5b803590602001918460018302840111640100000000831117156100ac57600080fd5b91908080601f016020809104026020016040519081016040528093929190818152602001838380828437600092019190915250506040805160e081810190925293969594818101949350915060079083908390808284376000920191909152505060408051808201825292959493818101939250906002908390839080828437600092019190915250506040805160c0818101909252929594938181019392509060069083908390808284376000920191909152509194939260208101925035905064010000000081111561018057600080fd5b82018360208201111561019257600080fd5b803590602001918460018302840111640100000000831117156101b457600080fd5b91908080601f016020809104026020016040519081016040528093929190818152602001838380828437600092019190915250929594936020810193503591505064010000000081111561020757600080fd5b82018360208201111561021957600080fd5b8035906020019184600183028401116401000000008311171561023b57600080fd5b91908080601f01602080910402602001604051908101604052809392919081815260200183838082843760009201919091525092955061065a945050505050565b60408051918252519081900360200190f35b61042260048036036102008110156102a557600080fd5b8101906020810181356401000000008111156102c057600080fd5b8201836020820111156102d257600080fd5b803590602001918460018302840111640100000000831117156102f457600080fd5b91908080601f016020809104026020016040519081016040528093929190818152602001838380828437600092019190915250506040805160e08181019092529396959481810194935091506007908390839080828437600092019190915250506040805160c0818101909252929560ff853516959094909360e082019350916020909101906006908390839080828437600092019190915250919493926020810192503590506401000000008111156103ad57600080fd5b8201836020820111156103bf57600080fd5b803590602001918460018302840111640100000000831117156103e157600080fd5b91908080601f0160208091040260200160405190810160405280939291908181526020018383808284376000920191909152509295506107ba945050505050565b005b61027c600480360361024081101561043b57600080fd5b81019060208101813564010000000081111561045657600080fd5b82018360208201111561046857600080fd5b8035906020019184600183028401116401000000008311171561048a57600080fd5b91908080601f016020809104026020016040519081016040528093929190818152602001838380828437600092019190915250506040805160e081810190925293969594818101949350915060079083908390808284376000920191909152505060408051808201825292959493818101939250906002908390839080828437600092019190915250506040805160c0818101909252929594938181019392509060069083908390808284376000920191909152509194939260208101925035905064010000000081111561055e57600080fd5b82018360208201111561057057600080fd5b8035906020019184600183028401116401000000008311171561059257600080fd5b91908080601f01602080910402602001604051908101604052809392919081815260200183838082843760009201919091525092959493602081019350359150506401000000008111156105e557600080fd5b8201836020820111156105f757600080fd5b8035906020019184600183028401116401000000008311171561061957600080fd5b91908080601f016020809104026020016040519081016040528093929190818152602001838380828437600092019190915250929550610894945050505050565b82516000901561066957600080fd5b610671610cae565b610679610cae565b88806020019051608081101561068e57600080fd5b50805160408a810151929450840192506001600160a01b039182169116146106b557600080fd5b865160009060018111156106c557fe5b146106cf57600080fd5b602088015160808901516107439187918460005b60209081029190910151604080516001600160a01b03958616602482015293909416604484015260648084019190915283518084039091018152608490920190925290810180516001600160e01b03166323b872dd60e01b179052610aea565b61074c57600080fd5b602082015160a08901516001600160a01b0390811691161461076d57600080fd5b6020870151600090600181111561078057fe5b1461078a57600080fd5b608088015160208901516107a29186918460016106e3565b6107ab57600080fd5b50600198975050505050505050565b6000808680602001905160408110156107d257600080fd5b50805160209091015190925090506001600160a01b03821686600260200201516001600160a01b03161461080557600080fd5b600085600181111561081357fe5b1461081d57600080fd5b6020868101516080880151604080516001600160a01b0393841660248201529290911660448301526064808301859052815180840390910181526084909201905290810180516001600160e01b03166323b872dd60e01b179052610882908490610aea565b61088b57600080fd5b50505050505050565b604080516004808252602482019092526020810180516001600160e01b03166323b872dd60e01b1790526000916060916108cd91610b50565b8551909150156108dc57600080fd5b6108e4610cae565b6108ec610cae565b89806020019051608081101561090157600080fd5b50805160408b810151929450840192506001600160a01b0391821691161461092857600080fd5b8751600090600181111561093857fe5b1461094257600080fd5b61095683610951886004610b50565b610aea565b61095f57600080fd5b600080600061096f896004610b65565b806020019051606081101561098357600080fd5b508051602082015160409092015190945090925090508b600160200201516001600160a01b0316836001600160a01b0316146109be57600080fd5b60808c01516001600160a01b038381169116146109da57600080fd5b602085015160a08d01516001600160a01b039081169116146109fb57600080fd5b60208b01516000906001811115610a0e57fe5b14610a1857600080fd5b610a27866109518a6004610b50565b610a3057600080fd5b6000806000610a408b6004610b65565b8060200190516060811015610a5457600080fd5b508051602082015160409092015190945090925090508e600460200201516001600160a01b0316836001600160a01b031614610a8f57600080fd5b60208f01516001600160a01b03838116911614610aab57600080fd5b610abd848860005b6020020151610b89565b610ac982896001610ab3565b1015610ad457600080fd5b5060019f9e505050505050505050505050505050565b815181516000916001918114808314610b065760009250610b44565b600160208701838101602088015b600284838510011415610b3f578051835114610b335760009650600093505b60209283019201610b14565b505050505b50909150505b92915050565b6060610b5e83600084610be2565b9392505050565b60606000610b74845184610c51565b9050610b81848483610be2565b949350505050565b600082610b9857506000610b4a565b82820282848281610ba557fe5b0414610b5e5760405162461bcd60e51b8152600401808060200182810382526021815260200180610ccd6021913960400191505060405180910390fd5b60608082158015610bfe57604051915060208201604052610c48565b6040519150601f8416801560200281840101858101878315602002848b0101015b81831015610c37578051835260209283019201610c1f565b5050858452601f01601f1916604052505b50949350505050565b600082821115610ca8576040805162461bcd60e51b815260206004820152601e60248201527f536166654d6174683a207375627472616374696f6e206f766572666c6f770000604482015290519081900360640190fd5b50900390565b6040518060400160405280600290602082028036833750919291505056fe536166654d6174683a206d756c7469706c69636174696f6e206f766572666c6f77a264697066735822122051e60fc6531e651df179a9d5a2ac6816f62ec0b491f847b2622045edd75767fa64736f6c63430007050033",
  "linkReferences": {},
  "deployedLinkReferences": {}
}