{
  "_format": "hh-sol-artifact-1",
  "contractName": "Exchange",
  "sourceName": "contracts/exchange/Exchange.sol",
  "abi": [
    {
      "anonymous": false,
      "inputs": [
        {
          "indexed": true,
          "internalType": "bytes32",
          "name": "hash",
          "type": "bytes32"
        },
        {
          "indexed": false,
          "internalType": "address",
          "name": "registry",
          "type": "address"
        },
        {
          "indexed": true,
          "internalType": "address",
          "name": "maker",
          "type": "address"
        },
        {
          "indexed": false,
          "internalType": "address",
          "name": "staticTarget",
          "type": "address"
        },
        {
          "indexed": false,
          "internalType": "bytes4",
          "name": "staticSelector",
          "type": "bytes4"
        },
        {
          "indexed": false,
          "internalType": "bytes",
          "name": "staticExtradata",
          "type": "bytes"
        },
        {
          "indexed": false,
          "internalType": "uint256",
          "name": "maximumFill",
          "type": "uint256"
        },
        {
          "indexed": false,
          "internalType": "uint256",
          "name": "listingTime",
          "type": "uint256"
        },
        {
          "indexed": false,
          "internalType": "uint256",
          "name": "expirationTime",
          "type": "uint256"
        },
        {
          "indexed": false,
          "internalType": "uint256",
          "name": "salt",
          "type": "uint256"
        },
        {
          "indexed": false,
          "internalType": "bool",
          "name": "orderbookInclusionDesired",
          "type": "bool"
        }
      ],
      "name": "OrderApproved",
      "type": "event"
    },
    {
      "anonymous": false,
      "inputs": [
        {
          "indexed": true,
          "internalType": "bytes32",
          "name": "hash",
          "type": "bytes32"
        },
        {
          "indexed": true,
          "internalType": "address",
          "name": "maker",
          "type": "address"
        },
        {
          "indexed": false,
          "internalType": "uint256",
          "name": "newFill",
          "type": "uint256"
        }
      ],
      "name": "OrderFillChanged",
      "type": "event"
    },
    {
      "anonymous": false,
      "inputs": [
        {
          "indexed": false,
          "internalType": "bytes32",
          "name": "firstHash",
          "type": "bytes32"
        },
        {
          "indexed": false,
          "internalType": "bytes32",
          "name": "secondHash",
          "type": "bytes32"
        },
        {
          "indexed": true,
          "internalType": "address",
          "name": "firstMaker",
          "type": "address"
        },
        {
          "indexed": true,
          "internalType": "address",
          "name": "secondMaker",
          "type": "address"
        },
        {
          "indexed": false,
          "internalType": "uint256",
          "name": "newFirstFill",
          "type": "uint256"
        },
        {
          "indexed": false,
          "internalType": "uint256",
          "name": "newSecondFill",
          "type": "uint256"
        },
        {
          "indexed": true,
          "internalType": "bytes32",
          "name": "metadata",
          "type": "bytes32"
        }
      ],
      "name": "OrdersMatched",
      "type": "event"
    },
    {
      "inputs": [
        {
          "internalType": "bytes32",
          "name": "hash",
          "type": "bytes32"
        }
      ],
      "name": "approveOrderHash_",
      "outputs": [],
      "stateMutability": "nonpayable",
      "type": "function"
    },
    {
      "inputs": [
        {
          "internalType": "address",
          "name": "registry",
          "type": "address"
        },
        {
          "internalType": "address",
          "name": "maker",
          "type": "address"
        },
        {
          "internalType": "address",
          "name": "staticTarget",
          "type": "address"
        },
        {
          "internalType": "bytes4",
          "name": "staticSelector",
          "type": "bytes4"
        },
        {
          "internalType": "bytes",
          "name": "staticExtradata",
          "type": "bytes"
        },
        {
          "internalType": "uint256",
          "name": "maximumFill",
          "type": "uint256"
        },
        {
          "internalType": "uint256",
          "name": "listingTime",
          "type": "uint256"
        },
        {
          "internalType": "uint256",
          "name": "expirationTime",
          "type": "uint256"
        },
        {
          "internalType": "uint256",
          "name": "salt",
          "type": "uint256"
        },
        {
          "internalType": "bool",
          "name": "orderbookInclusionDesired",
          "type": "bool"
        }
      ],
      "name": "approveOrder_",
      "outputs": [],
      "stateMutability": "nonpayable",
      "type": "function"
    },
    {
      "inputs": [
        {
          "internalType": "address",
          "name": "",
          "type": "address"
        },
        {
          "internalType": "bytes32",
          "name": "",
          "type": "bytes32"
        }
      ],
      "name": "approved",
      "outputs": [
        {
          "internalType": "bool",
          "name": "",
          "type": "bool"
        }
      ],
      "stateMutability": "view",
      "type": "function"
    },
    {
      "inputs": [
        {
          "internalType": "uint256[16]",
          "name": "uints",
          "type": "uint256[16]"
        },
        {
          "internalType": "bytes4[2]",
          "name": "staticSelectors",
          "type": "bytes4[2]"
        },
        {
          "internalType": "bytes",
          "name": "firstExtradata",
          "type": "bytes"
        },
        {
          "internalType": "bytes",
          "name": "firstCalldata",
          "type": "bytes"
        },
        {
          "internalType": "bytes",
          "name": "secondExtradata",
          "type": "bytes"
        },
        {
          "internalType": "bytes",
          "name": "secondCalldata",
          "type": "bytes"
        },
        {
          "internalType": "uint8[2]",
          "name": "howToCalls",
          "type": "uint8[2]"
        },
        {
          "internalType": "bytes32",
          "name": "metadata",
          "type": "bytes32"
        },
        {
          "internalType": "bytes",
          "name": "signatures",
          "type": "bytes"
        }
      ],
      "name": "atomicMatch_",
      "outputs": [],
      "stateMutability": "payable",
      "type": "function"
    },
    {
      "inputs": [
        {
          "internalType": "address",
          "name": "",
          "type": "address"
        },
        {
          "internalType": "bytes32",
          "name": "",
          "type": "bytes32"
        }
      ],
      "name": "fills",
      "outputs": [
        {
          "internalType": "uint256",
          "name": "",
          "type": "uint256"
        }
      ],
      "stateMutability": "view",
      "type": "function"
    },
    {
      "inputs": [
        {
          "internalType": "address",
          "name": "registry",
          "type": "address"
        },
        {
          "internalType": "address",
          "name": "maker",
          "type": "address"
        },
        {
          "internalType": "address",
          "name": "staticTarget",
          "type": "address"
        },
        {
          "internalType": "bytes4",
          "name": "staticSelector",
          "type": "bytes4"
        },
        {
          "internalType": "bytes",
          "name": "staticExtradata",
          "type": "bytes"
        },
        {
          "internalType": "uint256",
          "name": "maximumFill",
          "type": "uint256"
        },
        {
          "internalType": "uint256",
          "name": "listingTime",
          "type": "uint256"
        },
        {
          "internalType": "uint256",
          "name": "expirationTime",
          "type": "uint256"
        },
        {
          "internalType": "uint256",
          "name": "salt",
          "type": "uint256"
        }
      ],
      "name": "hashOrder_",
      "outputs": [
        {
          "internalType": "bytes32",
          "name": "hash",
          "type": "bytes32"
        }
      ],
      "stateMutability": "pure",
      "type": "function"
    },
    {
      "inputs": [
        {
          "internalType": "bytes32",
          "name": "orderHash",
          "type": "bytes32"
        }
      ],
      "name": "hashToSign_",
      "outputs": [
        {
          "internalType": "bytes32",
          "name": "hash",
          "type": "bytes32"
        }
      ],
      "stateMutability": "view",
      "type": "function"
    },
    {
      "inputs": [
        {
          "internalType": "address",
          "name": "",
          "type": "address"
        }
      ],
      "name": "registries",
      "outputs": [
        {
          "internalType": "bool",
          "name": "",
          "type": "bool"
        }
      ],
      "stateMutability": "view",
      "type": "function"
    },
    {
      "inputs": [
        {
          "internalType": "bytes32",
          "name": "hash",
          "type": "bytes32"
        },
        {
          "internalType": "uint256",
          "name": "fill",
          "type": "uint256"
        }
      ],
      "name": "setOrderFill_",
      "outputs": [],
      "stateMutability": "nonpayable",
      "type": "function"
    },
    {
      "inputs": [
        {
          "internalType": "bytes32",
          "name": "hash",
          "type": "bytes32"
        },
        {
          "internalType": "address",
          "name": "maker",
          "type": "address"
        },
        {
          "internalType": "bytes",
          "name": "signature",
          "type": "bytes"
        }
      ],
      "name": "validateOrderAuthorization_",
      "outputs": [
        {
          "internalType": "bool",
          "name": "",
          "type": "bool"
        }
      ],
      "stateMutability": "view",
      "type": "function"
    },
    {
      "inputs": [
        {
          "internalType": "address",
          "name": "registry",
          "type": "address"
        },
        {
          "internalType": "address",
          "name": "maker",
          "type": "address"
        },
        {
          "internalType": "address",
          "name": "staticTarget",
          "type": "address"
        },
        {
          "internalType": "bytes4",
          "name": "staticSelector",
          "type": "bytes4"
        },
        {
          "internalType": "bytes",
          "name": "staticExtradata",
          "type": "bytes"
        },
        {
          "internalType": "uint256",
          "name": "maximumFill",
          "type": "uint256"
        },
        {
          "internalType": "uint256",
          "name": "listingTime",
          "type": "uint256"
        },
        {
          "internalType": "uint256",
          "name": "expirationTime",
          "type": "uint256"
        },
        {
          "internalType": "uint256",
          "name": "salt",
          "type": "uint256"
        }
      ],
      "name": "validateOrderParameters_",
      "outputs": [
        {
          "internalType": "bool",
          "name": "",
          "type": "bool"
        }
      ],
      "stateMutability": "view",
      "type": "function"
    }
  ],
  "bytecode": "0x6000805460ff1916905560c0604052601a60808190527f19457468657265756d205369676e6564204d6573736167653a0a00000000000060a09081526200004a91600291906200005f565b503480156200005857600080fd5b506200010b565b828054600181600116156101000203166002900490600052602060002090601f016020900481019282620000975760008555620000e2565b82601f10620000b257805160ff1916838001178555620000e2565b82800160010185558215620000e2579182015b82811115620000e2578251825591602001919060010190620000c5565b50620000f0929150620000f4565b5090565b5b80821115620000f05760008155600101620000f5565b6125ce806200011b6000396000f3fe6080604052600436106100bc5760003560e01c8063caed80df11610074578063f9b0bc201161004e578063f9b0bc201461070e578063fac7fc38146107d0578063ffc2ab1414610809576100bc565b8063caed80df146105dd578063d57ad58814610610578063f861975b1461064c576100bc565b806314127f13116100a557806314127f1314610193578063995e8195146101c35780639a5168db1461028d576100bc565b80630812226e146100c157806313b219e2146100ed575b600080fd5b3480156100cd57600080fd5b506100eb600480360360208110156100e457600080fd5b5035610842565b005b3480156100f957600080fd5b5061017f6004803603606081101561011057600080fd5b8135916001600160a01b036020820135169181019060608101604082013564010000000081111561014057600080fd5b82018360208201111561015257600080fd5b8035906020019184600183028401116401000000008311171561017457600080fd5b50909250905061084e565b604080519115158252519081900360200190f35b34801561019f57600080fd5b506100eb600480360360408110156101b657600080fd5b508035906020013561089a565b3480156101cf57600080fd5b506100eb60048036036101408110156101e757600080fd5b6001600160a01b03823581169260208101358216926040820135909216916001600160e01b0319606083013516919081019060a08101608082013564010000000081111561023457600080fd5b82018360208201111561024657600080fd5b8035906020019184600183028401116401000000008311171561026857600080fd5b91935091508035906020810135906040810135906060810135906080013515156108a8565b6100eb60048036036103408110156102a457600080fd5b81019080806102000190601080602002604051908101604052809291908260106020028082843760009201919091525050604080518082018252929594938181019392509060029083908390808284376000920191909152509194939260208101925035905064010000000081111561031c57600080fd5b82018360208201111561032e57600080fd5b8035906020019184600183028401116401000000008311171561035057600080fd5b91908080601f01602080910402602001604051908101604052809392919081815260200183838082843760009201919091525092959493602081019350359150506401000000008111156103a357600080fd5b8201836020820111156103b557600080fd5b803590602001918460018302840111640100000000831117156103d757600080fd5b91908080601f016020809104026020016040519081016040528093929190818152602001838380828437600092019190915250929594936020810193503591505064010000000081111561042a57600080fd5b82018360208201111561043c57600080fd5b8035906020019184600183028401116401000000008311171561045e57600080fd5b91908080601f01602080910402602001604051908101604052809392919081815260200183838082843760009201919091525092959493602081019350359150506401000000008111156104b157600080fd5b8201836020820111156104c357600080fd5b803590602001918460018302840111640100000000831117156104e557600080fd5b91908080601f016020809104026020016040519081016040528093929190818152602001838380828437600092019190915250506040805180820182529396959481810194935091506002908390839080828437600092019190915250919483359490939092506040810191506020013564010000000081111561056857600080fd5b82018360208201111561057a57600080fd5b8035906020019184600183028401116401000000008311171561059c57600080fd5b91908080601f01602080910402602001604051908101604052809392919081815260200183838082843760009201919091525092955061095b945050505050565b3480156105e957600080fd5b5061017f6004803603602081101561060057600080fd5b50356001600160a01b0316610bde565b34801561061c57600080fd5b5061063a6004803603602081101561063357600080fd5b5035610bf3565b60408051918252519081900360200190f35b34801561065857600080fd5b5061063a600480360361012081101561067057600080fd5b6001600160a01b03823581169260208101358216926040820135909216916001600160e01b0319606083013516919081019060a0810160808201356401000000008111156106bd57600080fd5b8201836020820111156106cf57600080fd5b803590602001918460018302840111640100000000831117156106f157600080fd5b919350915080359060208101359060408101359060600135610c04565b34801561071a57600080fd5b5061017f600480360361012081101561073257600080fd5b6001600160a01b03823581169260208101358216926040820135909216916001600160e01b0319606083013516919081019060a08101608082013564010000000081111561077f57600080fd5b82018360208201111561079157600080fd5b803590602001918460018302840111640100000000831117156107b357600080fd5b919350915080359060208101359060408101359060600135610cba565b3480156107dc57600080fd5b5061017f600480360360408110156107f357600080fd5b506001600160a01b038135169060200135610d85565b34801561081557600080fd5b5061063a6004803603604081101561082c57600080fd5b506001600160a01b038135169060200135610da5565b61084b81610dc2565b50565b6000610891858585858080601f016020809104026020016040519081016040528093929190818152602001838380828437600092019190915250610e5892505050565b95945050505050565b6108a48282611230565b5050565b61094e6040518061012001604052808d6001600160a01b031681526020018c6001600160a01b031681526020018b6001600160a01b031681526020018a6001600160e01b031916815260200189898080601f016020809104026020016040519081016040528093929190818152602001838380828437600092019190915250505090825250602081018890526040810187905260608101869052608001849052826112dd565b5050505050505050505050565b610bd36040518061012001604052808b60006010811061097757fe5b60200201516001600160a01b031681526020018b60016010811061099757fe5b60200201516001600160a01b031681526020018b6002601081106109b757fe5b60200201516001600160a01b031681526020018a6000600281106109d757fe5b60200201516001600160e01b03191681526020018981526020018b6003601081106109fe57fe5b602002015181526020018b600460108110610a1557fe5b602002015181526020018b600560108110610a2c57fe5b602002015181526020018b600660108110610a4357fe5b602002015190526040805160608101909152808c600760200201516001600160a01b0316815260200186600060028110610a7957fe5b602002015160ff166001811115610a8c57fe5b6001811115610a9757fe5b815260209081018a90526040805161012081019091526101008e01516001600160a01b031681529081018d600960200201516001600160a01b031681526020018d600a60108110610ae457fe5b60200201516001600160a01b031681526020018c600160028110610b0457fe5b60200201516001600160e01b03191681526020018981526020018d600b60108110610b2b57fe5b602002015181526020018d600c60108110610b4257fe5b602002015181526020018d600d60108110610b5957fe5b602002015181526020018d600e60108110610b7057fe5b602002015190526040805160608101909152808e600f60200201516001600160a01b0316815260200188600160028110610ba657fe5b602002015160ff166001811115610bb957fe5b6001811115610bc457fe5b8152602001899052858761146a565b505050505050505050565b60036020526000908152604090205460ff1681565b6000610bfe82611ac2565b92915050565b6000610cab6040518061012001604052808d6001600160a01b031681526020018c6001600160a01b031681526020018b6001600160a01b031681526020018a6001600160e01b031916815260200189898080601f016020809104026020016040519081016040528093929190818152602001838380828437600092019190915250505090825250602081018890526040810187905260608101869052608001849052611b00565b9b9a5050505050505050505050565b6000610cc46123a1565b6040518061012001604052808d6001600160a01b031681526020018c6001600160a01b031681526020018b6001600160a01b031681526020018a6001600160e01b031916815260200189898080601f0160208091040260200160405190810160405280939291908181526020018383808284376000920191909152505050908252506020810188905260408101879052606081018690526080018490529050610d7581610d7081611b00565b611be9565b9c9b505050505050505050505050565b600560209081526000928352604080842090915290825290205460ff1681565b600460209081526000928352604080842090915290825290205481565b33600090815260056020908152604080832084845290915290205460ff1615610e32576040805162461bcd60e51b815260206004820152601f60248201527f4f726465722068617320616c7265616479206265656e20617070726f76656400604482015290519081900360640190fd5b33600090815260056020908152604080832093835292905220805460ff19166001179055565b6001600160a01b038216600090815260046020908152604080832086845290915281205415610e8957506001611229565b6001600160a01b038316331415610ea257506001611229565b6001600160a01b038316600090815260056020908152604080832087845290915290205460ff1615610ed657506001611229565b6000610ee185611ac2565b90506000610eee85611c75565b90508015610ffd5760408051630b135d3f60e11b808252600482018581526024830193845287516044840152875191936001600160a01b038a1693631626ba7e9388938b9390929091606490910190602085019080838360005b83811015610f60578181015183820152602001610f48565b50505050905090810190601f168015610f8d5780820380516001836020036101000a031916815260200191505b50935050505060206040518083038186803b158015610fab57600080fd5b505afa158015610fbf573d6000803e3d6000fd5b505050506040513d6020811015610fd557600080fd5b50516001600160e01b0319161415610ff257600192505050611229565b600092505050611229565b600080600086806020019051606081101561101757600080fd5b50805160208201516040909201518951919550919350909150604110801561107957508660018851038151811061104a57fe5b6020910101517fff0000000000000000000000000000000000000000000000000000000000000016600360f81b145b1561119457876001600160a01b0316600160028760405160200180838054600181600116156101000203166002900480156110eb5780601f106110c95761010080835404028352918201916110eb565b820191906000526020600020905b8154815290600101906020018083116110d7575b505061199960f11b81526002808201939093526040805180830390940184526022820180825284516020958601206000909152604283018083525260ff8a1660628301526082820189905260a282018890525160c28083019550601f19820193509181900390910190855afa158015611168573d6000803e3d6000fd5b505050602060405103516001600160a01b0316141561118f57600195505050505050611229565b61121f565b876001600160a01b031660018685858560405160008152602001604052604051808581526020018460ff1681526020018381526020018281526020019450505050506020604051602081039080840390855afa1580156111f8573d6000803e3d6000fd5b505050602060405103516001600160a01b0316141561121f57600195505050505050611229565b6000955050505050505b9392505050565b3360009081526004602090815260408083208584529091529020548114156112895760405162461bcd60e51b81526004018080602001828103825260288152602001806124c26028913960400191505060405180910390fd5b3360008181526004602090815260408083208684528252918290208490558151848152915185927f826cd05b52546b47590739469989cacd5336e0a9e6f9392de2dee5cfb19c8aab92908290030190a35050565b60208201516001600160a01b031633146113285760405162461bcd60e51b815260040180806020018281038252604a815260200180612447604a913960600191505060405180910390fd5b600061133383611b00565b905061133e81610dc2565b82602001516001600160a01b0316817fbace5d282ba59cba3de1ac539b0ed46ae5a3d8ad434a3ac9f07ce45d1661481885600001518660400151876060015188608001518960a001518a60c001518b60e001518c61010001518c604051808a6001600160a01b03168152602001896001600160a01b03168152602001886001600160e01b0319168152602001806020018781526020018681526020018581526020018481526020018315158152602001828103825288818151815260200191508051906020019080838360005b8381101561142357818101518382015260200161140b565b50505050905090810190601f1680156114505780820380516001836020036101000a031916815260200191505b509a505050505050505050505060405180910390a3505050565b60005460ff16156114c2576040805162461bcd60e51b815260206004820152601360248201527f5265656e7472616e637920646574656374656400000000000000000000000000604482015290519081900360640190fd5b6000805460ff191660011781556114d887611b00565b90506114e48782611be9565b61151f5760405162461bcd60e51b81526004018080602001828103825260228152602001806125336022913960400191505060405180910390fd5b600061152a86611b00565b90506115368682611be9565b6115715760405162461bcd60e51b81526004018080602001828103825260238152602001806125766023913960400191505060405180910390fd5b808214156115b05760405162461bcd60e51b81526004018080602001828103825260228152602001806124ea6022913960400191505060405180910390fd5b6060808580602001905160408110156115c857600080fd5b81019080805160405193929190846401000000008211156115e857600080fd5b9083019060208201858111156115fd57600080fd5b825164010000000081118282018810171561161757600080fd5b82525081516020918201929091019080838360005b8381101561164457818101518382015260200161162c565b50505050905090810190601f1680156116715780820380516001836020036101000a031916815260200191505b506040526020018051604051939291908464010000000082111561169457600080fd5b9083019060208201858111156116a957600080fd5b82516401000000008111828201881017156116c357600080fd5b82525081516020918201929091019080838360005b838110156116f05781810151838201526020016116d8565b50505050905090810190601f16801561171d5780820380516001836020036101000a031916815260200191505b5060405250505091509150611737848b6020015184610e58565b611788576040805162461bcd60e51b815260206004820181905260248201527f4669727374206f72646572206661696c656420617574686f72697a6174696f6e604482015290519081900360640190fd5b61179783896020015183610e58565b6117d25760405162461bcd60e51b81526004018080602001828103825260218152602001806125556021913960400191505060405180910390fd5b505034156118865760208801516040516000916001600160a01b03169034908381818185875af1925050503d8060008114611829576040519150601f19603f3d011682016040523d82523d6000602084013e61182e565b606091505b5050905080611884576040805162461bcd60e51b815260206004820152601d60248201527f6e617469766520746f6b656e207472616e73666572206661696c65642e000000604482015290519081900360640190fd5b505b6118998860000151896020015189611c7b565b6118ea576040805162461bcd60e51b815260206004820152601160248201527f46697273742063616c6c206661696c6564000000000000000000000000000000604482015290519081900360640190fd5b6118fd8660000151876020015187611c7b565b61194e576040805162461bcd60e51b815260206004820152601260248201527f5365636f6e642063616c6c206661696c65640000000000000000000000000000604482015290519081900360640190fd5b6020808901516001600160a01b039081166000908152600480845260408083208784528552808320548b86015190941683529084528082208583529093529182205490916119a18b8b8b8b333489611fef565b905060006119b58a8a8e8e33600089611fef565b60208d01519091506001600160a01b031633146119fb578382146119fb576020808d01516001600160a01b03166000908152600482526040808220898352909252208290555b60208a01516001600160a01b03163314611a3e57828114611a3e576020808b01516001600160a01b03166000908152600482526040808220888352909252208190555b868a602001516001600160a01b03168d602001516001600160a01b03167fe8447df45ce371d4c2f6cfcb9342b06165f71b244e809b909977f0dab191a009898987876040518085815260200184815260200183815260200182815260200194505050505060405180910390a450506000805460ff1916905550505050505050505050565b6001546040805161190160f01b6020808301919091526022820193909352604280820194909452815180820390940184526062019052815191012090565b60007feb61b8100bcd004cad335a779aa74e9b176b520f4b98e7b487c133a82e9853dd82600001518360200151846040015185606001518660800151805190602001208760a001518860c001518960e001518a6101000151604051602001808b81526020018a6001600160a01b03168152602001896001600160a01b03168152602001886001600160a01b03168152602001876001600160e01b03191681526020018681526020018581526020018481526020018381526020018281526020019a5050505050505050505050604051602081830303815290604052805190602001209050919050565b6000428360c001511180611c0f575060e083015115801590611c0f5750428360e0015111155b15611c1c57506000610bfe565b60a08301516020808501516001600160a01b03166000908152600482526040808220868352909252205410611c5357506000610bfe565b611c608360400151611c75565b611c6c57506000610bfe565b50600192915050565b3b151590565b6001600160a01b03831660009081526003602052604081205460ff16611ca057600080fd5b8151611cab90611c75565b611cfc576040805162461bcd60e51b815260206004820152601a60248201527f43616c6c2074617267657420646f6573206e6f74206578697374000000000000604482015290519081900360640190fd5b6000846001600160a01b031663c4552791856040518263ffffffff1660e01b815260040180826001600160a01b03168152602001915050602060405180830381600087803b158015611d4d57600080fd5b505af1158015611d61573d6000803e3d6000fd5b505050506040513d6020811015611d7757600080fd5b505190506001600160a01b038116611dc05760405162461bcd60e51b815260040180806020018281038252602781526020018061250c6027913960400191505060405180910390fd5b846001600160a01b03166397204d8e6040518163ffffffff1660e01b8152600401602060405180830381600087803b158015611dfb57600080fd5b505af1158015611e0f573d6000803e3d6000fd5b505050506040513d6020811015611e2557600080fd5b505160408051635c60da1b60e01b815290516001600160a01b0392831692841691635c60da1b916004808301926020929190829003018186803b158015611e6b57600080fd5b505afa158015611e7f573d6000803e3d6000fd5b505050506040513d6020811015611e9557600080fd5b50516001600160a01b031614611edc5760405162461bcd60e51b81526004018080602001828103825260318152602001806124916031913960400191505060405180910390fd5b6000819050806001600160a01b0316631b0f7ba98560000151866020015187604001516040518463ffffffff1660e01b815260040180846001600160a01b03168152602001836001811115611f2d57fe5b815260200180602001828103825283818151815260200191508051906020019080838360005b83811015611f6b578181015183820152602001611f53565b50505050905090810190601f168015611f985780820380516001836020036101000a031916815260200191505b50945050505050602060405180830381600087803b158015611fb957600080fd5b505af1158015611fcd573d6000803e3d6000fd5b505050506040513d6020811015611fe357600080fd5b50519695505050505050565b600061200d88604001516120088a8a8a8a8a8a8a612019565b61232d565b98975050505050505050565b60606120236123ec565b506040805160e08101825289516001600160a01b0390811682526020808c01518216818401528a5182169383019390935288518116606083015291880151821660808201528651821660a082015290851660c082015261208161240a565b60405180604001604052808a60200151600181111561209c57fe5b60018111156120a757fe5b8152602001886020015160018111156120bc57fe5b60018111156120c757fe5b905290506120d3612428565b6040518060c001604052808781526020018c60a0015181526020018c60c0015181526020018c60e0015181526020018a60c0015181526020018681525090508a606001518b608001518484848e604001518d60400151604051602401808060200187600760200280838360005b83811015612158578181015183820152602001612140565b5050505090500186600260200280838360005b8381101561218357818101518382015260200161216b565b5050505090500185600660200280838360005b838110156121ae578181015183820152602001612196565b50505050905001806020018060200184810384528a818151815260200191508051906020019080838360005b838110156121f25781810151838201526020016121da565b50505050905090810190601f16801561221f5780820380516001836020036101000a031916815260200191505b50848103835286518152865160209182019188019080838360005b8381101561225257818101518382015260200161223a565b50505050905090810190601f16801561227f5780820380516001836020036101000a031916815260200191505b50848103825285518152855160209182019187019080838360005b838110156122b257818101518382015260200161229a565b50505050905090810190601f1680156122df5780820380516001836020036101000a031916815260200191505b5060408051601f198184030181529190526020810180516001600160e01b03166001600160e01b0319909d169c909c17909b5250989c50505050505050505050505050979650505050505050565b60008060206040518181865160208801895afa92508051935050508061239a576040805162461bcd60e51b815260206004820152601260248201527f5374617469632063616c6c206661696c65640000000000000000000000000000604482015290519081900360640190fd5b5092915050565b60408051610120810182526000808252602082018190529181018290526060808201839052608082015260a0810182905260c0810182905260e0810182905261010081019190915290565b6040518060e001604052806007906020820280368337509192915050565b60405180604001604052806002906020820280368337509192915050565b6040518060c00160405280600690602082028036833750919291505056fe53656e646572206973206e6f7420746865206d616b6572206f6620746865206f7264657220616e642074687573206e6f7420617574686f72697a656420746f20617070726f7665206974496e636f72726563742064656c65676174652070726f787920696d706c656d656e746174696f6e20666f72206d616b657246696c6c20697320616c72656164792073657420746f2074686520646573697265642076616c756553656c662d6d61746368696e67206f72646572732069732070726f6869626974656444656c65676174652070726f787920646f6573206e6f7420657869737420666f72206d616b65724669727374206f726465722068617320696e76616c696420706172616d65746572735365636f6e64206f72646572206661696c656420617574686f72697a6174696f6e5365636f6e64206f726465722068617320696e76616c696420706172616d6574657273a2646970667358221220bd34af31755390aa4914435c0aee6d76a70f8251d2ca07c5d772321d44c768cf64736f6c63430007050033",
  "linkReferences": {},
  "deployedLinkReferences": {}
}