{
  "_format": "hh-sol-artifact-1",
  "contractName": "TestERC721",
  "sourceName": "contracts/TestERC721.sol",
  "abi": [
    {
      "inputs": [],
      "stateMutability": "nonpayable",
      "type": "constructor"
    },
    {
      "anonymous": false,
      "inputs": [
        {
          "indexed": true,
          "internalType": "address",
          "name": "owner",
          "type": "address"
        },
        {
          "indexed": true,
          "internalType": "address",
          "name": "approved",
          "type": "address"
        },
        {
          "indexed": true,
          "internalType": "uint256",
          "name": "tokenId",
          "type": "uint256"
        }
      ],
      "name": "Approval",
      "type": "event"
    },
    {
      "anonymous": false,
      "inputs": [
        {
          "indexed": true,
          "internalType": "address",
          "name": "owner",
          "type": "address"
        },
        {
          "indexed": true,
          "internalType": "address",
          "name": "operator",
          "type": "address"
        },
        {
          "indexed": false,
          "internalType": "bool",
          "name": "approved",
          "type": "bool"
        }
      ],
      "name": "ApprovalForAll",
      "type": "event"
    },
    {
      "anonymous": false,
      "inputs": [
        {
          "indexed": true,
          "internalType": "address",
          "name": "from",
          "type": "address"
        },
        {
          "indexed": true,
          "internalType": "address",
          "name": "to",
          "type": "address"
        },
        {
          "indexed": true,
          "internalType": "uint256",
          "name": "tokenId",
          "type": "uint256"
        }
      ],
      "name": "Transfer",
      "type": "event"
    },
    {
      "inputs": [
        {
          "internalType": "address",
          "name": "to",
          "type": "address"
        },
        {
          "internalType": "uint256",
          "name": "tokenId",
          "type": "uint256"
        }
      ],
      "name": "approve",
      "outputs": [],
      "stateMutability": "nonpayable",
      "type": "function"
    },
    {
      "inputs": [
        {
          "internalType": "address",
          "name": "owner",
          "type": "address"
        }
      ],
      "name": "balanceOf",
      "outputs": [
        {
          "internalType": "uint256",
          "name": "",
          "type": "uint256"
        }
      ],
      "stateMutability": "view",
      "type": "function"
    },
    {
      "inputs": [],
      "name": "baseURI",
      "outputs": [
        {
          "internalType": "string",
          "name": "",
          "type": "string"
        }
      ],
      "stateMutability": "view",
      "type": "function"
    },
    {
      "inputs": [
        {
          "internalType": "uint256",
          "name": "tokenId",
          "type": "uint256"
        }
      ],
      "name": "getApproved",
      "outputs": [
        {
          "internalType": "address",
          "name": "",
          "type": "address"
        }
      ],
      "stateMutability": "view",
      "type": "function"
    },
    {
      "inputs": [
        {
          "internalType": "address",
          "name": "owner",
          "type": "address"
        },
        {
          "internalType": "address",
          "name": "operator",
          "type": "address"
        }
      ],
      "name": "isApprovedForAll",
      "outputs": [
        {
          "internalType": "bool",
          "name": "",
          "type": "bool"
        }
      ],
      "stateMutability": "view",
      "type": "function"
    },
    {
      "inputs": [
        {
          "internalType": "address",
          "name": "to",
          "type": "address"
        },
        {
          "internalType": "uint256",
          "name": "tokenId",
          "type": "uint256"
        }
      ],
      "name": "mint",
      "outputs": [
        {
          "internalType": "bool",
          "name": "",
          "type": "bool"
        }
      ],
      "stateMutability": "nonpayable",
      "type": "function"
    },
    {
      "inputs": [],
      "name": "name",
      "outputs": [
        {
          "internalType": "string",
          "name": "",
          "type": "string"
        }
      ],
      "stateMutability": "view",
      "type": "function"
    },
    {
      "inputs": [
        {
          "internalType": "uint256",
          "name": "tokenId",
          "type": "uint256"
        }
      ],
      "name": "ownerOf",
      "outputs": [
        {
          "internalType": "address",
          "name": "",
          "type": "address"
        }
      ],
      "stateMutability": "view",
      "type": "function"
    },
    {
      "inputs": [
        {
          "internalType": "address",
          "name": "from",
          "type": "address"
        },
        {
          "internalType": "address",
          "name": "to",
          "type": "address"
        },
        {
          "internalType": "uint256",
          "name": "tokenId",
          "type": "uint256"
        }
      ],
      "name": "safeTransferFrom",
      "outputs": [],
      "stateMutability": "nonpayable",
      "type": "function"
    },
    {
      "inputs": [
        {
          "internalType": "address",
          "name": "from",
          "type": "address"
        },
        {
          "internalType": "address",
          "name": "to",
          "type": "address"
        },
        {
          "internalType": "uint256",
          "name": "tokenId",
          "type": "uint256"
        },
        {
          "internalType": "bytes",
          "name": "_data",
          "type": "bytes"
        }
      ],
      "name": "safeTransferFrom",
      "outputs": [],
      "stateMutability": "nonpayable",
      "type": "function"
    },
    {
      "inputs": [
        {
          "internalType": "address",
          "name": "operator",
          "type": "address"
        },
        {
          "internalType": "bool",
          "name": "approved",
          "type": "bool"
        }
      ],
      "name": "setApprovalForAll",
      "outputs": [],
      "stateMutability": "nonpayable",
      "type": "function"
    },
    {
      "inputs": [
        {
          "internalType": "bytes4",
          "name": "interfaceId",
          "type": "bytes4"
        }
      ],
      "name": "supportsInterface",
      "outputs": [
        {
          "internalType": "bool",
          "name": "",
          "type": "bool"
        }
      ],
      "stateMutability": "view",
      "type": "function"
    },
    {
      "inputs": [],
      "name": "symbol",
      "outputs": [
        {
          "internalType": "string",
          "name": "",
          "type": "string"
        }
      ],
      "stateMutability": "view",
      "type": "function"
    },
    {
      "inputs": [
        {
          "internalType": "uint256",
          "name": "index",
          "type": "uint256"
        }
      ],
      "name": "tokenByIndex",
      "outputs": [
        {
          "internalType": "uint256",
          "name": "",
          "type": "uint256"
        }
      ],
      "stateMutability": "view",
      "type": "function"
    },
    {
      "inputs": [
        {
          "internalType": "address",
          "name": "owner",
          "type": "address"
        },
        {
          "internalType": "uint256",
          "name": "index",
          "type": "uint256"
        }
      ],
      "name": "tokenOfOwnerByIndex",
      "outputs": [
        {
          "internalType": "uint256",
          "name": "",
          "type": "uint256"
        }
      ],
      "stateMutability": "view",
      "type": "function"
    },
    {
      "inputs": [
        {
          "internalType": "uint256",
          "name": "tokenId",
          "type": "uint256"
        }
      ],
      "name": "tokenURI",
      "outputs": [
        {
          "internalType": "string",
          "name": "",
          "type": "string"
        }
      ],
      "stateMutability": "view",
      "type": "function"
    },
    {
      "inputs": [],
      "name": "totalSupply",
      "outputs": [
        {
          "internalType": "uint256",
          "name": "",
          "type": "uint256"
        }
      ],
      "stateMutability": "view",
      "type": "function"
    },
    {
      "inputs": [
        {
          "internalType": "address",
          "name": "from",
          "type": "address"
        },
        {
          "internalType": "address",
          "name": "to",
          "type": "address"
        },
        {
          "internalType": "uint256",
          "name": "tokenId",
          "type": "uint256"
        }
      ],
      "name": "transferFrom",
      "outputs": [],
      "stateMutability": "nonpayable",
      "type": "function"
    }
  ],
  "bytecode": "0x60806040523480156200001157600080fd5b5060408051808201825260048152631d195cdd60e21b602080830191909152825180840190935260038352621514d560ea1b90830152906200005a6301ffc9a760e01b620000ef565b81516200006f90600690602085019062000447565b5080516200008590600790602084019062000447565b50620000986380ac58cd60e01b620000ef565b620000aa635b5e139f60e01b620000ef565b620000bc63780e9d6360e01b620000ef565b50620000cc905033600162000174565b50620000da33600262000174565b50620000e833600362000174565b50620004f3565b6001600160e01b031980821614156200014f576040805162461bcd60e51b815260206004820152601c60248201527f4552433136353a20696e76616c696420696e7465726661636520696400000000604482015290519081900360640190fd5b6001600160e01b0319166000908152602081905260409020805460ff19166001179055565b60006200018283836200018c565b5060015b92915050565b6001600160a01b038216620001e8576040805162461bcd60e51b815260206004820181905260248201527f4552433732313a206d696e7420746f20746865207a65726f2061646472657373604482015290519081900360640190fd5b620001f381620002e0565b1562000246576040805162461bcd60e51b815260206004820152601c60248201527f4552433732313a20746f6b656e20616c7265616479206d696e74656400000000604482015290519081900360640190fd5b6200025460008383620002fd565b6001600160a01b03821660009081526001602090815260409091206200028591839062000d1c62000302821b17901c565b50620002a3818360026200031760201b62000d28179092919060201c565b5060405181906001600160a01b038416906000907fddf252ad1be2c89b69c2b068fc378daa952ba7f163c4a11628f55a4df523b3ef908290a45050565b6000620001868260026200033760201b62000d481790919060201c565b505050565b600062000310838362000345565b9392505050565b60006200032f84846001600160a01b03851662000394565b949350505050565b60006200031083836200042f565b60006200035383836200042f565b6200038b5750815460018181018455600084815260208082209093018490558454848252828601909352604090209190915562000186565b50600062000186565b600082815260018401602052604081205480620003fb57505060408051808201825283815260208082018481528654600181810189556000898152848120955160029093029095019182559151908201558654868452818801909252929091205562000310565b828560000160018303815481106200040f57fe5b906000526020600020906002020160010181905550600091505062000310565b60009081526001919091016020526040902054151590565b828054600181600116156101000203166002900490600052602060002090601f0160209004810192826200047f5760008555620004ca565b82601f106200049a57805160ff1916838001178555620004ca565b82800160010185558215620004ca579182015b82811115620004ca578251825591602001919060010190620004ad565b50620004d8929150620004dc565b5090565b5b80821115620004d85760008155600101620004dd565b611b8780620005036000396000f3fe608060405234801561001057600080fd5b50600436106101365760003560e01c80634f6ccce7116100b257806395d89b4111610081578063b88d4fde11610066578063b88d4fde146103d6578063c87b56dd1461049c578063e985e9c5146104b957610136565b806395d89b41146103a0578063a22cb465146103a857610136565b80634f6ccce7146103385780636352211e146103555780636c0360eb1461037257806370a082311461037a57610136565b806318160ddd116101095780632f745c59116100ee5780632f745c59146102aa57806340c10f19146102d657806342842e0e1461030257610136565b806318160ddd1461025a57806323b872dd1461027457610136565b806301ffc9a71461013b57806306fdde0314610176578063081812fc146101f3578063095ea7b31461022c575b600080fd5b6101626004803603602081101561015157600080fd5b50356001600160e01b0319166104e7565b604080519115158252519081900360200190f35b61017e61050a565b6040805160208082528351818301528351919283929083019185019080838360005b838110156101b85781810151838201526020016101a0565b50505050905090810190601f1680156101e55780820380516001836020036101000a031916815260200191505b509250505060405180910390f35b6102106004803603602081101561020957600080fd5b50356105a0565b604080516001600160a01b039092168252519081900360200190f35b6102586004803603604081101561024257600080fd5b506001600160a01b038135169060200135610602565b005b6102626106dd565b60408051918252519081900360200190f35b6102586004803603606081101561028a57600080fd5b506001600160a01b038135811691602081013590911690604001356106ee565b610262600480360360408110156102c057600080fd5b506001600160a01b038135169060200135610745565b610162600480360360408110156102ec57600080fd5b506001600160a01b038135169060200135610770565b6102586004803603606081101561031857600080fd5b506001600160a01b03813581169160208101359091169060400135610785565b6102626004803603602081101561034e57600080fd5b50356107a0565b6102106004803603602081101561036b57600080fd5b50356107b6565b61017e6107de565b6102626004803603602081101561039057600080fd5b50356001600160a01b031661083f565b61017e6108a7565b610258600480360360408110156103be57600080fd5b506001600160a01b0381351690602001351515610908565b610258600480360360808110156103ec57600080fd5b6001600160a01b0382358116926020810135909116916040820135919081019060808101606082013564010000000081111561042757600080fd5b82018360208201111561043957600080fd5b8035906020019184600183028401116401000000008311171561045b57600080fd5b91908080601f016020809104026020016040519081016040528093929190818152602001838380828437600092019190915250929550610a0d945050505050565b61017e600480360360208110156104b257600080fd5b5035610a6b565b610162600480360360408110156104cf57600080fd5b506001600160a01b0381358116916020013516610cee565b6001600160e01b0319811660009081526020819052604090205460ff165b919050565b60068054604080516020601f60026000196101006001881615020190951694909404938401819004810282018101909252828152606093909290918301828280156105965780601f1061056b57610100808354040283529160200191610596565b820191906000526020600020905b81548152906001019060200180831161057957829003601f168201915b5050505050905090565b60006105ab82610d54565b6105e65760405162461bcd60e51b815260040180806020018281038252602c815260200180611a7c602c913960400191505060405180910390fd5b506000908152600460205260409020546001600160a01b031690565b600061060d826107b6565b9050806001600160a01b0316836001600160a01b031614156106605760405162461bcd60e51b8152600401808060200182810382526021815260200180611b006021913960400191505060405180910390fd5b806001600160a01b0316610672610d61565b6001600160a01b0316148061069357506106938161068e610d61565b610cee565b6106ce5760405162461bcd60e51b81526004018080602001828103825260388152602001806119cf6038913960400191505060405180910390fd5b6106d88383610d65565b505050565b60006106e96002610deb565b905090565b6106ff6106f9610d61565b82610df6565b61073a5760405162461bcd60e51b8152600401808060200182810382526031815260200180611b216031913960400191505060405180910390fd5b6106d8838383610e9a565b6001600160a01b03821660009081526001602052604081206107679083610fe6565b90505b92915050565b600061077c8383610ff2565b50600192915050565b6106d883838360405180602001604052806000815250610a0d565b6000806107ae600284611120565b509392505050565b600061076a82604051806060016040528060298152602001611a31602991396002919061113c565b60098054604080516020601f60026000196101006001881615020190951694909404938401819004810282018101909252828152606093909290918301828280156105965780601f1061056b57610100808354040283529160200191610596565b60006001600160a01b0382166108865760405162461bcd60e51b815260040180806020018281038252602a815260200180611a07602a913960400191505060405180910390fd5b6001600160a01b038216600090815260016020526040902061076a90610deb565b60078054604080516020601f60026000196101006001881615020190951694909404938401819004810282018101909252828152606093909290918301828280156105965780601f1061056b57610100808354040283529160200191610596565b610910610d61565b6001600160a01b0316826001600160a01b03161415610976576040805162461bcd60e51b815260206004820152601960248201527f4552433732313a20617070726f766520746f2063616c6c657200000000000000604482015290519081900360640190fd5b8060056000610983610d61565b6001600160a01b03908116825260208083019390935260409182016000908120918716808252919093529120805460ff1916921515929092179091556109c7610d61565b6001600160a01b03167f17307eab39ab6107e8899845ad3d59bd9653f200f220920489ca2b5937696c318360405180821515815260200191505060405180910390a35050565b610a1e610a18610d61565b83610df6565b610a595760405162461bcd60e51b8152600401808060200182810382526031815260200180611b216031913960400191505060405180910390fd5b610a6584848484611149565b50505050565b6060610a7682610d54565b610ab15760405162461bcd60e51b815260040180806020018281038252602f815260200180611ad1602f913960400191505060405180910390fd5b60008281526008602090815260409182902080548351601f6002600019610100600186161502019093169290920491820184900484028101840190945280845260609392830182828015610b465780601f10610b1b57610100808354040283529160200191610b46565b820191906000526020600020905b815481529060010190602001808311610b2957829003601f168201915b505050505090506060610b576107de565b9050805160001415610b6b57509050610505565b815115610c2c5780826040516020018083805190602001908083835b60208310610ba65780518252601f199092019160209182019101610b87565b51815160209384036101000a600019018019909216911617905285519190930192850191508083835b60208310610bee5780518252601f199092019160209182019101610bcf565b6001836020036101000a0380198251168184511680821785525050505050509050019250505060405160208183030381529060405292505050610505565b80610c368561119b565b6040516020018083805190602001908083835b60208310610c685780518252601f199092019160209182019101610c49565b51815160209384036101000a600019018019909216911617905285519190930192850191508083835b60208310610cb05780518252601f199092019160209182019101610c91565b6001836020036101000a0380198251168184511680821785525050505050509050019250505060405160208183030381529060405292505050919050565b6001600160a01b03918216600090815260056020908152604080832093909416825291909152205460ff1690565b6000610767838361128e565b6000610d3e84846001600160a01b0385166112d8565b90505b9392505050565b6000610767838361136f565b600061076a600283610d48565b3390565b600081815260046020526040902080547fffffffffffffffffffffffff0000000000000000000000000000000000000000166001600160a01b0384169081179091558190610db2826107b6565b6001600160a01b03167f8c5be1e5ebec7d5bd14f71427d1e84f3dd0314c0f7b2291e5b200ac8c7c3b92560405160405180910390a45050565b600061076a82611387565b6000610e0182610d54565b610e3c5760405162461bcd60e51b815260040180806020018281038252602c8152602001806119a3602c913960400191505060405180910390fd5b6000610e47836107b6565b9050806001600160a01b0316846001600160a01b03161480610e825750836001600160a01b0316610e77846105a0565b6001600160a01b0316145b80610e925750610e928185610cee565b949350505050565b826001600160a01b0316610ead826107b6565b6001600160a01b031614610ef25760405162461bcd60e51b8152600401808060200182810382526029815260200180611aa86029913960400191505060405180910390fd5b6001600160a01b038216610f375760405162461bcd60e51b815260040180806020018281038252602481526020018061197f6024913960400191505060405180910390fd5b610f428383836106d8565b610f4d600082610d65565b6001600160a01b0383166000908152600160205260409020610f6f908261138b565b506001600160a01b0382166000908152600160205260409020610f929082610d1c565b50610f9f60028284610d28565b5080826001600160a01b0316846001600160a01b03167fddf252ad1be2c89b69c2b068fc378daa952ba7f163c4a11628f55a4df523b3ef60405160405180910390a4505050565b60006107678383611397565b6001600160a01b03821661104d576040805162461bcd60e51b815260206004820181905260248201527f4552433732313a206d696e7420746f20746865207a65726f2061646472657373604482015290519081900360640190fd5b61105681610d54565b156110a8576040805162461bcd60e51b815260206004820152601c60248201527f4552433732313a20746f6b656e20616c7265616479206d696e74656400000000604482015290519081900360640190fd5b6110b4600083836106d8565b6001600160a01b03821660009081526001602052604090206110d69082610d1c565b506110e360028284610d28565b5060405181906001600160a01b038416906000907fddf252ad1be2c89b69c2b068fc378daa952ba7f163c4a11628f55a4df523b3ef908290a45050565b600080808061112f86866113fb565b9097909650945050505050565b6000610d3e848484611476565b611154848484610e9a565b61116084848484611540565b610a655760405162461bcd60e51b815260040180806020018281038252603281526020018061194d6032913960400191505060405180910390fd5b6060816111c057506040805180820190915260018152600360fc1b6020820152610505565b8160005b81156111d857600101600a820491506111c4565b60608167ffffffffffffffff811180156111f157600080fd5b506040519080825280601f01601f19166020018201604052801561121c576020820181803683370190505b50859350905060001982015b831561128557600a840660300160f81b8282806001900393508151811061124b57fe5b60200101907effffffffffffffffffffffffffffffffffffffffffffffffffffffffffffff1916908160001a905350600a84049350611228565b50949350505050565b600061129a838361136f565b6112d05750815460018181018455600084815260208082209093018490558454848252828601909352604090209190915561076a565b50600061076a565b60008281526001840160205260408120548061133d575050604080518082018252838152602080820184815286546001818101895560008981528481209551600290930290950191825591519082015586548684528188019092529290912055610d41565b8285600001600183038154811061135057fe5b9060005260206000209060020201600101819055506000915050610d41565b60009081526001919091016020526040902054151590565b5490565b600061076783836116d2565b815460009082106113d95760405162461bcd60e51b815260040180806020018281038252602281526020018061192b6022913960400191505060405180910390fd5b8260000182815481106113e857fe5b9060005260206000200154905092915050565b81546000908190831061143f5760405162461bcd60e51b8152600401808060200182810382526022815260200180611a5a6022913960400191505060405180910390fd5b600084600001848154811061145057fe5b906000526020600020906002020190508060000154816001015492509250509250929050565b600082815260018401602052604081205482816115115760405162461bcd60e51b81526004018080602001828103825283818151815260200191508051906020019080838360005b838110156114d65781810151838201526020016114be565b50505050905090810190601f1680156115035780820380516001836020036101000a031916815260200191505b509250505060405180910390fd5b5084600001600182038154811061152457fe5b9060005260206000209060020201600101549150509392505050565b6000611554846001600160a01b0316611798565b61156057506001610e92565b6060611698630a85bd0160e11b611575610d61565b88878760405160240180856001600160a01b03168152602001846001600160a01b0316815260200183815260200180602001828103825283818151815260200191508051906020019080838360005b838110156115dc5781810151838201526020016115c4565b50505050905090810190601f1680156116095780820380516001836020036101000a031916815260200191505b5095505050505050604051602081830303815290604052907bffffffffffffffffffffffffffffffffffffffffffffffffffffffff19166020820180517bffffffffffffffffffffffffffffffffffffffffffffffffffffffff838183161783525050505060405180606001604052806032815260200161194d603291396001600160a01b038816919061179e565b905060008180602001905160208110156116b157600080fd5b50516001600160e01b031916630a85bd0160e11b1492505050949350505050565b6000818152600183016020526040812054801561178e578354600019808301919081019060009087908390811061170557fe5b906000526020600020015490508087600001848154811061172257fe5b60009182526020808320909101929092558281526001898101909252604090209084019055865487908061175257fe5b6001900381819060005260206000200160009055905586600101600087815260200190815260200160002060009055600194505050505061076a565b600091505061076a565b3b151590565b6060610d3e8484600085856117b285611798565b611803576040805162461bcd60e51b815260206004820152601d60248201527f416464726573733a2063616c6c20746f206e6f6e2d636f6e7472616374000000604482015290519081900360640190fd5b60006060866001600160a01b031685876040518082805190602001908083835b602083106118425780518252601f199092019160209182019101611823565b6001836020036101000a03801982511681845116808217855250505050505090500191505060006040518083038185875af1925050503d80600081146118a4576040519150601f19603f3d011682016040523d82523d6000602084013e6118a9565b606091505b50915091506118b98282866118c4565b979650505050505050565b606083156118d3575081610d41565b8251156118e35782518084602001fd5b60405162461bcd60e51b81526020600482018181528451602484015284518593919283926044019190850190808383600083156114d65781810151838201526020016114be56fe456e756d657261626c655365743a20696e646578206f7574206f6620626f756e64734552433732313a207472616e7366657220746f206e6f6e20455243373231526563656976657220696d706c656d656e7465724552433732313a207472616e7366657220746f20746865207a65726f20616464726573734552433732313a206f70657261746f7220717565727920666f72206e6f6e6578697374656e7420746f6b656e4552433732313a20617070726f76652063616c6c6572206973206e6f74206f776e6572206e6f7220617070726f76656420666f7220616c6c4552433732313a2062616c616e636520717565727920666f7220746865207a65726f20616464726573734552433732313a206f776e657220717565727920666f72206e6f6e6578697374656e7420746f6b656e456e756d657261626c654d61703a20696e646578206f7574206f6620626f756e64734552433732313a20617070726f76656420717565727920666f72206e6f6e6578697374656e7420746f6b656e4552433732313a207472616e73666572206f6620746f6b656e2074686174206973206e6f74206f776e4552433732314d657461646174613a2055524920717565727920666f72206e6f6e6578697374656e7420746f6b656e4552433732313a20617070726f76616c20746f2063757272656e74206f776e65724552433732313a207472616e736665722063616c6c6572206973206e6f74206f776e6572206e6f7220617070726f766564a264697066735822122022865fa4d68ba83f60fd8ad6b9a12edf6b0aa805eda146893d0f01d42b1a3ba864736f6c63430007050033",
  "linkReferences": {},
  "deployedLinkReferences": {}
}