{
  "_format": "hh-sol-artifact-1",
  "contractName": "OwnedUpgradeabilityStorage",
  "sourceName": "contracts/registry/proxy/OwnedUpgradeabilityStorage.sol",
  "abi": [
    {
      "inputs": [],
      "name": "upgradeabilityOwner",
      "outputs": [
        {
          "internalType": "address",
          "name": "",
          "type": "address"
        }
      ],
      "stateMutability": "view",
      "type": "function"
    }
  ],
  "bytecode": "0x6080604052348015600f57600080fd5b5060ae8061001e6000396000f3fe6080604052348015600f57600080fd5b506004361060285760003560e01c80636fde820214602d575b600080fd5b6033605c565b6040805173ffffffffffffffffffffffffffffffffffffffff9092168252519081900360200190f35b60015473ffffffffffffffffffffffffffffffffffffffff169056fea2646970667358221220978c8d5c03e19f00b09485d96e9605dae5543244d0fac33a5b89bd5f3d02552764736f6c63430007050033",
  "linkReferences": {},
  "deployedLinkReferences": {}
}