{
  "address": "0xfa508ECEa99a4eC80a4B2d81ae3fF6cAD2Bee1e6",
  "abi": [
    {
      "inputs": [],
      "stateMutability": "nonpayable",
      "type": "constructor"
    },
    {
      "inputs": [
        {
          "internalType": "bytes",
          "name": "extra",
          "type": "bytes"
        },
        {
          "internalType": "address[7]",
          "name": "addresses",
          "type": "address[7]"
        },
        {
          "internalType": "enum AuthenticatedProxy.HowToCall[2]",
          "name": "howToCalls",
          "type": "uint8[2]"
        },
        {
          "internalType": "uint256[6]",
          "name": "uints",
          "type": "uint256[6]"
        },
        {
          "internalType": "bytes",
          "name": "data",
          "type": "bytes"
        },
        {
          "internalType": "bytes",
          "name": "counterdata",
          "type": "bytes"
        }
      ],
      "name": "ERC20ForERC721",
      "outputs": [
        {
          "internalType": "uint256",
          "name": "",
          "type": "uint256"
        }
      ],
      "stateMutability": "pure",
      "type": "function"
    },
    {
      "inputs": [
        {
          "internalType": "bytes",
          "name": "extra",
          "type": "bytes"
        },
        {
          "internalType": "address[7]",
          "name": "addresses",
          "type": "address[7]"
        },
        {
          "internalType": "enum AuthenticatedProxy.HowToCall[2]",
          "name": "howToCalls",
          "type": "uint8[2]"
        },
        {
          "internalType": "uint256[6]",
          "name": "uints",
          "type": "uint256[6]"
        },
        {
          "internalType": "bytes",
          "name": "data",
          "type": "bytes"
        },
        {
          "internalType": "bytes",
          "name": "counterdata",
          "type": "bytes"
        }
      ],
      "name": "ERC721ForERC20",
      "outputs": [
        {
          "internalType": "uint256",
          "name": "",
          "type": "uint256"
        }
      ],
      "stateMutability": "pure",
      "type": "function"
    },
    {
      "inputs": [
        {
          "internalType": "bytes",
          "name": "extra",
          "type": "bytes"
        },
        {
          "internalType": "address[7]",
          "name": "addresses",
          "type": "address[7]"
        },
        {
          "internalType": "enum AuthenticatedProxy.HowToCall[2]",
          "name": "howToCalls",
          "type": "uint8[2]"
        },
        {
          "internalType": "uint256[6]",
          "name": "uints",
          "type": "uint256[6]"
        },
        {
          "internalType": "bytes",
          "name": "data",
          "type": "bytes"
        },
        {
          "internalType": "bytes",
          "name": "counterdata",
          "type": "bytes"
        }
      ],
      "name": "anyERC1155ForERC20",
      "outputs": [
        {
          "internalType": "uint256",
          "name": "",
          "type": "uint256"
        }
      ],
      "stateMutability": "pure",
      "type": "function"
    },
    {
      "inputs": [
        {
          "internalType": "bytes",
          "name": "extra",
          "type": "bytes"
        },
        {
          "internalType": "address[7]",
          "name": "addresses",
          "type": "address[7]"
        },
        {
          "internalType": "enum AuthenticatedProxy.HowToCall[2]",
          "name": "howToCalls",
          "type": "uint8[2]"
        },
        {
          "internalType": "uint256[6]",
          "name": "uints",
          "type": "uint256[6]"
        },
        {
          "internalType": "bytes",
          "name": "data",
          "type": "bytes"
        },
        {
          "internalType": "bytes",
          "name": "counterdata",
          "type": "bytes"
        }
      ],
      "name": "anyERC20ForERC1155",
      "outputs": [
        {
          "internalType": "uint256",
          "name": "",
          "type": "uint256"
        }
      ],
      "stateMutability": "pure",
      "type": "function"
    },
    {
      "inputs": [
        {
          "internalType": "bytes",
          "name": "extra",
          "type": "bytes"
        },
        {
          "internalType": "address[7]",
          "name": "addresses",
          "type": "address[7]"
        },
        {
          "internalType": "enum AuthenticatedProxy.HowToCall[2]",
          "name": "howToCalls",
          "type": "uint8[2]"
        },
        {
          "internalType": "uint256[6]",
          "name": "uints",
          "type": "uint256[6]"
        },
        {
          "internalType": "bytes",
          "name": "data",
          "type": "bytes"
        },
        {
          "internalType": "bytes",
          "name": "counterdata",
          "type": "bytes"
        }
      ],
      "name": "anyERC20ForERC20",
      "outputs": [
        {
          "internalType": "uint256",
          "name": "",
          "type": "uint256"
        }
      ],
      "stateMutability": "pure",
      "type": "function"
    },
    {
      "inputs": [],
      "name": "name",
      "outputs": [
        {
          "internalType": "string",
          "name": "",
          "type": "string"
        }
      ],
      "stateMutability": "view",
      "type": "function"
    }
  ],
  "transactionHash": "0x8ac96cafd301021d29164c165d2be5d91d30905dcc11aaf74ebb5f89ca88f839",
  "args": [],
  "numDeployments": 1,
  "solcInputHash": "cbc211f6b31072e19c4afd3dc64c5cbf",
  "bytecode": "0x608060405234801561001057600080fd5b5061228e806100206000396000f3fe608060405234801561001057600080fd5b50600436106100725760003560e01c8063a6139b5811610050578063a6139b5814610566578063b9845b9514610796578063c3d3626a146109c657610072565b806306fdde031461007757806323b04789146100f45780637a7f30e014610336575b600080fd5b61007f610bf6565b6040805160208082528351818301528351919283929083019185019080838360005b838110156100b95781810151838201526020016100a1565b50505050905090810190601f1680156100e65780820380516001836020036101000a031916815260200191505b509250505060405180910390f35b610324600480360361024081101561010b57600080fd5b810190602081018135600160201b81111561012557600080fd5b82018360208201111561013757600080fd5b803590602001918460018302840111600160201b8311171561015857600080fd5b91908080601f016020809104026020016040519081016040528093929190818152602001838380828437600092019190915250506040805160e081810190925293969594818101949350915060079083908390808284376000920191909152505060408051808201825292959493818101939250906002908390839080828437600092019190915250506040805160c08181019092529295949381810193925090600690839083908082843760009201919091525091949392602081019250359050600160201b81111561022b57600080fd5b82018360208201111561023d57600080fd5b803590602001918460018302840111600160201b8311171561025e57600080fd5b91908080601f0160208091040260200160405190810160405280939291908181526020018383808284376000920191909152509295949360208101935035915050600160201b8111156102b057600080fd5b8201836020820111156102c257600080fd5b803590602001918460018302840111600160201b831117156102e357600080fd5b91908080601f016020809104026020016040519081016040528093929190818152602001838380828437600092019190915250929550610c2f945050505050565b60408051918252519081900360200190f35b610324600480360361024081101561034d57600080fd5b810190602081018135600160201b81111561036757600080fd5b82018360208201111561037957600080fd5b803590602001918460018302840111600160201b8311171561039a57600080fd5b91908080601f016020809104026020016040519081016040528093929190818152602001838380828437600092019190915250506040805160e081810190925293969594818101949350915060079083908390808284376000920191909152505060408051808201825292959493818101939250906002908390839080828437600092019190915250506040805160c08181019092529295949381810193925090600690839083908082843760009201919091525091949392602081019250359050600160201b81111561046d57600080fd5b82018360208201111561047f57600080fd5b803590602001918460018302840111600160201b831117156104a057600080fd5b91908080601f0160208091040260200160405190810160405280939291908181526020018383808284376000920191909152509295949360208101935035915050600160201b8111156104f257600080fd5b82018360208201111561050457600080fd5b803590602001918460018302840111600160201b8311171561052557600080fd5b91908080601f016020809104026020016040519081016040528093929190818152602001838380828437600092019190915250929550610f6b945050505050565b610324600480360361024081101561057d57600080fd5b810190602081018135600160201b81111561059757600080fd5b8201836020820111156105a957600080fd5b803590602001918460018302840111600160201b831117156105ca57600080fd5b91908080601f016020809104026020016040519081016040528093929190818152602001838380828437600092019190915250506040805160e081810190925293969594818101949350915060079083908390808284376000920191909152505060408051808201825292959493818101939250906002908390839080828437600092019190915250506040805160c08181019092529295949381810193925090600690839083908082843760009201919091525091949392602081019250359050600160201b81111561069d57600080fd5b8201836020820111156106af57600080fd5b803590602001918460018302840111600160201b831117156106d057600080fd5b91908080601f0160208091040260200160405190810160405280939291908181526020018383808284376000920191909152509295949360208101935035915050600160201b81111561072257600080fd5b82018360208201111561073457600080fd5b803590602001918460018302840111600160201b8311171561075557600080fd5b91908080601f016020809104026020016040519081016040528093929190818152602001838380828437600092019190915250929550611279945050505050565b61032460048036036102408110156107ad57600080fd5b810190602081018135600160201b8111156107c757600080fd5b8201836020820111156107d957600080fd5b803590602001918460018302840111600160201b831117156107fa57600080fd5b91908080601f016020809104026020016040519081016040528093929190818152602001838380828437600092019190915250506040805160e081810190925293969594818101949350915060079083908390808284376000920191909152505060408051808201825292959493818101939250906002908390839080828437600092019190915250506040805160c08181019092529295949381810193925090600690839083908082843760009201919091525091949392602081019250359050600160201b8111156108cd57600080fd5b8201836020820111156108df57600080fd5b803590602001918460018302840111600160201b8311171561090057600080fd5b91908080601f0160208091040260200160405190810160405280939291908181526020018383808284376000920191909152509295949360208101935035915050600160201b81111561095257600080fd5b82018360208201111561096457600080fd5b803590602001918460018302840111600160201b8311171561098557600080fd5b91908080601f016020809104026020016040519081016040528093929190818152602001838380828437600092019190915250929550611465945050505050565b61032460048036036102408110156109dd57600080fd5b810190602081018135600160201b8111156109f757600080fd5b820183602082011115610a0957600080fd5b803590602001918460018302840111600160201b83111715610a2a57600080fd5b91908080601f016020809104026020016040519081016040528093929190818152602001838380828437600092019190915250506040805160e081810190925293969594818101949350915060079083908390808284376000920191909152505060408051808201825292959493818101939250906002908390839080828437600092019190915250506040805160c08181019092529295949381810193925090600690839083908082843760009201919091525091949392602081019250359050600160201b811115610afd57600080fd5b820183602082011115610b0f57600080fd5b803590602001918460018302840111600160201b83111715610b3057600080fd5b91908080601f0160208091040260200160405190810160405280939291908181526020018383808284376000920191909152509295949360208101935035915050600160201b811115610b8257600080fd5b820183602082011115610b9457600080fd5b803590602001918460018302840111600160201b83111715610bb557600080fd5b91908080601f016020809104026020016040519081016040528093929190818152602001838380828437600092019190915250929550611742945050505050565b6040518060400160405280600d81526020017f537461746963204d61726b65740000000000000000000000000000000000000081525081565b825160009015610c705760405162461bcd60e51b81526004018080602001828103825260278152602001806121b36027913960400191505060405180910390fd5b84516000906001811115610c8057fe5b14610cbc5760405162461bcd60e51b815260040180806020018281038252602e815260200180611e04602e913960400191505060405180910390fd5b610cc4611beb565b610ccc611c09565b8880602001905160a0811015610ce157600080fd5b50915050604081016000816001602002015111610d2f5760405162461bcd60e51b8152600401808060200182810382526036815260200180611c6d6036913960400191505060405180910390fd5b6040810151610d6f5760405162461bcd60e51b8152600401808060200182810382526038815260200180611e9b6038913960400191505060405180910390fd5b815160408901516001600160a01b03908116911614610dbf5760405162461bcd60e51b81526004018080602001828103825260438152602001806121706043913960600191505060405180910390fd5b602082015160a08901516001600160a01b03908116911614610e125760405162461bcd60e51b8152600401808060200182810382526049815260200180611d0c6049913960600191505060405180910390fd5b610e1a611beb565b6040518060400160405280610e2e8861190d565b8152602001610e3c8761193a565b905290506000610e5c8860055b60200201518360005b602002015161194a565b6020890151909150811115610ea25760405162461bcd60e51b8152600401808060200182810382526031815260200180611d816031913960400191505060405180910390fd5b6040830151610eb9908360005b60200201516119ad565b6020840151610eca90846001610eaf565b14610f1c576040805162461bcd60e51b815260206004820152601f60248201527f616e7945524331313535466f7245524332303a2077726f6e6720726174696f00604482015290519081900360640190fd5b610f3a878b600160200201518c60045b602002015186518651611a06565b610f5d868b600460200201518c60015b60200201518560015b6020020151611a9a565b9a9950505050505050505050565b825160009015610fac5760405162461bcd60e51b81526004018080602001828103825260278152602001806121496027913960400191505060405180910390fd5b84516000906001811115610fbc57fe5b14610ff85760405162461bcd60e51b815260040180806020018281038252602e815260200180611f59602e913960400191505060405180910390fd5b611000611beb565b611008611c09565b8880602001905160a081101561101d57600080fd5b5091505060408101600081600160200201511161106b5760405162461bcd60e51b8152600401808060200182810382526036815260200180611c6d6036913960400191505060405180910390fd5b60408101516110ab5760405162461bcd60e51b8152600401808060200182810382526038815260200180611e9b6038913960400191505060405180910390fd5b815160408901516001600160a01b039081169116146110fb5760405162461bcd60e51b81526004018080602001828103825260428152602001806120666042913960600191505060405180910390fd5b602082015160a08901516001600160a01b0390811691161461114e5760405162461bcd60e51b815260040180806020018281038252604a81526020018061220f604a913960600191505060405180910390fd5b611156611beb565b604051806040016040528061116a8761190d565b81526020016111788861193a565b9052905060006111918860056020020151836001610e52565b60208901519091508111156111d75760405162461bcd60e51b81526004018080602001828103825260318152602001806120c96031913960400191505060405180910390fd5b6111eb8360025b6020020151836001610eaf565b6111ff8460015b6020020151846000610eaf565b14611251576040805162461bcd60e51b815260206004820152601f60248201527f616e794552433230466f72455243313135353a2077726f6e6720726174696f00604482015290519081900360640190fd5b611265868b600460200201518c6001610f2c565b610f5d878b600160200201518c6004610f4a565b8251600090156112ba5760405162461bcd60e51b81526004018080602001828103825260238152602001806120436023913960400191505060405180910390fd5b845160009060018111156112ca57fe5b146113065760405162461bcd60e51b815260040180806020018281038252602a815260200180611ca3602a913960400191505060405180910390fd5b61130e611beb565b611316611beb565b88806020019051608081101561132b57600080fd5b509150506040810160008160016020020151116113795760405162461bcd60e51b8152600401808060200182810382526035815260200180611e666035913960400191505060405180910390fd5b815160408901516001600160a01b039081169116146113c95760405162461bcd60e51b815260040180806020018281038252603f815260200180611ccd603f913960400191505060405180910390fd5b602082015160a08901516001600160a01b0390811691161461141c5760405162461bcd60e51b8152600401808060200182810382526045815260200180611f876045913960600191505060405180910390fd5b6114398489600460200201518a60015b6020020151846000610f53565b6114568589600160200201518a60045b6020020151846001610f53565b50600198975050505050505050565b8251600090156114a65760405162461bcd60e51b81526004018080602001828103825260258152602001806121246025913960400191505060405180910390fd5b845160009060018111156114b657fe5b146114f25760405162461bcd60e51b815260040180806020018281038252602c815260200180611d55602c913960400191505060405180910390fd5b6114fa611beb565b611502611beb565b88806020019051608081101561151757600080fd5b50604081018051919350915061155e5760405162461bcd60e51b8152600401808060200182810382526034815260200180611e326034913960400191505060405180910390fd5b602081015161159e5760405162461bcd60e51b815260040180806020018281038252603681526020018061200d6036913960400191505060405180910390fd5b815160408901516001600160a01b039081169116146115ee5760405162461bcd60e51b8152600401808060200182810382526041815260200180611fcc6041913960600191505060405180910390fd5b602082015160a08901516001600160a01b039081169116146116415760405162461bcd60e51b8152600401808060200182810382526047815260200180611f126047913960600191505060405180910390fd5b611649611beb565b604051806040016040528061165d8861193a565b815260200161166b8761193a565b90529050600061167c886005610e49565b60208901519091508111156116c25760405162461bcd60e51b815260040180806020018281038252602f815260200180611db2602f913960400191505060405180910390fd5b6116cd8360016111de565b6116d88460006111f2565b1461172a576040805162461bcd60e51b815260206004820152601d60248201527f616e794552433230466f7245524332303a2077726f6e6720726174696f000000604482015290519081900360640190fd5b60208a015160808b0151610f3a918991856000610f53565b8251600090156117835760405162461bcd60e51b8152600401808060200182810382526023815260200180611de16023913960400191505060405180910390fd5b8451600090600181111561179357fe5b146117cf5760405162461bcd60e51b815260040180806020018281038252602a8152602001806120fa602a913960400191505060405180910390fd5b6117d7611beb565b6117df611beb565b8880602001905160808110156117f457600080fd5b509150506040810160008160016020020151116118425760405162461bcd60e51b81526004018080602001828103825260358152602001806121da6035913960400191505060405180910390fd5b815160408901516001600160a01b039081169116146118925760405162461bcd60e51b815260040180806020018281038252603f815260200180611ed3603f913960400191505060405180910390fd5b602082015160a08901516001600160a01b039081169116146118e55760405162461bcd60e51b8152600401808060200182810382526045815260200180611c286045913960600191505060405180910390fd5b6118f98589600160200201518a600461142c565b6114568489600460200201518a6001611449565b60008061191d8360646020611b18565b806020019051602081101561193157600080fd5b50519392505050565b60008061191d8360446020611b18565b6000828201838110156119a4576040805162461bcd60e51b815260206004820152601b60248201527f536166654d6174683a206164646974696f6e206f766572666c6f770000000000604482015290519081900360640190fd5b90505b92915050565b6000826119bc575060006119a7565b828202828482816119c957fe5b04146119a45760405162461bcd60e51b81526004018080602001828103825260218152602001806120a86021913960400191505060405180910390fd5b604080516001600160a01b03808716602483015285166044820152606481018490526084810183905260a060a4820152600060c4820152815180820360e40181526101049091019091526020810180517bffffffffffffffffffffffffffffffffffffffffffffffffffffffff16637921219560e11b179052611a8a908690611b87565b611a9357600080fd5b5050505050565b604080516001600160a01b0380861660248301528416604482015260648082018490528251808303909101815260849091019091526020810180517bffffffffffffffffffffffffffffffffffffffffffffffffffffffff166323b872dd60e01b179052611b09908590611b87565b611b1257600080fd5b50505050565b60608082158015611b3457604051915060208201604052611b7e565b6040519150601f8416801560200281840101858101878315602002848b0101015b81831015611b6d578051835260209283019201611b55565b5050858452601f01601f1916604052505b50949350505050565b815181516000916001918114808314611ba35760009250611be1565b600160208701838101602088015b600284838510011415611bdc578051835114611bd05760009650600093505b60209283019201611bb1565b505050505b5090949350505050565b60405180604001604052806002906020820280368337509192915050565b6040518060600160405280600390602082028036833750919291505056fe455243373231466f7245524332303a20636f756e74657263616c6c20746172676574206d75737420657175616c2061646472657373206f6620746f6b656e20746f20676574616e794552433230466f72455243313135353a206e756d657261746f72206d757374206265206c6172676572207468616e207a65726f4552433230466f724552433732313a2063616c6c206d7573742062652061206469726563742063616c6c4552433230466f724552433732313a2063616c6c20746172676574206d75737420657175616c2061646472657373206f6620746f6b656e20746f2067697665616e7945524331313535466f7245524332303a20636f756e74657263616c6c20746172676574206d75737420657175616c2061646472657373206f6620746f6b656e20746f20676574616e794552433230466f7245524332303a2063616c6c206d7573742062652061206469726563742063616c6c616e7945524331313535466f7245524332303a206e65772066696c6c2065786365656473206d6178696d756d2066696c6c616e794552433230466f7245524332303a206e65772066696c6c2065786365656473206d6178696d756d2066696c6c455243373231466f7245524332303a205a65726f2076616c7565207265717569726564616e7945524331313535466f7245524332303a2063616c6c206d7573742062652061206469726563742063616c6c616e794552433230466f7245524332303a206e756d657261746f72206d757374206265206c6172676572207468616e207a65726f4552433230466f724552433732313a20455243373231207072696365206d757374206265206c6172676572207468616e207a65726f616e794552433230466f72455243313135353a2064656e6f6d696e61746f72206d757374206265206c6172676572207468616e207a65726f455243373231466f7245524332303a2063616c6c20746172676574206d75737420657175616c2061646472657373206f6620746f6b656e20746f2067697665616e794552433230466f7245524332303a20636f756e74657263616c6c20746172676574206d75737420657175616c2061646472657373206f6620746f6b656e20746f20676574616e794552433230466f72455243313135353a2063616c6c206d7573742062652061206469726563742063616c6c4552433230466f724552433732313a20636f756e74657263616c6c20746172676574206d75737420657175616c2061646472657373206f6620746f6b656e20746f20676574616e794552433230466f7245524332303a2063616c6c20746172676574206d75737420657175616c2061646472657373206f6620746f6b656e20746f2067697665616e794552433230466f7245524332303a2064656e6f6d696e61746f72206d757374206265206c6172676572207468616e207a65726f4552433230466f724552433732313a205a65726f2076616c7565207265717569726564616e794552433230466f72455243313135353a2063616c6c20746172676574206d75737420657175616c2061646472657373206f6620746f6b656e20746f20676574536166654d6174683a206d756c7469706c69636174696f6e206f766572666c6f77616e794552433230466f72455243313135353a206e65772066696c6c2065786365656473206d6178696d756d2066696c6c455243373231466f7245524332303a2063616c6c206d7573742062652061206469726563742063616c6c616e794552433230466f7245524332303a205a65726f2076616c7565207265717569726564616e794552433230466f72455243313135353a205a65726f2076616c7565207265717569726564616e7945524331313535466f7245524332303a2063616c6c20746172676574206d75737420657175616c2061646472657373206f6620746f6b656e20746f2067697665616e7945524331313535466f7245524332303a205a65726f2076616c7565207265717569726564455243373231466f7245524332303a20455243373231207072696365206d757374206265206c6172676572207468616e207a65726f616e794552433230466f72455243313135353a20636f756e74657263616c6c20746172676574206d75737420657175616c2061646472657373206f6620746f6b656e20746f2067697665a26469706673582212206811eb5c4426d91b845ea3139670151c8e61a71d0ef0cc064ef4376343a7a8ed64736f6c63430007050033",
  "devdoc": {
    "author": "Wyvern Protocol Developers",
    "kind": "dev",
    "methods": {},
    "title": "StaticMarket",
    "version": 1
  },
  "userdoc": {
    "kind": "user",
    "methods": {},
    "version": 1
  },
  "storageLayout": {
    "storage": [],
    "types": null
  }
}