{
  "address": "0x7ccb84d3AaC69708D9634CB402932f0BE5ca98c6",
  "abi": [
    {
      "inputs": [
        {
          "internalType": "address",
          "name": "atomicizerAddress",
          "type": "address"
        }
      ],
      "stateMutability": "nonpayable",
      "type": "constructor"
    },
    {
      "inputs": [
        {
          "internalType": "bytes",
          "name": "extra",
          "type": "bytes"
        },
        {
          "internalType": "address[7]",
          "name": "addresses",
          "type": "address[7]"
        },
        {
          "internalType": "enum AuthenticatedProxy.HowToCall[2]",
          "name": "howToCalls",
          "type": "uint8[2]"
        },
        {
          "internalType": "uint256[6]",
          "name": "uints",
          "type": "uint256[6]"
        },
        {
          "internalType": "bytes",
          "name": "data",
          "type": "bytes"
        },
        {
          "internalType": "bytes",
          "name": "counterdata",
          "type": "bytes"
        }
      ],
      "name": "and",
      "outputs": [],
      "stateMutability": "view",
      "type": "function"
    },
    {
      "inputs": [
        {
          "internalType": "bytes",
          "name": "",
          "type": "bytes"
        },
        {
          "internalType": "address[7]",
          "name": "",
          "type": "address[7]"
        },
        {
          "internalType": "enum AuthenticatedProxy.HowToCall[2]",
          "name": "",
          "type": "uint8[2]"
        },
        {
          "internalType": "uint256[6]",
          "name": "",
          "type": "uint256[6]"
        },
        {
          "internalType": "bytes",
          "name": "",
          "type": "bytes"
        },
        {
          "internalType": "bytes",
          "name": "",
          "type": "bytes"
        }
      ],
      "name": "any",
      "outputs": [
        {
          "internalType": "uint256",
          "name": "",
          "type": "uint256"
        }
      ],
      "stateMutability": "pure",
      "type": "function"
    },
    {
      "inputs": [
        {
          "internalType": "bytes",
          "name": "",
          "type": "bytes"
        },
        {
          "internalType": "address[7]",
          "name": "",
          "type": "address[7]"
        },
        {
          "internalType": "enum AuthenticatedProxy.HowToCall[2]",
          "name": "",
          "type": "uint8[2]"
        },
        {
          "internalType": "uint256[6]",
          "name": "uints",
          "type": "uint256[6]"
        },
        {
          "internalType": "bytes",
          "name": "",
          "type": "bytes"
        },
        {
          "internalType": "bytes",
          "name": "",
          "type": "bytes"
        }
      ],
      "name": "anyAddOne",
      "outputs": [
        {
          "internalType": "uint256",
          "name": "",
          "type": "uint256"
        }
      ],
      "stateMutability": "pure",
      "type": "function"
    },
    {
      "inputs": [
        {
          "internalType": "bytes",
          "name": "",
          "type": "bytes"
        },
        {
          "internalType": "address[7]",
          "name": "",
          "type": "address[7]"
        },
        {
          "internalType": "enum AuthenticatedProxy.HowToCall[2]",
          "name": "",
          "type": "uint8[2]"
        },
        {
          "internalType": "uint256[6]",
          "name": "",
          "type": "uint256[6]"
        },
        {
          "internalType": "bytes",
          "name": "",
          "type": "bytes"
        },
        {
          "internalType": "bytes",
          "name": "",
          "type": "bytes"
        }
      ],
      "name": "anyNoFill",
      "outputs": [
        {
          "internalType": "uint256",
          "name": "",
          "type": "uint256"
        }
      ],
      "stateMutability": "pure",
      "type": "function"
    },
    {
      "inputs": [
        {
          "internalType": "bytes",
          "name": "",
          "type": "bytes"
        },
        {
          "internalType": "address[7]",
          "name": "",
          "type": "address[7]"
        },
        {
          "internalType": "enum AuthenticatedProxy.HowToCall",
          "name": "",
          "type": "uint8"
        },
        {
          "internalType": "uint256[6]",
          "name": "",
          "type": "uint256[6]"
        },
        {
          "internalType": "bytes",
          "name": "",
          "type": "bytes"
        }
      ],
      "name": "anySingle",
      "outputs": [],
      "stateMutability": "pure",
      "type": "function"
    },
    {
      "inputs": [],
      "name": "atomicizer",
      "outputs": [
        {
          "internalType": "address",
          "name": "",
          "type": "address"
        }
      ],
      "stateMutability": "view",
      "type": "function"
    },
    {
      "inputs": [
        {
          "internalType": "bytes",
          "name": "extra",
          "type": "bytes"
        },
        {
          "internalType": "address[7]",
          "name": "addresses",
          "type": "address[7]"
        },
        {
          "internalType": "enum AuthenticatedProxy.HowToCall[2]",
          "name": "howToCalls",
          "type": "uint8[2]"
        },
        {
          "internalType": "uint256[6]",
          "name": "uints",
          "type": "uint256[6]"
        },
        {
          "internalType": "bytes",
          "name": "cdata",
          "type": "bytes"
        },
        {
          "internalType": "bytes",
          "name": "",
          "type": "bytes"
        }
      ],
      "name": "dumbSequenceExact",
      "outputs": [
        {
          "internalType": "uint256",
          "name": "",
          "type": "uint256"
        }
      ],
      "stateMutability": "view",
      "type": "function"
    },
    {
      "inputs": [],
      "name": "name",
      "outputs": [
        {
          "internalType": "string",
          "name": "",
          "type": "string"
        }
      ],
      "stateMutability": "view",
      "type": "function"
    },
    {
      "inputs": [
        {
          "internalType": "bytes",
          "name": "extra",
          "type": "bytes"
        },
        {
          "internalType": "address[7]",
          "name": "addresses",
          "type": "address[7]"
        },
        {
          "internalType": "enum AuthenticatedProxy.HowToCall[2]",
          "name": "howToCalls",
          "type": "uint8[2]"
        },
        {
          "internalType": "uint256[6]",
          "name": "uints",
          "type": "uint256[6]"
        },
        {
          "internalType": "bytes",
          "name": "data",
          "type": "bytes"
        },
        {
          "internalType": "bytes",
          "name": "counterdata",
          "type": "bytes"
        }
      ],
      "name": "or",
      "outputs": [],
      "stateMutability": "view",
      "type": "function"
    },
    {
      "inputs": [
        {
          "internalType": "bytes",
          "name": "extra",
          "type": "bytes"
        },
        {
          "internalType": "address[7]",
          "name": "addresses",
          "type": "address[7]"
        },
        {
          "internalType": "enum AuthenticatedProxy.HowToCall",
          "name": "howToCall",
          "type": "uint8"
        },
        {
          "internalType": "uint256[6]",
          "name": "uints",
          "type": "uint256[6]"
        },
        {
          "internalType": "bytes",
          "name": "cdata",
          "type": "bytes"
        }
      ],
      "name": "sequenceAnyAfter",
      "outputs": [],
      "stateMutability": "view",
      "type": "function"
    },
    {
      "inputs": [
        {
          "internalType": "bytes",
          "name": "extra",
          "type": "bytes"
        },
        {
          "internalType": "address[7]",
          "name": "addresses",
          "type": "address[7]"
        },
        {
          "internalType": "enum AuthenticatedProxy.HowToCall",
          "name": "howToCall",
          "type": "uint8"
        },
        {
          "internalType": "uint256[6]",
          "name": "uints",
          "type": "uint256[6]"
        },
        {
          "internalType": "bytes",
          "name": "cdata",
          "type": "bytes"
        }
      ],
      "name": "sequenceExact",
      "outputs": [],
      "stateMutability": "view",
      "type": "function"
    },
    {
      "inputs": [
        {
          "internalType": "bytes",
          "name": "extra",
          "type": "bytes"
        },
        {
          "internalType": "address[7]",
          "name": "addresses",
          "type": "address[7]"
        },
        {
          "internalType": "enum AuthenticatedProxy.HowToCall[2]",
          "name": "howToCalls",
          "type": "uint8[2]"
        },
        {
          "internalType": "uint256[6]",
          "name": "uints",
          "type": "uint256[6]"
        },
        {
          "internalType": "bytes",
          "name": "data",
          "type": "bytes"
        },
        {
          "internalType": "bytes",
          "name": "counterdata",
          "type": "bytes"
        }
      ],
      "name": "split",
      "outputs": [
        {
          "internalType": "uint256",
          "name": "",
          "type": "uint256"
        }
      ],
      "stateMutability": "view",
      "type": "function"
    },
    {
      "inputs": [
        {
          "internalType": "bytes",
          "name": "extra",
          "type": "bytes"
        },
        {
          "internalType": "address[7]",
          "name": "addresses",
          "type": "address[7]"
        },
        {
          "internalType": "enum AuthenticatedProxy.HowToCall[2]",
          "name": "howToCalls",
          "type": "uint8[2]"
        },
        {
          "internalType": "uint256[6]",
          "name": "uints",
          "type": "uint256[6]"
        },
        {
          "internalType": "bytes",
          "name": "data",
          "type": "bytes"
        },
        {
          "internalType": "bytes",
          "name": "counterdata",
          "type": "bytes"
        }
      ],
      "name": "splitAddOne",
      "outputs": [
        {
          "internalType": "uint256",
          "name": "",
          "type": "uint256"
        }
      ],
      "stateMutability": "view",
      "type": "function"
    },
    {
      "inputs": [
        {
          "internalType": "bytes",
          "name": "extra",
          "type": "bytes"
        },
        {
          "internalType": "address[7]",
          "name": "addresses",
          "type": "address[7]"
        },
        {
          "internalType": "enum AuthenticatedProxy.HowToCall[2]",
          "name": "howToCalls",
          "type": "uint8[2]"
        },
        {
          "internalType": "uint256[6]",
          "name": "uints",
          "type": "uint256[6]"
        },
        {
          "internalType": "bytes",
          "name": "data",
          "type": "bytes"
        },
        {
          "internalType": "bytes",
          "name": "counterdata",
          "type": "bytes"
        }
      ],
      "name": "swapExact",
      "outputs": [
        {
          "internalType": "uint256",
          "name": "",
          "type": "uint256"
        }
      ],
      "stateMutability": "pure",
      "type": "function"
    },
    {
      "inputs": [
        {
          "internalType": "bytes",
          "name": "extra",
          "type": "bytes"
        },
        {
          "internalType": "address[7]",
          "name": "addresses",
          "type": "address[7]"
        },
        {
          "internalType": "enum AuthenticatedProxy.HowToCall[2]",
          "name": "howToCalls",
          "type": "uint8[2]"
        },
        {
          "internalType": "uint256[6]",
          "name": "uints",
          "type": "uint256[6]"
        },
        {
          "internalType": "bytes",
          "name": "data",
          "type": "bytes"
        },
        {
          "internalType": "bytes",
          "name": "counterdata",
          "type": "bytes"
        }
      ],
      "name": "swapForever",
      "outputs": [
        {
          "internalType": "uint256",
          "name": "",
          "type": "uint256"
        }
      ],
      "stateMutability": "pure",
      "type": "function"
    },
    {
      "inputs": [
        {
          "internalType": "bytes",
          "name": "extra",
          "type": "bytes"
        },
        {
          "internalType": "address[7]",
          "name": "addresses",
          "type": "address[7]"
        },
        {
          "internalType": "enum AuthenticatedProxy.HowToCall[2]",
          "name": "howToCalls",
          "type": "uint8[2]"
        },
        {
          "internalType": "uint256[6]",
          "name": "uints",
          "type": "uint256[6]"
        },
        {
          "internalType": "bytes",
          "name": "data",
          "type": "bytes"
        },
        {
          "internalType": "bytes",
          "name": "counterdata",
          "type": "bytes"
        }
      ],
      "name": "swapOneForOneERC1155",
      "outputs": [
        {
          "internalType": "uint256",
          "name": "",
          "type": "uint256"
        }
      ],
      "stateMutability": "pure",
      "type": "function"
    },
    {
      "inputs": [
        {
          "internalType": "bytes",
          "name": "extra",
          "type": "bytes"
        },
        {
          "internalType": "address[7]",
          "name": "addresses",
          "type": "address[7]"
        },
        {
          "internalType": "enum AuthenticatedProxy.HowToCall[2]",
          "name": "howToCalls",
          "type": "uint8[2]"
        },
        {
          "internalType": "uint256[6]",
          "name": "uints",
          "type": "uint256[6]"
        },
        {
          "internalType": "bytes",
          "name": "data",
          "type": "bytes"
        },
        {
          "internalType": "bytes",
          "name": "counterdata",
          "type": "bytes"
        }
      ],
      "name": "swapOneForOneERC1155Decoding",
      "outputs": [
        {
          "internalType": "uint256",
          "name": "",
          "type": "uint256"
        }
      ],
      "stateMutability": "pure",
      "type": "function"
    },
    {
      "inputs": [
        {
          "internalType": "bytes",
          "name": "extra",
          "type": "bytes"
        },
        {
          "internalType": "address[7]",
          "name": "addresses",
          "type": "address[7]"
        },
        {
          "internalType": "enum AuthenticatedProxy.HowToCall[2]",
          "name": "howToCalls",
          "type": "uint8[2]"
        },
        {
          "internalType": "uint256[6]",
          "name": "uints",
          "type": "uint256[6]"
        },
        {
          "internalType": "bytes",
          "name": "data",
          "type": "bytes"
        },
        {
          "internalType": "bytes",
          "name": "counterdata",
          "type": "bytes"
        }
      ],
      "name": "swapOneForOneERC721",
      "outputs": [
        {
          "internalType": "uint256",
          "name": "",
          "type": "uint256"
        }
      ],
      "stateMutability": "pure",
      "type": "function"
    },
    {
      "inputs": [
        {
          "internalType": "bytes",
          "name": "extra",
          "type": "bytes"
        },
        {
          "internalType": "address[7]",
          "name": "addresses",
          "type": "address[7]"
        },
        {
          "internalType": "enum AuthenticatedProxy.HowToCall[2]",
          "name": "howToCalls",
          "type": "uint8[2]"
        },
        {
          "internalType": "uint256[6]",
          "name": "uints",
          "type": "uint256[6]"
        },
        {
          "internalType": "bytes",
          "name": "data",
          "type": "bytes"
        },
        {
          "internalType": "bytes",
          "name": "counterdata",
          "type": "bytes"
        }
      ],
      "name": "swapOneForOneERC721Decoding",
      "outputs": [
        {
          "internalType": "uint256",
          "name": "",
          "type": "uint256"
        }
      ],
      "stateMutability": "pure",
      "type": "function"
    },
    {
      "inputs": [],
      "name": "test",
      "outputs": [],
      "stateMutability": "pure",
      "type": "function"
    },
    {
      "inputs": [
        {
          "internalType": "bytes",
          "name": "extra",
          "type": "bytes"
        },
        {
          "internalType": "address[7]",
          "name": "addresses",
          "type": "address[7]"
        },
        {
          "internalType": "enum AuthenticatedProxy.HowToCall",
          "name": "howToCall",
          "type": "uint8"
        },
        {
          "internalType": "uint256[6]",
          "name": "",
          "type": "uint256[6]"
        },
        {
          "internalType": "bytes",
          "name": "data",
          "type": "bytes"
        }
      ],
      "name": "transferERC1155Exact",
      "outputs": [],
      "stateMutability": "pure",
      "type": "function"
    },
    {
      "inputs": [
        {
          "internalType": "bytes",
          "name": "extra",
          "type": "bytes"
        },
        {
          "internalType": "address[7]",
          "name": "addresses",
          "type": "address[7]"
        },
        {
          "internalType": "enum AuthenticatedProxy.HowToCall",
          "name": "howToCall",
          "type": "uint8"
        },
        {
          "internalType": "uint256[6]",
          "name": "",
          "type": "uint256[6]"
        },
        {
          "internalType": "bytes",
          "name": "data",
          "type": "bytes"
        }
      ],
      "name": "transferERC20Exact",
      "outputs": [],
      "stateMutability": "pure",
      "type": "function"
    },
    {
      "inputs": [
        {
          "internalType": "bytes",
          "name": "extra",
          "type": "bytes"
        },
        {
          "internalType": "address[7]",
          "name": "addresses",
          "type": "address[7]"
        },
        {
          "internalType": "enum AuthenticatedProxy.HowToCall",
          "name": "howToCall",
          "type": "uint8"
        },
        {
          "internalType": "uint256[6]",
          "name": "",
          "type": "uint256[6]"
        },
        {
          "internalType": "bytes",
          "name": "data",
          "type": "bytes"
        }
      ],
      "name": "transferERC721Exact",
      "outputs": [],
      "stateMutability": "pure",
      "type": "function"
    }
  ],
  "transactionHash": "0x2569ce518a8eedeaa88095140f1eb36fde1780bf530ea1c6bd69f719322f5f6c",
  "args": [
    "0x410F446F6F5CB63d667f27C61320c027908eE819"
  ],
  "numDeployments": 1,
  "solcInputHash": "cbc211f6b31072e19c4afd3dc64c5cbf",
  "bytecode": "0x608060405234801561001057600080fd5b50604051620057d4380380620057d48339818101604052602081101561003557600080fd5b5051600080546001600160a01b039092166001600160a01b031990921691909117905561576c80620000686000396000f3fe608060405234801561001057600080fd5b506004361061018d5760003560e01c8063883ee430116100e3578063dcbcb5d91161008c578063ed94fc6611610066578063ed94fc66146124f7578063f6280c8614612687578063f8a8fd6d146128b75761018d565b8063dcbcb5d914611e67578063ddf98cc214612097578063e1beb484146122c75761018d565b8063b67bf134116100bd578063b67bf13414611aa7578063b6c8184b146108d5578063ba35274314611c375761018d565b8063883ee430146114b7578063a09858da146116e7578063ac5cc03f146119175761018d565b8063265a87e7116101455780634e9413f91161011f5780634e9413f914610e275780637557ef9814611057578063837b54ad146112875761018d565b8063265a87e7146108d55780632e0b69db14610a675780634563928f14610bf75761018d565b80630d3b91d4116101765780630d3b91d41461045157806320e9a8181461047557806323f62d9c146106a55761018d565b8063025b6d341461019257806306fdde03146103d4575b600080fd5b6103c260048036036102408110156101a957600080fd5b810190602081018135600160201b8111156101c357600080fd5b8201836020820111156101d557600080fd5b803590602001918460018302840111600160201b831117156101f657600080fd5b91908080601f016020809104026020016040519081016040528093929190818152602001838380828437600092019190915250506040805160e081810190925293969594818101949350915060079083908390808284376000920191909152505060408051808201825292959493818101939250906002908390839080828437600092019190915250506040805160c08181019092529295949381810193925090600690839083908082843760009201919091525091949392602081019250359050600160201b8111156102c957600080fd5b8201836020820111156102db57600080fd5b803590602001918460018302840111600160201b831117156102fc57600080fd5b91908080601f0160208091040260200160405190810160405280939291908181526020018383808284376000920191909152509295949360208101935035915050600160201b81111561034e57600080fd5b82018360208201111561036057600080fd5b803590602001918460018302840111600160201b8311171561038157600080fd5b91908080601f0160208091040260200160405190810160405280939291908181526020018383808284376000920191909152509295506128bf945050505050565b60408051918252519081900360200190f35b6103dc6128e1565b6040805160208082528351818301528351919283929083019185019080838360005b838110156104165781810151838201526020016103fe565b50505050905090810190601f1680156104435780820380516001836020036101000a031916815260200191505b509250505060405180910390f35b61045961291a565b604080516001600160a01b039092168252519081900360200190f35b6103c2600480360361024081101561048c57600080fd5b810190602081018135600160201b8111156104a657600080fd5b8201836020820111156104b857600080fd5b803590602001918460018302840111600160201b831117156104d957600080fd5b91908080601f016020809104026020016040519081016040528093929190818152602001838380828437600092019190915250506040805160e081810190925293969594818101949350915060079083908390808284376000920191909152505060408051808201825292959493818101939250906002908390839080828437600092019190915250506040805160c08181019092529295949381810193925090600690839083908082843760009201919091525091949392602081019250359050600160201b8111156105ac57600080fd5b8201836020820111156105be57600080fd5b803590602001918460018302840111600160201b831117156105df57600080fd5b91908080601f0160208091040260200160405190810160405280939291908181526020018383808284376000920191909152509295949360208101935035915050600160201b81111561063157600080fd5b82018360208201111561064357600080fd5b803590602001918460018302840111600160201b8311171561066457600080fd5b91908080601f016020809104026020016040519081016040528093929190818152602001838380828437600092019190915250929550612929945050505050565b6103c260048036036102408110156106bc57600080fd5b810190602081018135600160201b8111156106d657600080fd5b8201836020820111156106e857600080fd5b803590602001918460018302840111600160201b8311171561070957600080fd5b91908080601f016020809104026020016040519081016040528093929190818152602001838380828437600092019190915250506040805160e081810190925293969594818101949350915060079083908390808284376000920191909152505060408051808201825292959493818101939250906002908390839080828437600092019190915250506040805160c08181019092529295949381810193925090600690839083908082843760009201919091525091949392602081019250359050600160201b8111156107dc57600080fd5b8201836020820111156107ee57600080fd5b803590602001918460018302840111600160201b8311171561080f57600080fd5b91908080601f0160208091040260200160405190810160405280939291908181526020018383808284376000920191909152509295949360208101935035915050600160201b81111561086157600080fd5b82018360208201111561087357600080fd5b803590602001918460018302840111600160201b8311171561089457600080fd5b91908080601f016020809104026020016040519081016040528093929190818152602001838380828437600092019190915250929550612d91945050505050565b610a6560048036036102008110156108ec57600080fd5b810190602081018135600160201b81111561090657600080fd5b82018360208201111561091857600080fd5b803590602001918460018302840111600160201b8311171561093957600080fd5b91908080601f016020809104026020016040519081016040528093929190818152602001838380828437600092019190915250506040805160e08181019092529396959481810194935091506007908390839080828437600092019190915250506040805160c0818101909252929560ff853516959094909360e08201935091602090910190600690839083908082843760009201919091525091949392602081019250359050600160201b8111156109f157600080fd5b820183602082011115610a0357600080fd5b803590602001918460018302840111600160201b83111715610a2457600080fd5b91908080601f016020809104026020016040519081016040528093929190818152602001838380828437600092019190915250929550612ef3945050505050565b005b610a656004803603610200811015610a7e57600080fd5b810190602081018135600160201b811115610a9857600080fd5b820183602082011115610aaa57600080fd5b803590602001918460018302840111600160201b83111715610acb57600080fd5b91908080601f016020809104026020016040519081016040528093929190818152602001838380828437600092019190915250506040805160e08181019092529396959481810194935091506007908390839080828437600092019190915250506040805160c0818101909252929560ff853516959094909360e08201935091602090910190600690839083908082843760009201919091525091949392602081019250359050600160201b811115610b8357600080fd5b820183602082011115610b9557600080fd5b803590602001918460018302840111600160201b83111715610bb657600080fd5b91908080601f016020809104026020016040519081016040528093929190818152602001838380828437600092019190915250929550612fcd945050505050565b6103c26004803603610240811015610c0e57600080fd5b810190602081018135600160201b811115610c2857600080fd5b820183602082011115610c3a57600080fd5b803590602001918460018302840111600160201b83111715610c5b57600080fd5b91908080601f016020809104026020016040519081016040528093929190818152602001838380828437600092019190915250506040805160e081810190925293969594818101949350915060079083908390808284376000920191909152505060408051808201825292959493818101939250906002908390839080828437600092019190915250506040805160c08181019092529295949381810193925090600690839083908082843760009201919091525091949392602081019250359050600160201b811115610d2e57600080fd5b820183602082011115610d4057600080fd5b803590602001918460018302840111600160201b83111715610d6157600080fd5b91908080601f0160208091040260200160405190810160405280939291908181526020018383808284376000920191909152509295949360208101935035915050600160201b811115610db357600080fd5b820183602082011115610dc557600080fd5b803590602001918460018302840111600160201b83111715610de657600080fd5b91908080601f0160208091040260200160405190810160405280939291908181526020018383808284376000920191909152509295506130c7945050505050565b610a656004803603610240811015610e3e57600080fd5b810190602081018135600160201b811115610e5857600080fd5b820183602082011115610e6a57600080fd5b803590602001918460018302840111600160201b83111715610e8b57600080fd5b91908080601f016020809104026020016040519081016040528093929190818152602001838380828437600092019190915250506040805160e081810190925293969594818101949350915060079083908390808284376000920191909152505060408051808201825292959493818101939250906002908390839080828437600092019190915250506040805160c08181019092529295949381810193925090600690839083908082843760009201919091525091949392602081019250359050600160201b811115610f5e57600080fd5b820183602082011115610f7057600080fd5b803590602001918460018302840111600160201b83111715610f9157600080fd5b91908080601f0160208091040260200160405190810160405280939291908181526020018383808284376000920191909152509295949360208101935035915050600160201b811115610fe357600080fd5b820183602082011115610ff557600080fd5b803590602001918460018302840111600160201b8311171561101657600080fd5b91908080601f0160208091040260200160405190810160405280939291908181526020018383808284376000920191909152509295506133a5945050505050565b6103c2600480360361024081101561106e57600080fd5b810190602081018135600160201b81111561108857600080fd5b82018360208201111561109a57600080fd5b803590602001918460018302840111600160201b831117156110bb57600080fd5b91908080601f016020809104026020016040519081016040528093929190818152602001838380828437600092019190915250506040805160e081810190925293969594818101949350915060079083908390808284376000920191909152505060408051808201825292959493818101939250906002908390839080828437600092019190915250506040805160c08181019092529295949381810193925090600690839083908082843760009201919091525091949392602081019250359050600160201b81111561118e57600080fd5b8201836020820111156111a057600080fd5b803590602001918460018302840111600160201b831117156111c157600080fd5b91908080601f0160208091040260200160405190810160405280939291908181526020018383808284376000920191909152509295949360208101935035915050600160201b81111561121357600080fd5b82018360208201111561122557600080fd5b803590602001918460018302840111600160201b8311171561124657600080fd5b91908080601f016020809104026020016040519081016040528093929190818152602001838380828437600092019190915250929550613944945050505050565b6103c2600480360361024081101561129e57600080fd5b810190602081018135600160201b8111156112b857600080fd5b8201836020820111156112ca57600080fd5b803590602001918460018302840111600160201b831117156112eb57600080fd5b91908080601f016020809104026020016040519081016040528093929190818152602001838380828437600092019190915250506040805160e081810190925293969594818101949350915060079083908390808284376000920191909152505060408051808201825292959493818101939250906002908390839080828437600092019190915250506040805160c08181019092529295949381810193925090600690839083908082843760009201919091525091949392602081019250359050600160201b8111156113be57600080fd5b8201836020820111156113d057600080fd5b803590602001918460018302840111600160201b831117156113f157600080fd5b91908080601f0160208091040260200160405190810160405280939291908181526020018383808284376000920191909152509295949360208101935035915050600160201b81111561144357600080fd5b82018360208201111561145557600080fd5b803590602001918460018302840111600160201b8311171561147657600080fd5b91908080601f016020809104026020016040519081016040528093929190818152602001838380828437600092019190915250929550613ab2945050505050565b6103c260048036036102408110156114ce57600080fd5b810190602081018135600160201b8111156114e857600080fd5b8201836020820111156114fa57600080fd5b803590602001918460018302840111600160201b8311171561151b57600080fd5b91908080601f016020809104026020016040519081016040528093929190818152602001838380828437600092019190915250506040805160e081810190925293969594818101949350915060079083908390808284376000920191909152505060408051808201825292959493818101939250906002908390839080828437600092019190915250506040805160c08181019092529295949381810193925090600690839083908082843760009201919091525091949392602081019250359050600160201b8111156115ee57600080fd5b82018360208201111561160057600080fd5b803590602001918460018302840111600160201b8311171561162157600080fd5b91908080601f0160208091040260200160405190810160405280939291908181526020018383808284376000920191909152509295949360208101935035915050600160201b81111561167357600080fd5b82018360208201111561168557600080fd5b803590602001918460018302840111600160201b831117156116a657600080fd5b91908080601f016020809104026020016040519081016040528093929190818152602001838380828437600092019190915250929550613abe945050505050565b6103c260048036036102408110156116fe57600080fd5b810190602081018135600160201b81111561171857600080fd5b82018360208201111561172a57600080fd5b803590602001918460018302840111600160201b8311171561174b57600080fd5b91908080601f016020809104026020016040519081016040528093929190818152602001838380828437600092019190915250506040805160e081810190925293969594818101949350915060079083908390808284376000920191909152505060408051808201825292959493818101939250906002908390839080828437600092019190915250506040805160c08181019092529295949381810193925090600690839083908082843760009201919091525091949392602081019250359050600160201b81111561181e57600080fd5b82018360208201111561183057600080fd5b803590602001918460018302840111600160201b8311171561185157600080fd5b91908080601f0160208091040260200160405190810160405280939291908181526020018383808284376000920191909152509295949360208101935035915050600160201b8111156118a357600080fd5b8201836020820111156118b557600080fd5b803590602001918460018302840111600160201b831117156118d657600080fd5b91908080601f016020809104026020016040519081016040528093929190818152602001838380828437600092019190915250929550613dcb945050505050565b610a65600480360361020081101561192e57600080fd5b810190602081018135600160201b81111561194857600080fd5b82018360208201111561195a57600080fd5b803590602001918460018302840111600160201b8311171561197b57600080fd5b91908080601f016020809104026020016040519081016040528093929190818152602001838380828437600092019190915250506040805160e08181019092529396959481810194935091506007908390839080828437600092019190915250506040805160c0818101909252929560ff853516959094909360e08201935091602090910190600690839083908082843760009201919091525091949392602081019250359050600160201b811115611a3357600080fd5b820183602082011115611a4557600080fd5b803590602001918460018302840111600160201b83111715611a6657600080fd5b91908080601f016020809104026020016040519081016040528093929190818152602001838380828437600092019190915250929550613de4945050505050565b610a656004803603610200811015611abe57600080fd5b810190602081018135600160201b811115611ad857600080fd5b820183602082011115611aea57600080fd5b803590602001918460018302840111600160201b83111715611b0b57600080fd5b91908080601f016020809104026020016040519081016040528093929190818152602001838380828437600092019190915250506040805160e08181019092529396959481810194935091506007908390839080828437600092019190915250506040805160c0818101909252929560ff853516959094909360e08201935091602090910190600690839083908082843760009201919091525091949392602081019250359050600160201b811115611bc357600080fd5b820183602082011115611bd557600080fd5b803590602001918460018302840111600160201b83111715611bf657600080fd5b91908080601f016020809104026020016040519081016040528093929190818152602001838380828437600092019190915250929550614367945050505050565b6103c26004803603610240811015611c4e57600080fd5b810190602081018135600160201b811115611c6857600080fd5b820183602082011115611c7a57600080fd5b803590602001918460018302840111600160201b83111715611c9b57600080fd5b91908080601f016020809104026020016040519081016040528093929190818152602001838380828437600092019190915250506040805160e081810190925293969594818101949350915060079083908390808284376000920191909152505060408051808201825292959493818101939250906002908390839080828437600092019190915250506040805160c08181019092529295949381810193925090600690839083908082843760009201919091525091949392602081019250359050600160201b811115611d6e57600080fd5b820183602082011115611d8057600080fd5b803590602001918460018302840111600160201b83111715611da157600080fd5b91908080601f0160208091040260200160405190810160405280939291908181526020018383808284376000920191909152509295949360208101935035915050600160201b811115611df357600080fd5b820183602082011115611e0557600080fd5b803590602001918460018302840111600160201b83111715611e2657600080fd5b91908080601f01602080910402602001604051908101604052809392919081815260200183838082843760009201919091525092955061436e945050505050565b610a656004803603610240811015611e7e57600080fd5b810190602081018135600160201b811115611e9857600080fd5b820183602082011115611eaa57600080fd5b803590602001918460018302840111600160201b83111715611ecb57600080fd5b91908080601f016020809104026020016040519081016040528093929190818152602001838380828437600092019190915250506040805160e081810190925293969594818101949350915060079083908390808284376000920191909152505060408051808201825292959493818101939250906002908390839080828437600092019190915250506040805160c08181019092529295949381810193925090600690839083908082843760009201919091525091949392602081019250359050600160201b811115611f9e57600080fd5b820183602082011115611fb057600080fd5b803590602001918460018302840111600160201b83111715611fd157600080fd5b91908080601f0160208091040260200160405190810160405280939291908181526020018383808284376000920191909152509295949360208101935035915050600160201b81111561202357600080fd5b82018360208201111561203557600080fd5b803590602001918460018302840111600160201b8311171561205657600080fd5b91908080601f0160208091040260200160405190810160405280939291908181526020018383808284376000920191909152509295506144fe945050505050565b6103c260048036036102408110156120ae57600080fd5b810190602081018135600160201b8111156120c857600080fd5b8201836020820111156120da57600080fd5b803590602001918460018302840111600160201b831117156120fb57600080fd5b91908080601f016020809104026020016040519081016040528093929190818152602001838380828437600092019190915250506040805160e081810190925293969594818101949350915060079083908390808284376000920191909152505060408051808201825292959493818101939250906002908390839080828437600092019190915250506040805160c08181019092529295949381810193925090600690839083908082843760009201919091525091949392602081019250359050600160201b8111156121ce57600080fd5b8201836020820111156121e057600080fd5b803590602001918460018302840111600160201b8311171561220157600080fd5b91908080601f0160208091040260200160405190810160405280939291908181526020018383808284376000920191909152509295949360208101935035915050600160201b81111561225357600080fd5b82018360208201111561226557600080fd5b803590602001918460018302840111600160201b8311171561228657600080fd5b91908080601f0160208091040260200160405190810160405280939291908181526020018383808284376000920191909152509295506148ec945050505050565b6103c260048036036102408110156122de57600080fd5b810190602081018135600160201b8111156122f857600080fd5b82018360208201111561230a57600080fd5b803590602001918460018302840111600160201b8311171561232b57600080fd5b91908080601f016020809104026020016040519081016040528093929190818152602001838380828437600092019190915250506040805160e081810190925293969594818101949350915060079083908390808284376000920191909152505060408051808201825292959493818101939250906002908390839080828437600092019190915250506040805160c08181019092529295949381810193925090600690839083908082843760009201919091525091949392602081019250359050600160201b8111156123fe57600080fd5b82018360208201111561241057600080fd5b803590602001918460018302840111600160201b8311171561243157600080fd5b91908080601f0160208091040260200160405190810160405280939291908181526020018383808284376000920191909152509295949360208101935035915050600160201b81111561248357600080fd5b82018360208201111561249557600080fd5b803590602001918460018302840111600160201b831117156124b657600080fd5b91908080601f016020809104026020016040519081016040528093929190818152602001838380828437600092019190915250929550614905945050505050565b610a65600480360361020081101561250e57600080fd5b810190602081018135600160201b81111561252857600080fd5b82018360208201111561253a57600080fd5b803590602001918460018302840111600160201b8311171561255b57600080fd5b91908080601f016020809104026020016040519081016040528093929190818152602001838380828437600092019190915250506040805160e08181019092529396959481810194935091506007908390839080828437600092019190915250506040805160c0818101909252929560ff853516959094909360e08201935091602090910190600690839083908082843760009201919091525091949392602081019250359050600160201b81111561261357600080fd5b82018360208201111561262557600080fd5b803590602001918460018302840111600160201b8311171561264657600080fd5b91908080601f016020809104026020016040519081016040528093929190818152602001838380828437600092019190915250929550614911945050505050565b6103c2600480360361024081101561269e57600080fd5b810190602081018135600160201b8111156126b857600080fd5b8201836020820111156126ca57600080fd5b803590602001918460018302840111600160201b831117156126eb57600080fd5b91908080601f016020809104026020016040519081016040528093929190818152602001838380828437600092019190915250506040805160e081810190925293969594818101949350915060079083908390808284376000920191909152505060408051808201825292959493818101939250906002908390839080828437600092019190915250506040805160c08181019092529295949381810193925090600690839083908082843760009201919091525091949392602081019250359050600160201b8111156127be57600080fd5b8201836020820111156127d057600080fd5b803590602001918460018302840111600160201b831117156127f157600080fd5b91908080601f0160208091040260200160405190810160405280939291908181526020018383808284376000920191909152509295949360208101935035915050600160201b81111561284357600080fd5b82018360208201111561285557600080fd5b803590602001918460018302840111600160201b8311171561287657600080fd5b91908080601f016020809104026020016040519081016040528093929190818152602001838380828437600092019190915250929550614e74945050505050565b610a656150af565b60006128d48787878460200201518787613de4565b5060019695505050505050565b6040518060400160405280600d81526020017f57797665726e205374617469630000000000000000000000000000000000000081525081565b6000546001600160a01b031681565b60006129336154e3565b61293b6154e3565b6060808a80602001905160c081101561295357600080fd5b608082018051604080519085019390929085019185919084600160201b82111561297c57600080fd5b90830190602082018581111561299157600080fd5b8251600160201b8111828201881017156129aa57600080fd5b82525081516020918201929091019080838360005b838110156129d75781810151838201526020016129bf565b50505050905090810190601f168015612a045780820380516001836020036101000a031916815260200191505b5060405260200180516040519392919084600160201b821115612a2657600080fd5b908301906020820185811115612a3b57600080fd5b8251600160201b811182820188101715612a5457600080fd5b82525081516020918201929091019080838360005b83811015612a81578181015183820152602001612a69565b50505050905090810190601f168015612aae5780820380516001836020036101000a031916815260200191505b506040525050509350935093509350612c6b84600060028110612acd57fe5b602002015184518b5160405186918f918e908e90602481019081906044018660e080838360005b83811015612b0c578181015183820152602001612af4565b50505050905001856001811115612b1f57fe5b81526020018460c080838360005b83811015612b45578181015183820152602001612b2d565b5050505090500180602001838103835288818151815260200191508051906020019080838360005b83811015612b85578181015183820152602001612b6d565b50505050905090810190601f168015612bb25780820380516001836020036101000a031916815260200191505b50838103825284518152845160209182019186019080838360005b83811015612be5578181015183820152602001612bcd565b50505050905090810190601f168015612c125780820380516001836020036101000a031916815260200191505b5060408051601f198184030181529190526020810180516001600160e01b03167fffffffff00000000000000000000000000000000000000000000000000000000909b169a909a17909952506150b19650505050505050565b612c7457600080fd5b612d7784600160200201518460016020020151836040518060e001604052808f600360078110612ca057fe5b602090810291909101516001600160a01b03168252018f6004602090810291909101516001600160a01b03168252018f6005602090810291909101516001600160a01b03168252018f6000602090810291909101516001600160a01b03168252018f6001602090810291909101516001600160a01b03168252018f6002602090810291909101516001600160a01b03168252018f600660200201516001600160a01b031690528d600160200201516040518e908d90602481019081906044018660e080838360008181015183820152602001612af4565b612d8057600080fd5b5060019a9950505050505050505050565b825160009015612da057600080fd5b612da86154e3565b612db06154e3565b888060200190516080811015612dc557600080fd5b50805160408a810151929450840192506001600160a01b03918216911614612dec57600080fd5b86516000906001811115612dfc57fe5b14612e0657600080fd5b612e7c858960015b602002015160808b01518460005b60209081029190910151604080516001600160a01b03958616602482015293909416604484015260648084019190915283518084039091018152608490920190925290810180516001600160e01b03166323b872dd60e01b1790526150c9565b612e8557600080fd5b602082015160a08901516001600160a01b03908116911614612ea657600080fd5b60208701516000906001811115612eb957fe5b14612ec357600080fd5b60808801516020890151612edb918691846001612e1c565b612ee457600080fd5b50600198975050505050505050565b600080868060200190516040811015612f0b57600080fd5b50805160209091015190925090506001600160a01b03821686600260200201516001600160a01b031614612f3e57600080fd5b6000856001811115612f4c57fe5b14612f5657600080fd5b6020868101516080880151604080516001600160a01b0393841660248201529290911660448301526064808301859052815180840390910181526084909201905290810180516001600160e01b03166323b872dd60e01b179052612fbb9084906150c9565b612fc457600080fd5b50505050505050565b6000806000878060200190516060811015612fe757600080fd5b508051602082015160409092015190945090925090506001600160a01b03831687600260200201516001600160a01b03161461302257600080fd5b600086600181111561303057fe5b1461303a57600080fd5b6020878101516080890151604080516001600160a01b039384166024820152929091166044830152606482018590526084820184905260a060a4830152600060c4830152805180830360e4018152610104909201905290810180516001600160e01b0316637921219560e11b1790526130b49085906150c9565b6130bd57600080fd5b5050505050505050565b8251600090156130d657600080fd5b6130de6154e3565b6130e66154e3565b6130ee6154e3565b8980602001905160c081101561310357600080fd5b50805160408b810151929550850193506080850192506001600160a01b039182169116146131625760405162461bcd60e51b81526004018080602001828103825260388152602001806156686038913960400191505060405180910390fd5b805161319f5760405162461bcd60e51b815260040180806020018281038252602d8152602001806156dd602d913960400191505060405180910390fd5b875160009060018111156131af57fe5b146131eb5760405162461bcd60e51b81526004018080602001828103825260238152602001806155406023913960400191505060405180910390fd5b61327c868a600160200201518b60045b602002015185518560005b60209081029190910151604080516001600160a01b0396871660248201529490951660448501526064840192909252608483019190915260a060a4830152600060c4830152825180830360e401815261010490920190925290810180516001600160e01b0316637921219560e11b1790526150c9565b61328557600080fd5b602083015160a08a01516001600160a01b039081169116146132d85760405162461bcd60e51b815260040180806020018281038252603e815260200180615502603e913960400191505060405180910390fd5b60208101516133185760405162461bcd60e51b815260040180806020018281038252602d81526020018061570a602d913960400191505060405180910390fd5b6020880151600090600181111561332b57fe5b146133675760405162461bcd60e51b815260040180806020018281038252602a81526020018061563e602a913960400191505060405180910390fd5b61338c858a600460200201518b60015b60200201518560016020020151856001613206565b61339557600080fd5b5060019998505050505050505050565b6060806060808980602001905160808110156133c057600080fd5b8101908080516040519392919084600160201b8211156133df57600080fd5b9083019060208201858111156133f457600080fd5b82518660208202830111600160201b8211171561341057600080fd5b82525081516020918201928201910280838360005b8381101561343d578181015183820152602001613425565b5050505090500160405260200180516040519392919084600160201b82111561346557600080fd5b90830190602082018581111561347a57600080fd5b82518660208202830111600160201b8211171561349657600080fd5b82525081516020918201928201910280838360005b838110156134c35781810151838201526020016134ab565b5050505090500160405260200180516040519392919084600160201b8211156134eb57600080fd5b90830190602082018581111561350057600080fd5b82518660208202830111600160201b8211171561351c57600080fd5b82525081516020918201928201910280838360005b83811015613549578181015183820152602001613531565b5050505090500160405260200180516040519392919084600160201b82111561357157600080fd5b90830190602082018581111561358657600080fd5b8251600160201b81118282018810171561359f57600080fd5b82525081516020918201929091019080838360005b838110156135cc5781810151838201526020016135b4565b50505050905090810190601f1680156135f95780820380516001836020036101000a031916815260200191505b506040525050509350935093509350815184511461361657600080fd5b6000805b855181101561393657606084828151811061363157fe5b602002602001015167ffffffffffffffff8111801561364f57600080fd5b506040519080825280601f01601f19166020018201604052801561367a576020820181803683370190505b50905060005b85838151811061368c57fe5b60200260200101518110156136e1578484815181106136a757fe5b602001015160f81c60f81b8282815181106136be57fe5b60200101906001600160f81b031916908160001a90535060019384019301613680565b506139248783815181106136f157fe5b602002602001015187848151811061370557fe5b6020026020010151838f8f8f8f8f604051602401808060200187600760200280838360005b8381101561374257818101518382015260200161372a565b5050505090500186600260200280838360005b8381101561376d578181015183820152602001613755565b5050505090500185600660200280838360005b83811015613798578181015183820152602001613780565b50505050905001806020018060200184810384528a818151815260200191508051906020019080838360005b838110156137dc5781810151838201526020016137c4565b50505050905090810190601f1680156138095780820380516001836020036101000a031916815260200191505b50848103835286518152865160209182019188019080838360005b8381101561383c578181015183820152602001613824565b50505050905090810190601f1680156138695780820380516001836020036101000a031916815260200191505b50848103825285518152855160209182019187019080838360005b8381101561389c578181015183820152602001613884565b50505050905090810190601f1680156138c95780820380516001836020036101000a031916815260200191505b5060408051601f198184030181529190526020810180516001600160e01b03167fffffffff00000000000000000000000000000000000000000000000000000000909d169c909c17909b52506150b198505050505050505050565b61392d57600080fd5b5060010161361a565b505050505050505050505050565b604080516004808252602482019092526020810180516001600160e01b0316637921219560e11b17905260009160609161397d9161512d565b85519091501561398c57600080fd5b6139946154e3565b61399c6154e3565b6139a46154e3565b8a80602001905160c08110156139b957600080fd5b50805160408c810151929550850193506080850192506001600160a01b03918216911614613a185760405162461bcd60e51b81526004018080602001828103825260388152602001806156686038913960400191505060405180910390fd5b88516000906001811115613a2857fe5b14613a645760405162461bcd60e51b81526004018080602001828103825260238152602001806155406023913960400191505060405180910390fd5b613a7884613a7389600461512d565b6150c9565b613a8157600080fd5b613a95878b600160200201518c60046131fb565b613a9e57600080fd5b612d77868b600460200201518c6001613377565b60019695505050505050565b604080516004808252602482019092526020810180516001600160e01b03166323b872dd60e01b179052600091606091613af79161512d565b855190915015613b0657600080fd5b613b0e6154e3565b613b166154e3565b898060200190516080811015613b2b57600080fd5b50805160408b810151929450840192506001600160a01b03918216911614613b845760405162461bcd60e51b81526004018080602001828103825260378152602001806155c46037913960400191505060405180910390fd5b87516000906001811115613b9457fe5b14613bd05760405162461bcd60e51b815260040180806020018281038252602281526020018061561c6022913960400191505060405180910390fd5b613bdf83613a7388600461512d565b613be857600080fd5b6000806000613bf8896004615142565b8060200190516060811015613c0c57600080fd5b508051602082015160409092015190945090925090508b600160200201516001600160a01b0316836001600160a01b031614613c4757600080fd5b60808c01516001600160a01b03838116911614613c6357600080fd5b83518114613c7057600080fd5b602085015160a08d01516001600160a01b03908116911614613cc35760405162461bcd60e51b815260040180806020018281038252603d8152602001806156a0603d913960400191505060405180910390fd5b60208b01516000906001811115613cd657fe5b14613d125760405162461bcd60e51b81526004018080602001828103825260298152602001806155636029913960400191505060405180910390fd5b613d2186613a738a600461512d565b613d2a57600080fd5b6000806000613d3a8b6004615142565b8060200190516060811015613d4e57600080fd5b508051602082015160409092015190945090925090508e600460200201516001600160a01b0316836001600160a01b031614613d8957600080fd5b60208f01516001600160a01b03838116911614613da557600080fd5b60208701518114613db557600080fd5b5060019f9e505050505050505050505050505050565b60008360055b6020020151600101979650505050505050565b606080606080888060200190516080811015613dff57600080fd5b8101908080516040519392919084600160201b821115613e1e57600080fd5b908301906020820185811115613e3357600080fd5b82518660208202830111600160201b82111715613e4f57600080fd5b82525081516020918201928201910280838360005b83811015613e7c578181015183820152602001613e64565b5050505090500160405260200180516040519392919084600160201b821115613ea457600080fd5b908301906020820185811115613eb957600080fd5b82518660208202830111600160201b82111715613ed557600080fd5b82525081516020918201928201910280838360005b83811015613f02578181015183820152602001613eea565b5050505090500160405260200180516040519392919084600160201b821115613f2a57600080fd5b908301906020820185811115613f3f57600080fd5b82518660208202830111600160201b82111715613f5b57600080fd5b82525081516020918201928201910280838360005b83811015613f88578181015183820152602001613f70565b5050505090500160405260200180516040519392919084600160201b821115613fb057600080fd5b908301906020820185811115613fc557600080fd5b8251600160201b811182820188101715613fde57600080fd5b82525081516020918201929091019080838360005b8381101561400b578181015183820152602001613ff3565b50505050905090810190601f1680156140385780820380516001836020036101000a031916815260200191505b506040525050509350935093509350825184511461405557600080fd5b606080606080614066896004615142565b806020019051608081101561407a57600080fd5b8101908080516040519392919084600160201b82111561409957600080fd5b9083019060208201858111156140ae57600080fd5b82518660208202830111600160201b821117156140ca57600080fd5b82525081516020918201928201910280838360005b838110156140f75781810151838201526020016140df565b5050505090500160405260200180516040519392919084600160201b82111561411f57600080fd5b90830190602082018581111561413457600080fd5b82518660208202830111600160201b8211171561415057600080fd5b82525081516020918201928201910280838360005b8381101561417d578181015183820152602001614165565b5050505090500160405260200180516040519392919084600160201b8211156141a557600080fd5b9083019060208201858111156141ba57600080fd5b82518660208202830111600160201b821117156141d657600080fd5b82525081516020918201928201910280838360005b838110156142035781810151838201526020016141eb565b5050505090500160405260200180516040519392919084600160201b82111561422b57600080fd5b90830190602082018581111561424057600080fd5b8251600160201b81118282018810171561425957600080fd5b82525081516020918201929091019080838360005b8381101561428657818101518382015260200161426e565b50505050905090810190601f1680156142b35780820380516001836020036101000a031916815260200191505b5060405250506000549498509296509094509250506001600160a01b03168c600260200201516001600160a01b0316146142ec57600080fd5b60018b60018111156142fa57fe5b1461430457600080fd5b835188511461431257600080fd5b60005b88518110156143465783818151811061432a57fe5b602002602001015160001461433e57600080fd5b600101614315565b506143588483838f8e8d8d8d8d615166565b50505050505050505050505050565b5050505050565b82516000901561437d57600080fd5b6143856154e3565b61438d6154e3565b8880602001905160808110156143a257600080fd5b50805160408a810151929450840192506001600160a01b039182169116146143fb5760405162461bcd60e51b81526004018080602001828103825260378152602001806155c46037913960400191505060405180910390fd5b8651600090600181111561440b57fe5b146144475760405162461bcd60e51b815260040180806020018281038252602281526020018061561c6022913960400191505060405180910390fd5b61445385896001612e0e565b61445c57600080fd5b602082015160a08901516001600160a01b039081169116146144af5760405162461bcd60e51b815260040180806020018281038252603d8152602001806156a0603d913960400191505060405180910390fd5b602087015160009060018111156144c257fe5b14612ec35760405162461bcd60e51b81526004018080602001828103825260298152602001806155636029913960400191505060405180910390fd5b60608060608089806020019051608081101561451957600080fd5b8101908080516040519392919084600160201b82111561453857600080fd5b90830190602082018581111561454d57600080fd5b82518660208202830111600160201b8211171561456957600080fd5b82525081516020918201928201910280838360005b8381101561459657818101518382015260200161457e565b5050505090500160405260200180516040519392919084600160201b8211156145be57600080fd5b9083019060208201858111156145d357600080fd5b82518660208202830111600160201b821117156145ef57600080fd5b82525081516020918201928201910280838360005b8381101561461c578181015183820152602001614604565b5050505090500160405260200180516040519392919084600160201b82111561464457600080fd5b90830190602082018581111561465957600080fd5b82518660208202830111600160201b8211171561467557600080fd5b82525081516020918201928201910280838360005b838110156146a257818101518382015260200161468a565b5050505090500160405260200180516040519392919084600160201b8211156146ca57600080fd5b9083019060208201858111156146df57600080fd5b8251600160201b8111828201881017156146f857600080fd5b82525081516020918201929091019080838360005b8381101561472557818101518382015260200161470d565b50505050905090810190601f1680156147525780820380516001836020036101000a031916815260200191505b50604052505050935093509350935081518451146147a15760405162461bcd60e51b815260040180806020018281038252603881526020018061558c6038913960400191505060405180910390fd5b6000805b85518110156148965760608482815181106147bc57fe5b602002602001015167ffffffffffffffff811180156147da57600080fd5b506040519080825280601f01601f191660200182016040528015614805576020820181803683370190505b50905060005b85838151811061481757fe5b602002602001015181101561486c5784848151811061483257fe5b602001015160f81c60f81b82828151811061484957fe5b60200101906001600160f81b031916908160001a9053506001938401930161480b565b5061487c8783815181106136f157fe5b1561488d57505050505050506148e4565b506001016147a5565b506040805162461bcd60e51b815260206004820152601960248201527f4e6f207374617469632063616c6c732073756363656564656400000000000000604482015290519081900360640190fd5b505050505050565b60006148fc878787878787612929565b50836005613dd1565b60009695505050505050565b60608060608088806020019051608081101561492c57600080fd5b8101908080516040519392919084600160201b82111561494b57600080fd5b90830190602082018581111561496057600080fd5b82518660208202830111600160201b8211171561497c57600080fd5b82525081516020918201928201910280838360005b838110156149a9578181015183820152602001614991565b5050505090500160405260200180516040519392919084600160201b8211156149d157600080fd5b9083019060208201858111156149e657600080fd5b82518660208202830111600160201b82111715614a0257600080fd5b82525081516020918201928201910280838360005b83811015614a2f578181015183820152602001614a17565b5050505090500160405260200180516040519392919084600160201b821115614a5757600080fd5b908301906020820185811115614a6c57600080fd5b82518660208202830111600160201b82111715614a8857600080fd5b82525081516020918201928201910280838360005b83811015614ab5578181015183820152602001614a9d565b5050505090500160405260200180516040519392919084600160201b821115614add57600080fd5b908301906020820185811115614af257600080fd5b8251600160201b811182820188101715614b0b57600080fd5b82525081516020918201929091019080838360005b83811015614b38578181015183820152602001614b20565b50505050905090810190601f168015614b655780820380516001836020036101000a031916815260200191505b5060405250505093509350935093508251845114614b8257600080fd5b606080606080614b93896004615142565b8060200190516080811015614ba757600080fd5b8101908080516040519392919084600160201b821115614bc657600080fd5b908301906020820185811115614bdb57600080fd5b82518660208202830111600160201b82111715614bf757600080fd5b82525081516020918201928201910280838360005b83811015614c24578181015183820152602001614c0c565b5050505090500160405260200180516040519392919084600160201b821115614c4c57600080fd5b908301906020820185811115614c6157600080fd5b82518660208202830111600160201b82111715614c7d57600080fd5b82525081516020918201928201910280838360005b83811015614caa578181015183820152602001614c92565b5050505090500160405260200180516040519392919084600160201b821115614cd257600080fd5b908301906020820185811115614ce757600080fd5b82518660208202830111600160201b82111715614d0357600080fd5b82525081516020918201928201910280838360005b83811015614d30578181015183820152602001614d18565b5050505090500160405260200180516040519392919084600160201b821115614d5857600080fd5b908301906020820185811115614d6d57600080fd5b8251600160201b811182820188101715614d8657600080fd5b82525081516020918201929091019080838360005b83811015614db3578181015183820152602001614d9b565b50505050905090810190601f168015614de05780820380516001836020036101000a031916815260200191505b5060405250506000549498509296509094509250506001600160a01b03168c600260200201516001600160a01b031614614e1957600080fd5b60018b6001811115614e2757fe5b14614e3157600080fd5b835188511115614e4057600080fd5b60005b885181101561434657838181518110614e5857fe5b6020026020010151600014614e6c57600080fd5b600101614e43565b604080516004808252602482019092526020810180516001600160e01b03166323b872dd60e01b179052600091606091614ead9161512d565b855190915015614ebc57600080fd5b614ec46154e3565b614ecc6154e3565b898060200190516080811015614ee157600080fd5b50805160408b810151929450840192506001600160a01b03918216911614614f0857600080fd5b87516000906001811115614f1857fe5b14614f2257600080fd5b614f3183613a7388600461512d565b614f3a57600080fd5b6000806000614f4a896004615142565b8060200190516060811015614f5e57600080fd5b508051602082015160409092015190945090925090508b600160200201516001600160a01b0316836001600160a01b031614614f9957600080fd5b60808c01516001600160a01b03838116911614614fb557600080fd5b602085015160a08d01516001600160a01b03908116911614614fd657600080fd5b60208b01516000906001811115614fe957fe5b14614ff357600080fd5b61500286613a738a600461512d565b61500b57600080fd5b600080600061501b8b6004615142565b806020019051606081101561502f57600080fd5b508051602082015160409092015190945090925090508e600460200201516001600160a01b0316836001600160a01b03161461506a57600080fd5b60208f01516001600160a01b0383811691161461508657600080fd5b615098848860005b60200201516153be565b6150a48289600161508e565b1015613db557600080fd5b565b600080604051835160208501865afa90505b92915050565b8151815160009160019181148083146150e55760009250615123565b600160208701838101602088015b60028483851001141561511e5780518351146151125760009650600093505b602092830192016150f3565b505050505b5090949350505050565b606061513b83600084615417565b9392505050565b60606000615151845184615486565b905061515e848483615417565b949350505050565b60008060005b86518110156153a357606086828151811061518357fe5b602002602001015167ffffffffffffffff811180156151a157600080fd5b506040519080825280601f01601f1916602001820160405280156151cc576020820181803683370190505b50905060005b8783815181106151de57fe5b6020026020010151811015615233578585815181106151f957fe5b602001015160f81c60f81b82828151811061521057fe5b60200101906001600160f81b031916908160001a905350600194850194016151d2565b5060608c838151811061524257fe5b602002602001015167ffffffffffffffff8111801561526057600080fd5b506040519080825280601f01601f19166020018201604052801561528b576020820181803683370190505b50905060005b8d848151811061529d57fe5b60200260200101518110156152f2578c85815181106152b857fe5b602001015160f81c60f81b8282815181106152cf57fe5b60200101906001600160f81b031916908160001a90535060019485019401615291565b508d83815181106152ff57fe5b60200260200101518b60026007811061531457fe5b60200201906001600160a01b031690816001600160a01b03168152505061539089848151811061534057fe5b602002602001015188858151811061535457fe5b6020026020010151848e60008f876040516024018080602001866007602002808383600083811015612b0c578181015183820152602001612af4565b61539957600080fd5b505060010161516c565b50825182146153b157600080fd5b5050505050505050505050565b6000826153cd575060006150c3565b828202828482816153da57fe5b041461513b5760405162461bcd60e51b81526004018080602001828103825260218152602001806155fb6021913960400191505060405180910390fd5b606080821580156154335760405191506020820160405261547d565b6040519150601f8416801560200281840101858101878315602002848b0101015b8183101561546c578051835260209283019201615454565b5050858452601f01601f1916604052505b50949350505050565b6000828211156154dd576040805162461bcd60e51b815260206004820152601e60248201527f536166654d6174683a207375627472616374696f6e206f766572666c6f770000604482015290519081900360640190fd5b50900390565b6040518060400160405280600290602082028036833750919291505056fe455243313135353a20636f756e74657263616c6c20746172676574206d75737420657175616c2061646472657373206f6620746f6b656e20746f20676574455243313135353a2063616c6c206d7573742062652061206469726563742063616c6c4552433732313a20636f756e74657263616c6c206d7573742062652061206469726563742063616c6c446966666572656e74206e756d626572206f66207374617469632063616c6c2061646472657373657320616e6420657874726164617461734552433732313a2063616c6c20746172676574206d75737420657175616c2061646472657373206f6620746f6b656e20746f2067697665536166654d6174683a206d756c7469706c69636174696f6e206f766572666c6f774552433732313a2063616c6c206d7573742062652061206469726563742063616c6c455243313135353a20636f756e74657263616c6c206d7573742062652061206469726563742063616c6c455243313135353a2063616c6c20746172676574206d75737420657175616c2061646472657373206f6620746f6b656e20746f20676976654552433732313a20636f756e74657263616c6c20746172676574206d75737420657175616c2061646472657373206f6620746f6b656e20746f20676574455243313135353a206769766520616d6f756e74206d757374206265206c6172676572207468616e207a65726f455243313135353a2074616b6520616d6f756e74206d757374206265206c6172676572207468616e207a65726fa26469706673582212206aa2df9edd6d70c95b400c17aed354b99001040a86b0714d27ad0a39f062a87664736f6c63430007050033",
  "devdoc": {
    "author": "Wyvern Protocol Developers",
    "kind": "dev",
    "methods": {},
    "title": "WyvernStatic",
    "version": 1
  },
  "userdoc": {
    "kind": "user",
    "methods": {},
    "version": 1
  },
  "storageLayout": {
    "storage": [
      {
        "astId": 5263,
        "contract": "contracts/WyvernStatic.sol:WyvernStatic",
        "label": "atomicizer",
        "offset": 0,
        "slot": "0",
        "type": "t_address"
      }
    ],
    "types": {
      "t_address": {
        "encoding": "inplace",
        "label": "address",
        "numberOfBytes": "20"
      }
    }
  }
}