{
  "_format": "hh-sol-artifact-1",
  "contractName": "ProxyRegistry",
  "sourceName": "contracts/registry/ProxyRegistry.sol",
  "abi": [
    {
      "anonymous": false,
      "inputs": [
        {
          "indexed": true,
          "internalType": "address",
          "name": "previousOwner",
          "type": "address"
        },
        {
          "indexed": true,
          "internalType": "address",
          "name": "newOwner",
          "type": "address"
        }
      ],
      "name": "OwnershipTransferred",
      "type": "event"
    },
    {
      "inputs": [],
      "name": "DELAY_PERIOD",
      "outputs": [
        {
          "internalType": "uint256",
          "name": "",
          "type": "uint256"
        }
      ],
      "stateMutability": "view",
      "type": "function"
    },
    {
      "inputs": [
        {
          "internalType": "address",
          "name": "",
          "type": "address"
        }
      ],
      "name": "contracts",
      "outputs": [
        {
          "internalType": "bool",
          "name": "",
          "type": "bool"
        }
      ],
      "stateMutability": "view",
      "type": "function"
    },
    {
      "inputs": [],
      "name": "delegateProxyImplementation",
      "outputs": [
        {
          "internalType": "address",
          "name": "",
          "type": "address"
        }
      ],
      "stateMutability": "view",
      "type": "function"
    },
    {
      "inputs": [
        {
          "internalType": "address",
          "name": "addr",
          "type": "address"
        }
      ],
      "name": "endGrantAuthentication",
      "outputs": [],
      "stateMutability": "nonpayable",
      "type": "function"
    },
    {
      "inputs": [],
      "name": "owner",
      "outputs": [
        {
          "internalType": "address",
          "name": "",
          "type": "address"
        }
      ],
      "stateMutability": "view",
      "type": "function"
    },
    {
      "inputs": [
        {
          "internalType": "address",
          "name": "",
          "type": "address"
        }
      ],
      "name": "pending",
      "outputs": [
        {
          "internalType": "uint256",
          "name": "",
          "type": "uint256"
        }
      ],
      "stateMutability": "view",
      "type": "function"
    },
    {
      "inputs": [
        {
          "internalType": "address",
          "name": "",
          "type": "address"
        }
      ],
      "name": "proxies",
      "outputs": [
        {
          "internalType": "contract OwnableDelegateProxy",
          "name": "",
          "type": "address"
        }
      ],
      "stateMutability": "view",
      "type": "function"
    },
    {
      "inputs": [],
      "name": "registerProxy",
      "outputs": [
        {
          "internalType": "contract OwnableDelegateProxy",
          "name": "proxy",
          "type": "address"
        }
      ],
      "stateMutability": "nonpayable",
      "type": "function"
    },
    {
      "inputs": [
        {
          "internalType": "address",
          "name": "user",
          "type": "address"
        }
      ],
      "name": "registerProxyFor",
      "outputs": [
        {
          "internalType": "contract OwnableDelegateProxy",
          "name": "proxy",
          "type": "address"
        }
      ],
      "stateMutability": "nonpayable",
      "type": "function"
    },
    {
      "inputs": [],
      "name": "registerProxyOverride",
      "outputs": [
        {
          "internalType": "contract OwnableDelegateProxy",
          "name": "proxy",
          "type": "address"
        }
      ],
      "stateMutability": "nonpayable",
      "type": "function"
    },
    {
      "inputs": [],
      "name": "renounceOwnership",
      "outputs": [],
      "stateMutability": "nonpayable",
      "type": "function"
    },
    {
      "inputs": [
        {
          "internalType": "address",
          "name": "addr",
          "type": "address"
        }
      ],
      "name": "revokeAuthentication",
      "outputs": [],
      "stateMutability": "nonpayable",
      "type": "function"
    },
    {
      "inputs": [
        {
          "internalType": "address",
          "name": "addr",
          "type": "address"
        }
      ],
      "name": "startGrantAuthentication",
      "outputs": [],
      "stateMutability": "nonpayable",
      "type": "function"
    },
    {
      "inputs": [
        {
          "internalType": "address",
          "name": "from",
          "type": "address"
        },
        {
          "internalType": "address",
          "name": "to",
          "type": "address"
        }
      ],
      "name": "transferAccessTo",
      "outputs": [],
      "stateMutability": "nonpayable",
      "type": "function"
    },
    {
      "inputs": [
        {
          "internalType": "address",
          "name": "newOwner",
          "type": "address"
        }
      ],
      "name": "transferOwnership",
      "outputs": [],
      "stateMutability": "nonpayable",
      "type": "function"
    }
  ],
  "bytecode": "0x60806040526212750060055534801561001757600080fd5b506000610022610071565b600080546001600160a01b0319166001600160a01b0383169081178255604051929350917f8be0079c531659141344cd1fd0a4f28419497f9722a3daafe3b4186f6b6457e0908290a350610075565b3390565b6117a4806100846000396000f3fe60806040523480156200001157600080fd5b50600436106200010b5760003560e01c80638da5cb5b11620000a5578063dcfa9222116200006f578063dcfa9222146200029b578063ddd81f8214620002cc578063e71a02e114620002d6578063f2fde38b14620002e0576200010b565b80638da5cb5b146200023557806397204d8e146200023f578063c45527911462000249578063d4e8e0631462000272576200010b565b80635eebea2011620000e75780635eebea2014620001a9578063631d9e3f14620001e457806369dc9ff314620001ee578063715018a6146200022b576200010b565b8062686741146200011057806338b6e407146200015557806353376d1f1462000180575b600080fd5b62000139600480360360208110156200012857600080fd5b50356001600160a01b031662000309565b604080516001600160a01b039092168252519081900360200190f35b6200017e600480360360208110156200016d57600080fd5b50356001600160a01b0316620004ce565b005b6200017e600480360360208110156200019857600080fd5b50356001600160a01b03166200061f565b620001d260048036036020811015620001c157600080fd5b50356001600160a01b0316620006b9565b60408051918252519081900360200190f35b62000139620006cb565b62000217600480360360208110156200020657600080fd5b50356001600160a01b031662000819565b604080519115158252519081900360200190f35b6200017e6200082e565b62000139620008f1565b6200013962000900565b62000139600480360360208110156200026157600080fd5b50356001600160a01b03166200090f565b6200017e600480360360208110156200028a57600080fd5b50356001600160a01b03166200092a565b6200017e60048036036040811015620002b357600080fd5b506001600160a01b038135811691602001351662000a3c565b6200013962000b2f565b620001d262000b41565b6200017e60048036036020811015620002f857600080fd5b50356001600160a01b031662000b47565b6001600160a01b038181166000908152600260205260408120549091161562000379576040805162461bcd60e51b815260206004820152601860248201527f5573657220616c72656164792068617320612070726f78790000000000000000604482015290519081900360640190fd5b600154604080516001600160a01b0380861660248301523060448084019190915283518084039091018152606490920183526020820180517bffffffffffffffffffffffffffffffffffffffffffffffffffffffff1663485cc95560e01b179052915185939290921691620003ee9062000c66565b80846001600160a01b03168152602001836001600160a01b0316815260200180602001828103825283818151815260200191508051906020019080838360005b83811015620004485781810151838201526020016200042e565b50505050905090810190601f168015620004765780820380516001836020036101000a031916815260200191505b50945050505050604051809103906000f0801580156200049a573d6000803e3d6000fd5b506001600160a01b03928316600090815260026020526040902080546001600160a01b031916938216939093179092555090565b620004d862000c62565b6001600160a01b0316620004eb620008f1565b6001600160a01b03161462000547576040805162461bcd60e51b815260206004820181905260248201527f4f776e61626c653a2063616c6c6572206973206e6f7420746865206f776e6572604482015290519081900360640190fd5b6001600160a01b03811660009081526004602052604090205460ff161580156200058857506001600160a01b03811660009081526003602052604090205415155b8015620005b157506005546001600160a01b038216600090815260036020526040902054429101105b620005ee5760405162461bcd60e51b8152600401808060200182810382526046815260200180620016c66046913960600191505060405180910390fd5b6001600160a01b0316600090815260036020908152604080832083905560049091529020805460ff19166001179055565b6200062962000c62565b6001600160a01b03166200063c620008f1565b6001600160a01b03161462000698576040805162461bcd60e51b815260206004820181905260248201527f4f776e61626c653a2063616c6c6572206973206e6f7420746865206f776e6572604482015290519081900360640190fd5b6001600160a01b03166000908152600460205260409020805460ff19169055565b60036020526000908152604090205481565b6001546040805133602482018190523060448084019190915283518084039091018152606490920183526020820180517bffffffffffffffffffffffffffffffffffffffffffffffffffffffff1663485cc95560e01b17905291516000936001600160a01b031691906200073f9062000c66565b80846001600160a01b03168152602001836001600160a01b0316815260200180602001828103825283818151815260200191508051906020019080838360005b83811015620007995781810151838201526020016200077f565b50505050905090810190601f168015620007c75780820380516001836020036101000a031916815260200191505b50945050505050604051809103906000f080158015620007eb573d6000803e3d6000fd5b5033600090815260026020526040902080546001600160a01b0319166001600160a01b038316179055919050565b60046020526000908152604090205460ff1681565b6200083862000c62565b6001600160a01b03166200084b620008f1565b6001600160a01b031614620008a7576040805162461bcd60e51b815260206004820181905260248201527f4f776e61626c653a2063616c6c6572206973206e6f7420746865206f776e6572604482015290519081900360640190fd5b600080546040516001600160a01b03909116907f8be0079c531659141344cd1fd0a4f28419497f9722a3daafe3b4186f6b6457e0908390a3600080546001600160a01b0319169055565b6000546001600160a01b031690565b6001546001600160a01b031681565b6002602052600090815260409020546001600160a01b031681565b6200093462000c62565b6001600160a01b031662000947620008f1565b6001600160a01b031614620009a3576040805162461bcd60e51b815260206004820181905260248201527f4f776e61626c653a2063616c6c6572206973206e6f7420746865206f776e6572604482015290519081900360640190fd5b6001600160a01b03811660009081526004602052604090205460ff16158015620009e357506001600160a01b038116600090815260036020526040902054155b62000a205760405162461bcd60e51b81526004018080602001828103825260338152602001806200173c6033913960400191505060405180910390fd5b6001600160a01b03166000908152600360205260409020429055565b6001600160a01b038083166000908152600260205260409020541633811462000a975760405162461bcd60e51b815260040180806020018281038252602e81526020018062001672602e913960400191505060405180910390fd5b6001600160a01b03828116600090815260026020526040902054161562000af05760405162461bcd60e51b81526004018080602001828103825260308152602001806200170c6030913960400191505060405180910390fd5b6001600160a01b0392831660009081526002602052604080822080546001600160a01b0319908116909155938516825290208054919093169116179055565b600062000b3c3362000309565b905090565b60055481565b62000b5162000c62565b6001600160a01b031662000b64620008f1565b6001600160a01b03161462000bc0576040805162461bcd60e51b815260206004820181905260248201527f4f776e61626c653a2063616c6c6572206973206e6f7420746865206f776e6572604482015290519081900360640190fd5b6001600160a01b03811662000c075760405162461bcd60e51b8152600401808060200182810382526026815260200180620016a06026913960400191505060405180910390fd5b600080546040516001600160a01b03808516939216917f8be0079c531659141344cd1fd0a4f28419497f9722a3daafe3b4186f6b6457e091a3600080546001600160a01b0319166001600160a01b0392909216919091179055565b3390565b6109fd8062000c758339019056fe608060405234801561001057600080fd5b506040516109fd3803806109fd8339818101604052606081101561003357600080fd5b8151602083015160408085018051915193959294830192918464010000000082111561005e57600080fd5b90830190602082018581111561007357600080fd5b825164010000000081118282018810171561008d57600080fd5b82525081516020918201929091019080838360005b838110156100ba5781810151838201526020016100a2565b50505050905090810190601f1680156100e75780820380516001836020036101000a031916815260200191505b506040525050506100fd836101f060201b60201c565b61010682610212565b6000826001600160a01b0316826040518082805190602001908083835b602083106101425780518252601f199092019160209182019101610123565b6001836020036101000a038019825116818451168082178552505050505050905001915050600060405180830381855af49150503d80600081146101a2576040519150601f19603f3d011682016040523d82523d6000602084013e6101a7565b606091505b50509050806101e75760405162461bcd60e51b815260040180806020018281038252602a8152602001806109d3602a913960400191505060405180910390fd5b505050506102a7565b600180546001600160a01b0319166001600160a01b0392909216919091179055565b6000546001600160a01b038281169116141561025f5760405162461bcd60e51b81526004018080602001828103825260268152602001806109ad6026913960400191505060405180910390fd5b600080546001600160a01b0319166001600160a01b038316908117825560405190917fbc7cd75a20ee27fd9adebab32041f755214dbc6bffa90cc0225b39da2e5c2d3b91a250565b6106f7806102b66000396000f3fe6080604052600436106100705760003560e01c80634f1ef2861161004e5780634f1ef286146101895780635c60da1b1461023f5780636fde820214610254578063f1739cae1461026957610070565b8063025313a2146100fc5780633659cfe61461012d5780634555d5c914610162575b600061007a61029c565b90506001600160a01b0381166100d7576040805162461bcd60e51b815260206004820152601d60248201527f50726f787920696d706c656d656e746174696f6e207265717569726564000000604482015290519081900360640190fd5b60405136600082376000803683855af43d806000843e8180156100f8578184f35b8184fd5b34801561010857600080fd5b506101116102ab565b604080516001600160a01b039092168252519081900360200190f35b34801561013957600080fd5b506101606004803603602081101561015057600080fd5b50356001600160a01b03166102ba565b005b34801561016e57600080fd5b5061017761031d565b60408051918252519081900360200190f35b6101606004803603604081101561019f57600080fd5b6001600160a01b0382351691908101906040810160208201356401000000008111156101ca57600080fd5b8201836020820111156101dc57600080fd5b803590602001918460018302840111640100000000831117156101fe57600080fd5b91908080601f016020809104026020016040519081016040528093929190818152602001838380828437600092019190915250929550610322945050505050565b34801561024b57600080fd5b5061011161029c565b34801561026057600080fd5b5061011161047e565b34801561027557600080fd5b506101606004803603602081101561028c57600080fd5b50356001600160a01b031661048d565b6000546001600160a01b031690565b60006102b561047e565b905090565b6102c26102ab565b6001600160a01b0316336001600160a01b0316146103115760405162461bcd60e51b81526004018080602001828103825260298152602001806106996029913960400191505060405180910390fd5b61031a8161057d565b50565b600290565b61032a6102ab565b6001600160a01b0316336001600160a01b0316146103795760405162461bcd60e51b81526004018080602001828103825260298152602001806106996029913960400191505060405180910390fd5b610382826102ba565b6000306001600160a01b0316826040518082805190602001908083835b602083106103be5780518252601f19909201916020918201910161039f565b6001836020036101000a038019825116818451168082178552505050505050905001915050600060405180830381855af49150503d806000811461041e576040519150601f19603f3d011682016040523d82523d6000602084013e610423565b606091505b5050905080610479576040805162461bcd60e51b815260206004820152601f60248201527f43616c6c206661696c65642061667465722070726f7879207570677261646500604482015290519081900360640190fd5b505050565b6001546001600160a01b031690565b6104956102ab565b6001600160a01b0316336001600160a01b0316146104e45760405162461bcd60e51b81526004018080602001828103825260298152602001806106996029913960400191505060405180910390fd5b6001600160a01b0381166105295760405162461bcd60e51b81526004018080602001828103825260248152602001806106756024913960400191505060405180910390fd5b7f5a3e66efaa1e445ebd894728a69d6959842ea1e97bd79b892797106e270efcd96105526102ab565b604080516001600160a01b03928316815291841660208301528051918290030190a161031a8161061f565b6000546001600160a01b03828116911614156105ca5760405162461bcd60e51b815260040180806020018281038252602681526020018061064f6026913960400191505060405180910390fd5b6000805473ffffffffffffffffffffffffffffffffffffffff19166001600160a01b038316908117825560405190917fbc7cd75a20ee27fd9adebab32041f755214dbc6bffa90cc0225b39da2e5c2d3b91a250565b6001805473ffffffffffffffffffffffffffffffffffffffff19166001600160a01b039290921691909117905556fe50726f787920616c72656164792075736573207468697320696d706c656d656e746174696f6e4e6577206f776e65722063616e6e6f7420626520746865206e756c6c20616464726573734f6e6c79207468652070726f7879206f776e65722063616e2063616c6c2074686973206d6574686f64a26469706673582212206d74fdccd774f688df80dcd27b1eeb93fba0d35557448ab17472480626d60ba264736f6c6343000705003350726f787920616c72656164792075736573207468697320696d706c656d656e746174696f6e4f776e61626c6544656c656761746550726f7879206661696c656420696d706c656d656e746174696f6e50726f7879207472616e736665722063616e206f6e6c792062652063616c6c6564206279207468652070726f78794f776e61626c653a206e6577206f776e657220697320746865207a65726f2061646472657373436f6e7472616374206973206e6f206c6f6e6765722070656e64696e67206f722068617320616c7265616479206265656e20617070726f76656420627920726567697374727950726f7879207472616e7366657220686173206578697374696e672070726f78792061732064657374696e6174696f6e436f6e747261637420697320616c726561647920616c6c6f77656420696e2072656769737472792c206f722070656e64696e67a264697066735822122059fd3b75708e0eabe11d63173f2efd15667b6b4cccad358c3805cda6a84f2c3d64736f6c63430007050033",
  "linkReferences": {},
  "deployedLinkReferences": {}
}