{
  "_format": "hh-sol-artifact-1",
  "contractName": "TestERC1155",
  "sourceName": "contracts/TestERC1155.sol",
  "abi": [
    {
      "inputs": [],
      "stateMutability": "nonpayable",
      "type": "constructor"
    },
    {
      "anonymous": false,
      "inputs": [
        {
          "indexed": true,
          "internalType": "address",
          "name": "account",
          "type": "address"
        },
        {
          "indexed": true,
          "internalType": "address",
          "name": "operator",
          "type": "address"
        },
        {
          "indexed": false,
          "internalType": "bool",
          "name": "approved",
          "type": "bool"
        }
      ],
      "name": "ApprovalForAll",
      "type": "event"
    },
    {
      "anonymous": false,
      "inputs": [
        {
          "indexed": true,
          "internalType": "address",
          "name": "operator",
          "type": "address"
        },
        {
          "indexed": true,
          "internalType": "address",
          "name": "from",
          "type": "address"
        },
        {
          "indexed": true,
          "internalType": "address",
          "name": "to",
          "type": "address"
        },
        {
          "indexed": false,
          "internalType": "uint256[]",
          "name": "ids",
          "type": "uint256[]"
        },
        {
          "indexed": false,
          "internalType": "uint256[]",
          "name": "values",
          "type": "uint256[]"
        }
      ],
      "name": "TransferBatch",
      "type": "event"
    },
    {
      "anonymous": false,
      "inputs": [
        {
          "indexed": true,
          "internalType": "address",
          "name": "operator",
          "type": "address"
        },
        {
          "indexed": true,
          "internalType": "address",
          "name": "from",
          "type": "address"
        },
        {
          "indexed": true,
          "internalType": "address",
          "name": "to",
          "type": "address"
        },
        {
          "indexed": false,
          "internalType": "uint256",
          "name": "id",
          "type": "uint256"
        },
        {
          "indexed": false,
          "internalType": "uint256",
          "name": "value",
          "type": "uint256"
        }
      ],
      "name": "TransferSingle",
      "type": "event"
    },
    {
      "anonymous": false,
      "inputs": [
        {
          "indexed": false,
          "internalType": "string",
          "name": "value",
          "type": "string"
        },
        {
          "indexed": true,
          "internalType": "uint256",
          "name": "id",
          "type": "uint256"
        }
      ],
      "name": "URI",
      "type": "event"
    },
    {
      "inputs": [
        {
          "internalType": "address",
          "name": "account",
          "type": "address"
        },
        {
          "internalType": "uint256",
          "name": "id",
          "type": "uint256"
        }
      ],
      "name": "balanceOf",
      "outputs": [
        {
          "internalType": "uint256",
          "name": "",
          "type": "uint256"
        }
      ],
      "stateMutability": "view",
      "type": "function"
    },
    {
      "inputs": [
        {
          "internalType": "address[]",
          "name": "accounts",
          "type": "address[]"
        },
        {
          "internalType": "uint256[]",
          "name": "ids",
          "type": "uint256[]"
        }
      ],
      "name": "balanceOfBatch",
      "outputs": [
        {
          "internalType": "uint256[]",
          "name": "",
          "type": "uint256[]"
        }
      ],
      "stateMutability": "view",
      "type": "function"
    },
    {
      "inputs": [
        {
          "internalType": "address",
          "name": "account",
          "type": "address"
        },
        {
          "internalType": "address",
          "name": "operator",
          "type": "address"
        }
      ],
      "name": "isApprovedForAll",
      "outputs": [
        {
          "internalType": "bool",
          "name": "",
          "type": "bool"
        }
      ],
      "stateMutability": "view",
      "type": "function"
    },
    {
      "inputs": [
        {
          "internalType": "address",
          "name": "to",
          "type": "address"
        },
        {
          "internalType": "uint256",
          "name": "tokenId",
          "type": "uint256"
        },
        {
          "internalType": "uint256",
          "name": "amount",
          "type": "uint256"
        }
      ],
      "name": "mint",
      "outputs": [
        {
          "internalType": "bool",
          "name": "",
          "type": "bool"
        }
      ],
      "stateMutability": "nonpayable",
      "type": "function"
    },
    {
      "inputs": [
        {
          "internalType": "address",
          "name": "to",
          "type": "address"
        },
        {
          "internalType": "uint256",
          "name": "tokenId",
          "type": "uint256"
        }
      ],
      "name": "mint",
      "outputs": [
        {
          "internalType": "bool",
          "name": "",
          "type": "bool"
        }
      ],
      "stateMutability": "nonpayable",
      "type": "function"
    },
    {
      "inputs": [
        {
          "internalType": "address",
          "name": "from",
          "type": "address"
        },
        {
          "internalType": "address",
          "name": "to",
          "type": "address"
        },
        {
          "internalType": "uint256[]",
          "name": "ids",
          "type": "uint256[]"
        },
        {
          "internalType": "uint256[]",
          "name": "amounts",
          "type": "uint256[]"
        },
        {
          "internalType": "bytes",
          "name": "data",
          "type": "bytes"
        }
      ],
      "name": "safeBatchTransferFrom",
      "outputs": [],
      "stateMutability": "nonpayable",
      "type": "function"
    },
    {
      "inputs": [
        {
          "internalType": "address",
          "name": "from",
          "type": "address"
        },
        {
          "internalType": "address",
          "name": "to",
          "type": "address"
        },
        {
          "internalType": "uint256",
          "name": "id",
          "type": "uint256"
        },
        {
          "internalType": "uint256",
          "name": "amount",
          "type": "uint256"
        },
        {
          "internalType": "bytes",
          "name": "data",
          "type": "bytes"
        }
      ],
      "name": "safeTransferFrom",
      "outputs": [],
      "stateMutability": "nonpayable",
      "type": "function"
    },
    {
      "inputs": [
        {
          "internalType": "address",
          "name": "operator",
          "type": "address"
        },
        {
          "internalType": "bool",
          "name": "approved",
          "type": "bool"
        }
      ],
      "name": "setApprovalForAll",
      "outputs": [],
      "stateMutability": "nonpayable",
      "type": "function"
    },
    {
      "inputs": [
        {
          "internalType": "bytes4",
          "name": "interfaceId",
          "type": "bytes4"
        }
      ],
      "name": "supportsInterface",
      "outputs": [
        {
          "internalType": "bool",
          "name": "",
          "type": "bool"
        }
      ],
      "stateMutability": "view",
      "type": "function"
    },
    {
      "inputs": [
        {
          "internalType": "uint256",
          "name": "",
          "type": "uint256"
        }
      ],
      "name": "uri",
      "outputs": [
        {
          "internalType": "string",
          "name": "",
          "type": "string"
        }
      ],
      "stateMutability": "view",
      "type": "function"
    }
  ],
  "bytecode": "0x60806040523480156200001157600080fd5b5060408051808201909152601581527f687474703a2f2f746573742f7b69647d2e6a736f6e00000000000000000000006020820152620000586301ffc9a760e01b6200008e565b620000638162000113565b62000075636cdb3d1360e11b6200008e565b620000876303a24d0760e21b6200008e565b50620001d8565b6001600160e01b03198082161415620000ee576040805162461bcd60e51b815260206004820152601c60248201527f4552433136353a20696e76616c696420696e7465726661636520696400000000604482015290519081900360640190fd5b6001600160e01b0319166000908152602081905260409020805460ff19166001179055565b8051620001289060039060208401906200012c565b5050565b828054600181600116156101000203166002900490600052602060002090601f016020900481019282620001645760008555620001af565b82601f106200017f57805160ff1916838001178555620001af565b82800160010185558215620001af579182015b82811115620001af57825182559160200191906001019062000192565b50620001bd929150620001c1565b5090565b5b80821115620001bd5760008155600101620001c2565b6117c480620001e86000396000f3fe608060405234801561001057600080fd5b50600436106100bd5760003560e01c806340c10f1911610076578063a22cb4651161005b578063a22cb4651461056b578063e985e9c514610599578063f242432a146105c7576100bd565b806340c10f19146103c85780634e1273f4146103f4576100bd565b80630e89341c116100a75780630e89341c1461013b578063156e29f6146101cd5780632eb2c2d6146101ff576100bd565b8062fdd58e146100c257806301ffc9a714610100575b600080fd5b6100ee600480360360408110156100d857600080fd5b506001600160a01b038135169060200135610692565b60408051918252519081900360200190f35b6101276004803603602081101561011657600080fd5b50356001600160e01b031916610701565b604080519115158252519081900360200190f35b6101586004803603602081101561015157600080fd5b5035610720565b6040805160208082528351818301528351919283929083019185019080838360005b8381101561019257818101518382015260200161017a565b50505050905090810190601f1680156101bf5780820380516001836020036101000a031916815260200191505b509250505060405180910390f35b610127600480360360608110156101e357600080fd5b506001600160a01b0381351690602081013590604001356107b8565b6103c6600480360360a081101561021557600080fd5b6001600160a01b03823581169260208101359091169181019060608101604082013564010000000081111561024957600080fd5b82018360208201111561025b57600080fd5b8035906020019184602083028401116401000000008311171561027d57600080fd5b91908080602002602001604051908101604052809392919081815260200183836020028082843760009201919091525092959493602081019350359150506401000000008111156102cd57600080fd5b8201836020820111156102df57600080fd5b8035906020019184602083028401116401000000008311171561030157600080fd5b919080806020026020016040519081016040528093929190818152602001838360200280828437600092019190915250929594936020810193503591505064010000000081111561035157600080fd5b82018360208201111561036357600080fd5b8035906020019184600183028401116401000000008311171561038557600080fd5b91908080601f0160208091040260200160405190810160405280939291908181526020018383808284376000920191909152509295506107df945050505050565b005b610127600480360360408110156103de57600080fd5b506001600160a01b038135169060200135610add565b61051b6004803603604081101561040a57600080fd5b81019060208101813564010000000081111561042557600080fd5b82018360208201111561043757600080fd5b8035906020019184602083028401116401000000008311171561045957600080fd5b91908080602002602001604051908101604052809392919081815260200183836020028082843760009201919091525092959493602081019350359150506401000000008111156104a957600080fd5b8201836020820111156104bb57600080fd5b803590602001918460208302840111640100000000831117156104dd57600080fd5b919080806020026020016040519081016040528093929190818152602001838360200280828437600092019190915250929550610b04945050505050565b60408051602080825283518183015283519192839290830191858101910280838360005b8381101561055757818101518382015260200161053f565b505050509050019250505060405180910390f35b6103c66004803603604081101561058157600080fd5b506001600160a01b0381351690602001351515610bf0565b610127600480360360408110156105af57600080fd5b506001600160a01b0381358116916020013516610cdf565b6103c6600480360360a08110156105dd57600080fd5b6001600160a01b03823581169260208101359091169160408201359160608101359181019060a08101608082013564010000000081111561061d57600080fd5b82018360208201111561062f57600080fd5b8035906020019184600183028401116401000000008311171561065157600080fd5b91908080601f016020809104026020016040519081016040528093929190818152602001838380828437600092019190915250929550610d0d945050505050565b60006001600160a01b0383166106d95760405162461bcd60e51b815260040180806020018281038252602b81526020018061161f602b913960400191505060405180910390fd5b5060009081526001602090815260408083206001600160a01b03949094168352929052205490565b6001600160e01b03191660009081526020819052604090205460ff1690565b60038054604080516020601f60026000196101006001881615020190951694909404938401819004810282018101909252828152606093909290918301828280156107ac5780601f10610781576101008083540402835291602001916107ac565b820191906000526020600020905b81548152906001019060200180831161078f57829003601f168201915b50505050509050919050565b60006107d584848460405180602001604052806000815250610ed8565b5060019392505050565b815183511461081f5760405162461bcd60e51b81526004018080602001828103825260288152602001806117466028913960400191505060405180910390fd5b6001600160a01b0384166108645760405162461bcd60e51b81526004018080602001828103825260258152602001806116736025913960400191505060405180910390fd5b61086c610fe0565b6001600160a01b0316856001600160a01b03161480610897575061089785610892610fe0565b610cdf565b6108d25760405162461bcd60e51b81526004018080602001828103825260328152602001806116986032913960400191505060405180910390fd5b60006108dc610fe0565b90506108ec818787878787610ad5565b60005b84518110156109ed57600085828151811061090657fe5b60200260200101519050600085838151811061091e57fe5b6020026020010151905061098b816040518060600160405280602a81526020016116ca602a91396001600086815260200190815260200160002060008d6001600160a01b03166001600160a01b0316815260200190815260200160002054610fe59092919063ffffffff16565b60008381526001602090815260408083206001600160a01b038e811685529252808320939093558a16815220546109c2908261107c565b60009283526001602081815260408086206001600160a01b038d1687529091529093205550016108ef565b50846001600160a01b0316866001600160a01b0316826001600160a01b03167f4a39dc06d4c0dbc64b70af90fd698a233a518aa5d07e595d983b8c0526c8f7fb8787604051808060200180602001838103835285818151815260200191508051906020019060200280838360005b83811015610a73578181015183820152602001610a5b565b50505050905001838103825284818151815260200191508051906020019060200280838360005b83811015610ab2578181015183820152602001610a9a565b5050505090500194505050505060405180910390a4610ad58187878787876110dd565b505050505050565b6000610afb8383600160405180602001604052806000815250610ed8565b50600192915050565b60608151835114610b465760405162461bcd60e51b815260040180806020018281038252602981526020018061171d6029913960400191505060405180910390fd5b6060835167ffffffffffffffff81118015610b6057600080fd5b50604051908082528060200260200182016040528015610b8a578160200160208202803683370190505b50905060005b8451811015610be857610bc9858281518110610ba857fe5b6020026020010151858381518110610bbc57fe5b6020026020010151610692565b828281518110610bd557fe5b6020908102919091010152600101610b90565b509392505050565b816001600160a01b0316610c02610fe0565b6001600160a01b03161415610c485760405162461bcd60e51b81526004018080602001828103825260298152602001806116f46029913960400191505060405180910390fd5b8060026000610c55610fe0565b6001600160a01b03908116825260208083019390935260409182016000908120918716808252919093529120805460ff191692151592909217909155610c99610fe0565b6001600160a01b03167f17307eab39ab6107e8899845ad3d59bd9653f200f220920489ca2b5937696c318360405180821515815260200191505060405180910390a35050565b6001600160a01b03918216600090815260026020908152604080832093909416825291909152205460ff1690565b6001600160a01b038416610d525760405162461bcd60e51b81526004018080602001828103825260258152602001806116736025913960400191505060405180910390fd5b610d5a610fe0565b6001600160a01b0316856001600160a01b03161480610d805750610d8085610892610fe0565b610dbb5760405162461bcd60e51b815260040180806020018281038252602981526020018061164a6029913960400191505060405180910390fd5b6000610dc5610fe0565b9050610de5818787610dd68861135c565b610ddf8861135c565b87610ad5565b610e2c836040518060600160405280602a81526020016116ca602a913960008781526001602090815260408083206001600160a01b038d1684529091529020549190610fe5565b60008581526001602090815260408083206001600160a01b038b81168552925280832093909355871681522054610e63908461107c565b60008581526001602090815260408083206001600160a01b03808b168086529184529382902094909455805188815291820187905280518a8416938616927fc3d58168c5ae7397731d063d5bbf3d657854427343f4c083240f7aacaa2d0f6292908290030190a4610ad58187878787876113a0565b6001600160a01b038416610f1d5760405162461bcd60e51b815260040180806020018281038252602181526020018061176e6021913960400191505060405180910390fd5b6000610f27610fe0565b9050610f3981600087610dd68861135c565b60008481526001602090815260408083206001600160a01b0389168452909152902054610f66908461107c565b60008581526001602090815260408083206001600160a01b03808b16808652918452828520959095558151898152928301889052815190948616927fc3d58168c5ae7397731d063d5bbf3d657854427343f4c083240f7aacaa2d0f6292908290030190a4610fd9816000878787876113a0565b5050505050565b335b90565b600081848411156110745760405162461bcd60e51b81526004018080602001828103825283818151815260200191508051906020019080838360005b83811015611039578181015183820152602001611021565b50505050905090810190601f1680156110665780820380516001836020036101000a031916815260200191505b509250505060405180910390fd5b505050900390565b6000828201838110156110d6576040805162461bcd60e51b815260206004820152601b60248201527f536166654d6174683a206164646974696f6e206f766572666c6f770000000000604482015290519081900360640190fd5b9392505050565b6110ef846001600160a01b0316611511565b15610ad557836001600160a01b031663bc197c8187878686866040518663ffffffff1660e01b815260040180866001600160a01b03168152602001856001600160a01b03168152602001806020018060200180602001848103845287818151815260200191508051906020019060200280838360005b8381101561117d578181015183820152602001611165565b50505050905001848103835286818151815260200191508051906020019060200280838360005b838110156111bc5781810151838201526020016111a4565b50505050905001848103825285818151815260200191508051906020019080838360005b838110156111f85781810151838201526020016111e0565b50505050905090810190601f1680156112255780820380516001836020036101000a031916815260200191505b5098505050505050505050602060405180830381600087803b15801561124a57600080fd5b505af192505050801561126f57506040513d602081101561126a57600080fd5b505160015b6113045761127b61151d565b8061128657506112cd565b60405162461bcd60e51b8152602060048201818152835160248401528351849391928392604401919085019080838360008315611039578181015183820152602001611021565b60405162461bcd60e51b81526004018080602001828103825260348152602001806115c36034913960400191505060405180910390fd5b6001600160e01b0319811663bc197c8160e01b146113535760405162461bcd60e51b81526004018080602001828103825260288152602001806115f76028913960400191505060405180910390fd5b50505050505050565b60408051600180825281830190925260609182919060208083019080368337019050509050828160008151811061138f57fe5b602090810291909101015292915050565b6113b2846001600160a01b0316611511565b15610ad557836001600160a01b031663f23a6e6187878686866040518663ffffffff1660e01b815260040180866001600160a01b03168152602001856001600160a01b0316815260200184815260200183815260200180602001828103825283818151815260200191508051906020019080838360005b83811015611441578181015183820152602001611429565b50505050905090810190601f16801561146e5780820380516001836020036101000a031916815260200191505b509650505050505050602060405180830381600087803b15801561149157600080fd5b505af19250505080156114b657506040513d60208110156114b157600080fd5b505160015b6114c25761127b61151d565b6001600160e01b0319811663f23a6e6160e01b146113535760405162461bcd60e51b81526004018080602001828103825260288152602001806115f76028913960400191505060405180910390fd5b3b151590565b60e01c90565b600060443d101561152d57610fe2565b600481823e6308c379a06115418251611517565b1461154b57610fe2565b6040513d600319016004823e80513d67ffffffffffffffff816024840111818411171561157b5750505050610fe2565b828401925082519150808211156115955750505050610fe2565b503d830160208284010111156115ad57505050610fe2565b601f01601f191681016020016040529150509056fe455243313135353a207472616e7366657220746f206e6f6e2045524331313535526563656976657220696d706c656d656e746572455243313135353a204552433131353552656365697665722072656a656374656420746f6b656e73455243313135353a2062616c616e636520717565727920666f7220746865207a65726f2061646472657373455243313135353a2063616c6c6572206973206e6f74206f776e6572206e6f7220617070726f766564455243313135353a207472616e7366657220746f20746865207a65726f2061646472657373455243313135353a207472616e736665722063616c6c6572206973206e6f74206f776e6572206e6f7220617070726f766564455243313135353a20696e73756666696369656e742062616c616e636520666f72207472616e73666572455243313135353a2073657474696e6720617070726f76616c2073746174757320666f722073656c66455243313135353a206163636f756e747320616e6420696473206c656e677468206d69736d61746368455243313135353a2069647320616e6420616d6f756e7473206c656e677468206d69736d61746368455243313135353a206d696e7420746f20746865207a65726f2061646472657373a2646970667358221220e8d4c3a9ac0e6856ed3d5f5a30cdc82c01362fb55941e71233ad56e48e8a613a64736f6c63430007050033",
  "linkReferences": {},
  "deployedLinkReferences": {}
}