{
  "_format": "hh-sol-artifact-1",
  "contractName": "TestERC1271",
  "sourceName": "contracts/TestERC1271.sol",
  "abi": [
    {
      "inputs": [
        {
          "internalType": "bytes32",
          "name": "_hash",
          "type": "bytes32"
        },
        {
          "internalType": "bytes",
          "name": "_signature",
          "type": "bytes"
        }
      ],
      "name": "isValidSignature",
      "outputs": [
        {
          "internalType": "bytes4",
          "name": "magicValue",
          "type": "bytes4"
        }
      ],
      "stateMutability": "view",
      "type": "function"
    },
    {
      "inputs": [
        {
          "internalType": "address",
          "name": "ownerAddr",
          "type": "address"
        }
      ],
      "name": "setOwner",
      "outputs": [],
      "stateMutability": "nonpayable",
      "type": "function"
    }
  ],
  "bytecode": "0x608060405234801561001057600080fd5b506102a7806100206000396000f3fe608060405234801561001057600080fd5b50600436106100365760003560e01c806313af40351461003b5780631626ba7e14610070575b600080fd5b61006e6004803603602081101561005157600080fd5b503573ffffffffffffffffffffffffffffffffffffffff16610152565b005b61011d6004803603604081101561008657600080fd5b813591908101906040810160208201356401000000008111156100a857600080fd5b8201836020820111156100ba57600080fd5b803590602001918460018302840111640100000000831117156100dc57600080fd5b91908080601f016020809104026020016040519081016040528093929190818152602001838380828437600092019190915250929550610199945050505050565b604080517fffffffff000000000000000000000000000000000000000000000000000000009092168252519081900360200190f35b600080547fffffffffffffffffffffffff00000000000000000000000000000000000000001673ffffffffffffffffffffffffffffffffffffffff92909216919091179055565b6000806000808480602001905160608110156101b457600080fd5b5080516020808301516040938401518451600081528084018087528c905260ff85168187015260608101839052608081018290529451939750909550935060019260a080820193601f1981019281900390910190855afa15801561021c573d6000803e3d6000fd5b5050604051601f19015160005473ffffffffffffffffffffffffffffffffffffffff90811691161415905061025e5750630b135d3f60e11b925061026b915050565b506000925061026b915050565b9291505056fea26469706673582212209762d3978888995fab75acb28f2fc15dc52b8057893e31a5e6a806bb3438895e64736f6c63430007050033",
  "linkReferences": {},
  "deployedLinkReferences": {}
}