{
  "_format": "hh-sol-artifact-1",
  "contractName": "TestAuthenticatedProxy",
  "sourceName": "contracts/TestAuthenticatedProxy.sol",
  "abi": [
    {
      "anonymous": false,
      "inputs": [
        {
          "indexed": true,
          "internalType": "address",
          "name": "sender",
          "type": "address"
        },
        {
          "indexed": false,
          "internalType": "uint256",
          "name": "amount",
          "type": "uint256"
        }
      ],
      "name": "ReceivedEther",
      "type": "event"
    },
    {
      "anonymous": false,
      "inputs": [
        {
          "indexed": true,
          "internalType": "address",
          "name": "from",
          "type": "address"
        },
        {
          "indexed": false,
          "internalType": "uint256",
          "name": "value",
          "type": "uint256"
        },
        {
          "indexed": true,
          "internalType": "address",
          "name": "token",
          "type": "address"
        },
        {
          "indexed": false,
          "internalType": "bytes",
          "name": "extraData",
          "type": "bytes"
        }
      ],
      "name": "ReceivedTokens",
      "type": "event"
    },
    {
      "anonymous": false,
      "inputs": [
        {
          "indexed": false,
          "internalType": "bool",
          "name": "revoked",
          "type": "bool"
        }
      ],
      "name": "Revoked",
      "type": "event"
    },
    {
      "stateMutability": "payable",
      "type": "fallback"
    },
    {
      "inputs": [
        {
          "internalType": "address",
          "name": "addrUser",
          "type": "address"
        },
        {
          "internalType": "contract ProxyRegistry",
          "name": "addrRegistry",
          "type": "address"
        }
      ],
      "name": "initialize",
      "outputs": [],
      "stateMutability": "nonpayable",
      "type": "function"
    },
    {
      "inputs": [
        {
          "internalType": "address",
          "name": "dest",
          "type": "address"
        },
        {
          "internalType": "enum AuthenticatedProxy.HowToCall",
          "name": "howToCall",
          "type": "uint8"
        },
        {
          "internalType": "bytes",
          "name": "data",
          "type": "bytes"
        }
      ],
      "name": "proxy",
      "outputs": [
        {
          "internalType": "bool",
          "name": "result",
          "type": "bool"
        }
      ],
      "stateMutability": "nonpayable",
      "type": "function"
    },
    {
      "inputs": [
        {
          "internalType": "address",
          "name": "dest",
          "type": "address"
        },
        {
          "internalType": "enum AuthenticatedProxy.HowToCall",
          "name": "howToCall",
          "type": "uint8"
        },
        {
          "internalType": "bytes",
          "name": "data",
          "type": "bytes"
        }
      ],
      "name": "proxyAssert",
      "outputs": [],
      "stateMutability": "nonpayable",
      "type": "function"
    },
    {
      "inputs": [
        {
          "internalType": "address",
          "name": "from",
          "type": "address"
        },
        {
          "internalType": "uint256",
          "name": "value",
          "type": "uint256"
        },
        {
          "internalType": "address",
          "name": "token",
          "type": "address"
        },
        {
          "internalType": "bytes",
          "name": "extraData",
          "type": "bytes"
        }
      ],
      "name": "receiveApproval",
      "outputs": [],
      "stateMutability": "nonpayable",
      "type": "function"
    },
    {
      "inputs": [],
      "name": "registry",
      "outputs": [
        {
          "internalType": "contract ProxyRegistry",
          "name": "",
          "type": "address"
        }
      ],
      "stateMutability": "view",
      "type": "function"
    },
    {
      "inputs": [],
      "name": "revoked",
      "outputs": [
        {
          "internalType": "bool",
          "name": "",
          "type": "bool"
        }
      ],
      "stateMutability": "view",
      "type": "function"
    },
    {
      "inputs": [
        {
          "internalType": "bool",
          "name": "revoke",
          "type": "bool"
        }
      ],
      "name": "setRevoke",
      "outputs": [],
      "stateMutability": "nonpayable",
      "type": "function"
    },
    {
      "inputs": [
        {
          "internalType": "address",
          "name": "newUser",
          "type": "address"
        }
      ],
      "name": "setUser",
      "outputs": [],
      "stateMutability": "nonpayable",
      "type": "function"
    },
    {
      "inputs": [],
      "name": "upgradeabilityOwner",
      "outputs": [
        {
          "internalType": "address",
          "name": "",
          "type": "address"
        }
      ],
      "stateMutability": "view",
      "type": "function"
    },
    {
      "inputs": [],
      "name": "user",
      "outputs": [
        {
          "internalType": "address",
          "name": "",
          "type": "address"
        }
      ],
      "stateMutability": "view",
      "type": "function"
    }
  ],
  "bytecode": "0x60806040526001805460ff60a01b1916905534801561001d57600080fd5b50610bf28061002d6000396000f3fe6080604052600436106100b15760003560e01c806363d256ce116100695780637b1039991161004e5780637b10399914610357578063858ced351461036c5780638f4ffcb11461039f576100b1565b806363d256ce1461032d5780636fde820214610342576100b1565b8063485cc9551161009a578063485cc955146102955780634c93505f146102d05780634f8632ba146102fc576100b1565b80631b0f7ba9146100e95780633f801f91146101c8575b60408051348152905133917fa419615bc8fda4c87663805ee2a3597a6d71c1d476911d9892f340d965bc7bf1919081900360200190a2005b3480156100f557600080fd5b506101b46004803603606081101561010c57600080fd5b6001600160a01b038235169160ff6020820135169181019060608101604082013564010000000081111561013f57600080fd5b82018360208201111561015157600080fd5b8035906020019184600183028401116401000000008311171561017357600080fd5b91908080601f016020809104026020016040519081016040528093929190818152602001838380828437600092019190915250929550610471945050505050565b604080519115158252519081900360200190f35b3480156101d457600080fd5b50610293600480360360608110156101eb57600080fd5b6001600160a01b038235169160ff6020820135169181019060608101604082013564010000000081111561021e57600080fd5b82018360208201111561023057600080fd5b8035906020019184600183028401116401000000008311171561025257600080fd5b91908080601f0160208091040260200160405190810160405280939291908181526020018383808284376000920191909152509295506106d4945050505050565b005b3480156102a157600080fd5b50610293600480360360408110156102b857600080fd5b506001600160a01b0381358116916020013516610735565b3480156102dc57600080fd5b50610293600480360360208110156102f357600080fd5b503515156107cc565b34801561030857600080fd5b50610311610868565b604080516001600160a01b039092168252519081900360200190f35b34801561033957600080fd5b506101b4610877565b34801561034e57600080fd5b50610311610887565b34801561036357600080fd5b50610311610896565b34801561037857600080fd5b506102936004803603602081101561038f57600080fd5b50356001600160a01b03166108a5565b3480156103ab57600080fd5b50610293600480360360808110156103c257600080fd5b6001600160a01b0382358116926020810135926040820135909216918101906080810160608201356401000000008111156103fc57600080fd5b82018360208201111561040e57600080fd5b8035906020019184600183028401116401000000008311171561043057600080fd5b91908080601f016020809104026020016040519081016040528093929190818152602001838380828437600092019190915250929550610946945050505050565b6002546000906001600160a01b03163314806105155750600354600160a01b900460ff161580156105155750600354604080516369dc9ff360e01b815233600482015290516001600160a01b03909216916369dc9ff391602480820192602092909190829003018186803b1580156104e857600080fd5b505afa1580156104fc573d6000803e3d6000fd5b505050506040513d602081101561051257600080fd5b50515b6105505760405162461bcd60e51b815260040180806020018281038252608a815260200180610b00608a913960a00191505060405180910390fd5b6060600084600181111561056057fe5b141561061257846001600160a01b0316836040518082805190602001908083835b602083106105a05780518252601f199092019160209182019101610581565b6001836020036101000a0380198251168184511680821785525050505050509050019150506000604051808303816000865af19150503d8060008114610602576040519150601f19603f3d011682016040523d82523d6000602084013e610607565b606091505b5090925090506106cc565b600184600181111561062057fe5b14156106cc57846001600160a01b0316836040518082805190602001908083835b602083106106605780518252601f199092019160209182019101610641565b6001836020036101000a038019825116818451168082178552505050505050905001915050600060405180830381855af49150503d80600081146106c0576040519150601f19603f3d011682016040523d82523d6000602084013e6106c5565b606091505b5090925090505b509392505050565b6106df838383610471565b610730576040805162461bcd60e51b815260206004820152601660248201527f50726f787920617373657274696f6e206661696c656400000000000000000000604482015290519081900360640190fd5b505050565b600154600160a01b900460ff161561077e5760405162461bcd60e51b8152600401808060200182810382526027815260200180610ad96027913960400191505060405180910390fd5b6001805460ff60a01b1916600160a01b179055600280546001600160a01b0393841673ffffffffffffffffffffffffffffffffffffffff199182161790915560038054929093169116179055565b6002546001600160a01b031633146108155760405162461bcd60e51b8152600401808060200182810382526033815260200180610b8a6033913960400191505060405180910390fd5b60038054821515600160a01b810260ff60a01b199092169190911790915560408051918252517f2165014523a6f4135deffed62d70149aad59b64de5aac51e3abbcbe2a83e2f7e9181900360200190a150565b6002546001600160a01b031681565b600354600160a01b900460ff1681565b6001546001600160a01b031690565b6003546001600160a01b031681565b60035460025460408051636e7d491160e11b81526001600160a01b03928316600482015284831660248201529051919092169163dcfa922291604480830192600092919082900301818387803b1580156108fe57600080fd5b505af1158015610912573d6000803e3d6000fd5b50506002805473ffffffffffffffffffffffffffffffffffffffff19166001600160a01b0394909416939093179092555050565b604080516323b872dd60e01b81526001600160a01b03868116600483015230602483015260448201869052915184928316916323b872dd9160648083019260209291908290030181600087803b15801561099f57600080fd5b505af11580156109b3573d6000803e3d6000fd5b505050506040513d60208110156109c957600080fd5b5051610a1c576040805162461bcd60e51b815260206004820152601b60248201527f455243323020746f6b656e207472616e73666572206661696c65640000000000604482015290519081900360640190fd5b826001600160a01b0316856001600160a01b03167fd65b48fd35864b3528d38e44760be5553248f89bf3ff6b06cca57817cc2650bf86856040518083815260200180602001828103825283818151815260200191508051906020019080838360005b83811015610a96578181015183820152602001610a7e565b50505050905090810190601f168015610ac35780820380516001836020036101000a031916815260200191505b50935050505060405180910390a3505050505056fe41757468656e746963617465642070726f787920616c726561647920696e697469616c697a656441757468656e746963617465642070726f78792063616e206f6e6c792062652063616c6c65642062792069747320757365722c206f72206279206120636f6e747261637420617574686f72697a656420627920746865207265676973747279206173206c6f6e6720617320746865207573657220686173206e6f74207265766f6b65642061636365737341757468656e746963617465642070726f78792063616e206f6e6c79206265207265766f6b6564206279206974732075736572a2646970667358221220c8f29c29c8b1f1aab25610e35ba293dcf86c628ed05e47158c9ce6cd77197d8664736f6c63430007050033",
  "linkReferences": {},
  "deployedLinkReferences": {}
}