{
  "_format": "hh-sol-artifact-1",
  "contractName": "WyvernExchange",
  "sourceName": "contracts/WyvernExchange.sol",
  "abi": [
    {
      "inputs": [
        {
          "internalType": "uint256",
          "name": "chainId",
          "type": "uint256"
        },
        {
          "internalType": "address[]",
          "name": "registryAddrs",
          "type": "address[]"
        },
        {
          "internalType": "bytes",
          "name": "customPersonalSignPrefix",
          "type": "bytes"
        }
      ],
      "stateMutability": "nonpayable",
      "type": "constructor"
    },
    {
      "anonymous": false,
      "inputs": [
        {
          "indexed": true,
          "internalType": "bytes32",
          "name": "hash",
          "type": "bytes32"
        },
        {
          "indexed": false,
          "internalType": "address",
          "name": "registry",
          "type": "address"
        },
        {
          "indexed": true,
          "internalType": "address",
          "name": "maker",
          "type": "address"
        },
        {
          "indexed": false,
          "internalType": "address",
          "name": "staticTarget",
          "type": "address"
        },
        {
          "indexed": false,
          "internalType": "bytes4",
          "name": "staticSelector",
          "type": "bytes4"
        },
        {
          "indexed": false,
          "internalType": "bytes",
          "name": "staticExtradata",
          "type": "bytes"
        },
        {
          "indexed": false,
          "internalType": "uint256",
          "name": "maximumFill",
          "type": "uint256"
        },
        {
          "indexed": false,
          "internalType": "uint256",
          "name": "listingTime",
          "type": "uint256"
        },
        {
          "indexed": false,
          "internalType": "uint256",
          "name": "expirationTime",
          "type": "uint256"
        },
        {
          "indexed": false,
          "internalType": "uint256",
          "name": "salt",
          "type": "uint256"
        },
        {
          "indexed": false,
          "internalType": "bool",
          "name": "orderbookInclusionDesired",
          "type": "bool"
        }
      ],
      "name": "OrderApproved",
      "type": "event"
    },
    {
      "anonymous": false,
      "inputs": [
        {
          "indexed": true,
          "internalType": "bytes32",
          "name": "hash",
          "type": "bytes32"
        },
        {
          "indexed": true,
          "internalType": "address",
          "name": "maker",
          "type": "address"
        },
        {
          "indexed": false,
          "internalType": "uint256",
          "name": "newFill",
          "type": "uint256"
        }
      ],
      "name": "OrderFillChanged",
      "type": "event"
    },
    {
      "anonymous": false,
      "inputs": [
        {
          "indexed": false,
          "internalType": "bytes32",
          "name": "firstHash",
          "type": "bytes32"
        },
        {
          "indexed": false,
          "internalType": "bytes32",
          "name": "secondHash",
          "type": "bytes32"
        },
        {
          "indexed": true,
          "internalType": "address",
          "name": "firstMaker",
          "type": "address"
        },
        {
          "indexed": true,
          "internalType": "address",
          "name": "secondMaker",
          "type": "address"
        },
        {
          "indexed": false,
          "internalType": "uint256",
          "name": "newFirstFill",
          "type": "uint256"
        },
        {
          "indexed": false,
          "internalType": "uint256",
          "name": "newSecondFill",
          "type": "uint256"
        },
        {
          "indexed": true,
          "internalType": "bytes32",
          "name": "metadata",
          "type": "bytes32"
        }
      ],
      "name": "OrdersMatched",
      "type": "event"
    },
    {
      "inputs": [
        {
          "internalType": "bytes32",
          "name": "hash",
          "type": "bytes32"
        }
      ],
      "name": "approveOrderHash_",
      "outputs": [],
      "stateMutability": "nonpayable",
      "type": "function"
    },
    {
      "inputs": [
        {
          "internalType": "address",
          "name": "registry",
          "type": "address"
        },
        {
          "internalType": "address",
          "name": "maker",
          "type": "address"
        },
        {
          "internalType": "address",
          "name": "staticTarget",
          "type": "address"
        },
        {
          "internalType": "bytes4",
          "name": "staticSelector",
          "type": "bytes4"
        },
        {
          "internalType": "bytes",
          "name": "staticExtradata",
          "type": "bytes"
        },
        {
          "internalType": "uint256",
          "name": "maximumFill",
          "type": "uint256"
        },
        {
          "internalType": "uint256",
          "name": "listingTime",
          "type": "uint256"
        },
        {
          "internalType": "uint256",
          "name": "expirationTime",
          "type": "uint256"
        },
        {
          "internalType": "uint256",
          "name": "salt",
          "type": "uint256"
        },
        {
          "internalType": "bool",
          "name": "orderbookInclusionDesired",
          "type": "bool"
        }
      ],
      "name": "approveOrder_",
      "outputs": [],
      "stateMutability": "nonpayable",
      "type": "function"
    },
    {
      "inputs": [
        {
          "internalType": "address",
          "name": "",
          "type": "address"
        },
        {
          "internalType": "bytes32",
          "name": "",
          "type": "bytes32"
        }
      ],
      "name": "approved",
      "outputs": [
        {
          "internalType": "bool",
          "name": "",
          "type": "bool"
        }
      ],
      "stateMutability": "view",
      "type": "function"
    },
    {
      "inputs": [
        {
          "internalType": "uint256[16]",
          "name": "uints",
          "type": "uint256[16]"
        },
        {
          "internalType": "bytes4[2]",
          "name": "staticSelectors",
          "type": "bytes4[2]"
        },
        {
          "internalType": "bytes",
          "name": "firstExtradata",
          "type": "bytes"
        },
        {
          "internalType": "bytes",
          "name": "firstCalldata",
          "type": "bytes"
        },
        {
          "internalType": "bytes",
          "name": "secondExtradata",
          "type": "bytes"
        },
        {
          "internalType": "bytes",
          "name": "secondCalldata",
          "type": "bytes"
        },
        {
          "internalType": "uint8[2]",
          "name": "howToCalls",
          "type": "uint8[2]"
        },
        {
          "internalType": "bytes32",
          "name": "metadata",
          "type": "bytes32"
        },
        {
          "internalType": "bytes",
          "name": "signatures",
          "type": "bytes"
        }
      ],
      "name": "atomicMatch_",
      "outputs": [],
      "stateMutability": "payable",
      "type": "function"
    },
    {
      "inputs": [],
      "name": "codename",
      "outputs": [
        {
          "internalType": "string",
          "name": "",
          "type": "string"
        }
      ],
      "stateMutability": "view",
      "type": "function"
    },
    {
      "inputs": [
        {
          "internalType": "address",
          "name": "",
          "type": "address"
        },
        {
          "internalType": "bytes32",
          "name": "",
          "type": "bytes32"
        }
      ],
      "name": "fills",
      "outputs": [
        {
          "internalType": "uint256",
          "name": "",
          "type": "uint256"
        }
      ],
      "stateMutability": "view",
      "type": "function"
    },
    {
      "inputs": [
        {
          "internalType": "address",
          "name": "registry",
          "type": "address"
        },
        {
          "internalType": "address",
          "name": "maker",
          "type": "address"
        },
        {
          "internalType": "address",
          "name": "staticTarget",
          "type": "address"
        },
        {
          "internalType": "bytes4",
          "name": "staticSelector",
          "type": "bytes4"
        },
        {
          "internalType": "bytes",
          "name": "staticExtradata",
          "type": "bytes"
        },
        {
          "internalType": "uint256",
          "name": "maximumFill",
          "type": "uint256"
        },
        {
          "internalType": "uint256",
          "name": "listingTime",
          "type": "uint256"
        },
        {
          "internalType": "uint256",
          "name": "expirationTime",
          "type": "uint256"
        },
        {
          "internalType": "uint256",
          "name": "salt",
          "type": "uint256"
        }
      ],
      "name": "hashOrder_",
      "outputs": [
        {
          "internalType": "bytes32",
          "name": "hash",
          "type": "bytes32"
        }
      ],
      "stateMutability": "pure",
      "type": "function"
    },
    {
      "inputs": [
        {
          "internalType": "bytes32",
          "name": "orderHash",
          "type": "bytes32"
        }
      ],
      "name": "hashToSign_",
      "outputs": [
        {
          "internalType": "bytes32",
          "name": "hash",
          "type": "bytes32"
        }
      ],
      "stateMutability": "view",
      "type": "function"
    },
    {
      "inputs": [],
      "name": "name",
      "outputs": [
        {
          "internalType": "string",
          "name": "",
          "type": "string"
        }
      ],
      "stateMutability": "view",
      "type": "function"
    },
    {
      "inputs": [
        {
          "internalType": "address",
          "name": "",
          "type": "address"
        }
      ],
      "name": "registries",
      "outputs": [
        {
          "internalType": "bool",
          "name": "",
          "type": "bool"
        }
      ],
      "stateMutability": "view",
      "type": "function"
    },
    {
      "inputs": [
        {
          "internalType": "bytes32",
          "name": "hash",
          "type": "bytes32"
        },
        {
          "internalType": "uint256",
          "name": "fill",
          "type": "uint256"
        }
      ],
      "name": "setOrderFill_",
      "outputs": [],
      "stateMutability": "nonpayable",
      "type": "function"
    },
    {
      "inputs": [
        {
          "internalType": "bytes32",
          "name": "hash",
          "type": "bytes32"
        },
        {
          "internalType": "address",
          "name": "maker",
          "type": "address"
        },
        {
          "internalType": "bytes",
          "name": "signature",
          "type": "bytes"
        }
      ],
      "name": "validateOrderAuthorization_",
      "outputs": [
        {
          "internalType": "bool",
          "name": "",
          "type": "bool"
        }
      ],
      "stateMutability": "view",
      "type": "function"
    },
    {
      "inputs": [
        {
          "internalType": "address",
          "name": "registry",
          "type": "address"
        },
        {
          "internalType": "address",
          "name": "maker",
          "type": "address"
        },
        {
          "internalType": "address",
          "name": "staticTarget",
          "type": "address"
        },
        {
          "internalType": "bytes4",
          "name": "staticSelector",
          "type": "bytes4"
        },
        {
          "internalType": "bytes",
          "name": "staticExtradata",
          "type": "bytes"
        },
        {
          "internalType": "uint256",
          "name": "maximumFill",
          "type": "uint256"
        },
        {
          "internalType": "uint256",
          "name": "listingTime",
          "type": "uint256"
        },
        {
          "internalType": "uint256",
          "name": "expirationTime",
          "type": "uint256"
        },
        {
          "internalType": "uint256",
          "name": "salt",
          "type": "uint256"
        }
      ],
      "name": "validateOrderParameters_",
      "outputs": [
        {
          "internalType": "bool",
          "name": "",
          "type": "bool"
        }
      ],
      "stateMutability": "view",
      "type": "function"
    },
    {
      "inputs": [],
      "name": "version",
      "outputs": [
        {
          "internalType": "string",
          "name": "",
          "type": "string"
        }
      ],
      "stateMutability": "view",
      "type": "function"
    }
  ],
  "bytecode": "0x6000805460ff1916905560c0604052601a60808190527f19457468657265756d205369676e6564204d6573736167653a0a00000000000060a09081526200004a916002919062000336565b503480156200005857600080fd5b5060405162002b2638038062002b26833981810160405260608110156200007e57600080fd5b815160208301805160405192949293830192919084640100000000821115620000a657600080fd5b908301906020820185811115620000bc57600080fd5b8251866020820283011164010000000082111715620000da57600080fd5b82525081516020918201928201910280838360005b8381101562000109578181015183820152602001620000ef565b50505050905001604052602001805160405193929190846401000000008211156200013357600080fd5b9083019060208201858111156200014957600080fd5b82516401000000008111828201881017156200016457600080fd5b82525081516020918201929091019080838360005b838110156200019357818101518382015260200162000179565b50505050905090810190601f168015620001c15780820380516001836020036101000a031916815260200191505b5060c081016040908152600f608083019081526e57797665726e2045786368616e676560881b60a08401528252805180820182526003815262332e3160e81b6020828101919091528301528101879052306060820152620002269350915050620002ad565b60015560005b825181101562000284576001600360008584815181106200024957fe5b6020908102919091018101516001600160a01b03168252810191909152604001600020805460ff19169115159190911790556001016200022c565b50805115620002a4578051620002a290600290602084019062000336565b505b505050620003e2565b805180516020918201208183015180519083012060408085015160608087015183517f8b73c3c69bb8fe3d512ecc4cf759cc79239f7b179b0ffacaa9a75d522b39400f81890152808501969096529085019390935260808401526001600160a01b0390911660a0808401919091528151808403909101815260c090920190528051910120919050565b828054600181600116156101000203166002900490600052602060002090601f0160209004810192826200036e5760008555620003b9565b82601f106200038957805160ff1916838001178555620003b9565b82800160010185558215620003b9579182015b82811115620003b95782518255916020019190600101906200039c565b50620003c7929150620003cb565b5090565b5b80821115620003c75760008155600101620003cc565b61273480620003f26000396000f3fe6080604052600436106100dd5760003560e01c80639a5168db1161007f578063f861975b11610059578063f861975b14610721578063f9b0bc20146107e3578063fac7fc38146108a5578063ffc2ab14146108de576100dd565b80639a5168db14610362578063caed80df146106b2578063d57ad588146106e5576100dd565b806314127f13116100bb57806314127f131461023e57806331e631991461026e57806354fd4d5014610283578063995e819514610298576100dd565b806306fdde03146100e25780630812226e1461016c57806313b219e214610198575b600080fd5b3480156100ee57600080fd5b506100f7610917565b6040805160208082528351818301528351919283929083019185019080838360005b83811015610131578181015183820152602001610119565b50505050905090810190601f16801561015e5780820380516001836020036101000a031916815260200191505b509250505060405180910390f35b34801561017857600080fd5b506101966004803603602081101561018f57600080fd5b5035610950565b005b3480156101a457600080fd5b5061022a600480360360608110156101bb57600080fd5b8135916001600160a01b03602082013516918101906060810160408201356401000000008111156101eb57600080fd5b8201836020820111156101fd57600080fd5b8035906020019184600183028401116401000000008311171561021f57600080fd5b50909250905061095c565b604080519115158252519081900360200190f35b34801561024a57600080fd5b506101966004803603604081101561026157600080fd5b50803590602001356109a8565b34801561027a57600080fd5b506100f76109b6565b34801561028f57600080fd5b506100f76109ef565b3480156102a457600080fd5b5061019660048036036101408110156102bc57600080fd5b6001600160a01b03823581169260208101358216926040820135909216916001600160e01b0319606083013516919081019060a08101608082013564010000000081111561030957600080fd5b82018360208201111561031b57600080fd5b8035906020019184600183028401116401000000008311171561033d57600080fd5b9193509150803590602081013590604081013590606081013590608001351515610a0e565b610196600480360361034081101561037957600080fd5b8101908080610200019060108060200260405190810160405280929190826010602002808284376000920191909152505060408051808201825292959493818101939250906002908390839080828437600092019190915250919493926020810192503590506401000000008111156103f157600080fd5b82018360208201111561040357600080fd5b8035906020019184600183028401116401000000008311171561042557600080fd5b91908080601f016020809104026020016040519081016040528093929190818152602001838380828437600092019190915250929594936020810193503591505064010000000081111561047857600080fd5b82018360208201111561048a57600080fd5b803590602001918460018302840111640100000000831117156104ac57600080fd5b91908080601f01602080910402602001604051908101604052809392919081815260200183838082843760009201919091525092959493602081019350359150506401000000008111156104ff57600080fd5b82018360208201111561051157600080fd5b8035906020019184600183028401116401000000008311171561053357600080fd5b91908080601f016020809104026020016040519081016040528093929190818152602001838380828437600092019190915250929594936020810193503591505064010000000081111561058657600080fd5b82018360208201111561059857600080fd5b803590602001918460018302840111640100000000831117156105ba57600080fd5b91908080601f016020809104026020016040519081016040528093929190818152602001838380828437600092019190915250506040805180820182529396959481810194935091506002908390839080828437600092019190915250919483359490939092506040810191506020013564010000000081111561063d57600080fd5b82018360208201111561064f57600080fd5b8035906020019184600183028401116401000000008311171561067157600080fd5b91908080601f016020809104026020016040519081016040528093929190818152602001838380828437600092019190915250929550610ac1945050505050565b3480156106be57600080fd5b5061022a600480360360208110156106d557600080fd5b50356001600160a01b0316610d44565b3480156106f157600080fd5b5061070f6004803603602081101561070857600080fd5b5035610d59565b60408051918252519081900360200190f35b34801561072d57600080fd5b5061070f600480360361012081101561074557600080fd5b6001600160a01b03823581169260208101358216926040820135909216916001600160e01b0319606083013516919081019060a08101608082013564010000000081111561079257600080fd5b8201836020820111156107a457600080fd5b803590602001918460018302840111640100000000831117156107c657600080fd5b919350915080359060208101359060408101359060600135610d6a565b3480156107ef57600080fd5b5061022a600480360361012081101561080757600080fd5b6001600160a01b03823581169260208101358216926040820135909216916001600160e01b0319606083013516919081019060a08101608082013564010000000081111561085457600080fd5b82018360208201111561086657600080fd5b8035906020019184600183028401116401000000008311171561088857600080fd5b919350915080359060208101359060408101359060600135610e20565b3480156108b157600080fd5b5061022a600480360360408110156108c857600080fd5b506001600160a01b038135169060200135610eeb565b3480156108ea57600080fd5b5061070f6004803603604081101561090157600080fd5b506001600160a01b038135169060200135610f0b565b6040518060400160405280600f81526020017f57797665726e2045786368616e6765000000000000000000000000000000000081525081565b61095981610f28565b50565b600061099f858585858080601f016020809104026020016040519081016040528093929190818152602001838380828437600092019190915250610fbe92505050565b95945050505050565b6109b28282611396565b5050565b6040518060400160405280600981526020017f416e63616c61676f6e000000000000000000000000000000000000000000000081525081565b60405180604001604052806003815260200162332e3160e81b81525081565b610ab46040518061012001604052808d6001600160a01b031681526020018c6001600160a01b031681526020018b6001600160a01b031681526020018a6001600160e01b031916815260200189898080601f01602080910402602001604051908101604052809392919081815260200183838082843760009201919091525050509082525060208101889052604081018790526060810186905260800184905282611443565b5050505050505050505050565b610d396040518061012001604052808b600060108110610add57fe5b60200201516001600160a01b031681526020018b600160108110610afd57fe5b60200201516001600160a01b031681526020018b600260108110610b1d57fe5b60200201516001600160a01b031681526020018a600060028110610b3d57fe5b60200201516001600160e01b03191681526020018981526020018b600360108110610b6457fe5b602002015181526020018b600460108110610b7b57fe5b602002015181526020018b600560108110610b9257fe5b602002015181526020018b600660108110610ba957fe5b602002015190526040805160608101909152808c600760200201516001600160a01b0316815260200186600060028110610bdf57fe5b602002015160ff166001811115610bf257fe5b6001811115610bfd57fe5b815260209081018a90526040805161012081019091526101008e01516001600160a01b031681529081018d600960200201516001600160a01b031681526020018d600a60108110610c4a57fe5b60200201516001600160a01b031681526020018c600160028110610c6a57fe5b60200201516001600160e01b03191681526020018981526020018d600b60108110610c9157fe5b602002015181526020018d600c60108110610ca857fe5b602002015181526020018d600d60108110610cbf57fe5b602002015181526020018d600e60108110610cd657fe5b602002015190526040805160608101909152808e600f60200201516001600160a01b0316815260200188600160028110610d0c57fe5b602002015160ff166001811115610d1f57fe5b6001811115610d2a57fe5b815260200189905285876115d0565b505050505050505050565b60036020526000908152604090205460ff1681565b6000610d6482611c28565b92915050565b6000610e116040518061012001604052808d6001600160a01b031681526020018c6001600160a01b031681526020018b6001600160a01b031681526020018a6001600160e01b031916815260200189898080601f016020809104026020016040519081016040528093929190818152602001838380828437600092019190915250505090825250602081018890526040810187905260608101869052608001849052611c66565b9b9a5050505050505050505050565b6000610e2a612507565b6040518061012001604052808d6001600160a01b031681526020018c6001600160a01b031681526020018b6001600160a01b031681526020018a6001600160e01b031916815260200189898080601f0160208091040260200160405190810160405280939291908181526020018383808284376000920191909152505050908252506020810188905260408101879052606081018690526080018490529050610edb81610ed681611c66565b611d4f565b9c9b505050505050505050505050565b600560209081526000928352604080842090915290825290205460ff1681565b600460209081526000928352604080842090915290825290205481565b33600090815260056020908152604080832084845290915290205460ff1615610f98576040805162461bcd60e51b815260206004820152601f60248201527f4f726465722068617320616c7265616479206265656e20617070726f76656400604482015290519081900360640190fd5b33600090815260056020908152604080832093835292905220805460ff19166001179055565b6001600160a01b038216600090815260046020908152604080832086845290915281205415610fef5750600161138f565b6001600160a01b0383163314156110085750600161138f565b6001600160a01b038316600090815260056020908152604080832087845290915290205460ff161561103c5750600161138f565b600061104785611c28565b9050600061105485611ddb565b905080156111635760408051630b135d3f60e11b808252600482018581526024830193845287516044840152875191936001600160a01b038a1693631626ba7e9388938b9390929091606490910190602085019080838360005b838110156110c65781810151838201526020016110ae565b50505050905090810190601f1680156110f35780820380516001836020036101000a031916815260200191505b50935050505060206040518083038186803b15801561111157600080fd5b505afa158015611125573d6000803e3d6000fd5b505050506040513d602081101561113b57600080fd5b50516001600160e01b03191614156111585760019250505061138f565b60009250505061138f565b600080600086806020019051606081101561117d57600080fd5b5080516020820151604090920151895191955091935090915060411080156111df5750866001885103815181106111b057fe5b6020910101517fff0000000000000000000000000000000000000000000000000000000000000016600360f81b145b156112fa57876001600160a01b0316600160028760405160200180838054600181600116156101000203166002900480156112515780601f1061122f576101008083540402835291820191611251565b820191906000526020600020905b81548152906001019060200180831161123d575b505061199960f11b81526002808201939093526040805180830390940184526022820180825284516020958601206000909152604283018083525260ff8a1660628301526082820189905260a282018890525160c28083019550601f19820193509181900390910190855afa1580156112ce573d6000803e3d6000fd5b505050602060405103516001600160a01b031614156112f55760019550505050505061138f565b611385565b876001600160a01b031660018685858560405160008152602001604052604051808581526020018460ff1681526020018381526020018281526020019450505050506020604051602081039080840390855afa15801561135e573d6000803e3d6000fd5b505050602060405103516001600160a01b031614156113855760019550505050505061138f565b6000955050505050505b9392505050565b3360009081526004602090815260408083208584529091529020548114156113ef5760405162461bcd60e51b81526004018080602001828103825260288152602001806126286028913960400191505060405180910390fd5b3360008181526004602090815260408083208684528252918290208490558151848152915185927f826cd05b52546b47590739469989cacd5336e0a9e6f9392de2dee5cfb19c8aab92908290030190a35050565b60208201516001600160a01b0316331461148e5760405162461bcd60e51b815260040180806020018281038252604a8152602001806125ad604a913960600191505060405180910390fd5b600061149983611c66565b90506114a481610f28565b82602001516001600160a01b0316817fbace5d282ba59cba3de1ac539b0ed46ae5a3d8ad434a3ac9f07ce45d1661481885600001518660400151876060015188608001518960a001518a60c001518b60e001518c61010001518c604051808a6001600160a01b03168152602001896001600160a01b03168152602001886001600160e01b0319168152602001806020018781526020018681526020018581526020018481526020018315158152602001828103825288818151815260200191508051906020019080838360005b83811015611589578181015183820152602001611571565b50505050905090810190601f1680156115b65780820380516001836020036101000a031916815260200191505b509a505050505050505050505060405180910390a3505050565b60005460ff1615611628576040805162461bcd60e51b815260206004820152601360248201527f5265656e7472616e637920646574656374656400000000000000000000000000604482015290519081900360640190fd5b6000805460ff1916600117815561163e87611c66565b905061164a8782611d4f565b6116855760405162461bcd60e51b81526004018080602001828103825260228152602001806126996022913960400191505060405180910390fd5b600061169086611c66565b905061169c8682611d4f565b6116d75760405162461bcd60e51b81526004018080602001828103825260238152602001806126dc6023913960400191505060405180910390fd5b808214156117165760405162461bcd60e51b81526004018080602001828103825260228152602001806126506022913960400191505060405180910390fd5b60608085806020019051604081101561172e57600080fd5b810190808051604051939291908464010000000082111561174e57600080fd5b90830190602082018581111561176357600080fd5b825164010000000081118282018810171561177d57600080fd5b82525081516020918201929091019080838360005b838110156117aa578181015183820152602001611792565b50505050905090810190601f1680156117d75780820380516001836020036101000a031916815260200191505b50604052602001805160405193929190846401000000008211156117fa57600080fd5b90830190602082018581111561180f57600080fd5b825164010000000081118282018810171561182957600080fd5b82525081516020918201929091019080838360005b8381101561185657818101518382015260200161183e565b50505050905090810190601f1680156118835780820380516001836020036101000a031916815260200191505b506040525050509150915061189d848b6020015184610fbe565b6118ee576040805162461bcd60e51b815260206004820181905260248201527f4669727374206f72646572206661696c656420617574686f72697a6174696f6e604482015290519081900360640190fd5b6118fd83896020015183610fbe565b6119385760405162461bcd60e51b81526004018080602001828103825260218152602001806126bb6021913960400191505060405180910390fd5b505034156119ec5760208801516040516000916001600160a01b03169034908381818185875af1925050503d806000811461198f576040519150601f19603f3d011682016040523d82523d6000602084013e611994565b606091505b50509050806119ea576040805162461bcd60e51b815260206004820152601d60248201527f6e617469766520746f6b656e207472616e73666572206661696c65642e000000604482015290519081900360640190fd5b505b6119ff8860000151896020015189611de1565b611a50576040805162461bcd60e51b815260206004820152601160248201527f46697273742063616c6c206661696c6564000000000000000000000000000000604482015290519081900360640190fd5b611a638660000151876020015187611de1565b611ab4576040805162461bcd60e51b815260206004820152601260248201527f5365636f6e642063616c6c206661696c65640000000000000000000000000000604482015290519081900360640190fd5b6020808901516001600160a01b039081166000908152600480845260408083208784528552808320548b8601519094168352908452808220858352909352918220549091611b078b8b8b8b333489612155565b90506000611b1b8a8a8e8e33600089612155565b60208d01519091506001600160a01b03163314611b6157838214611b61576020808d01516001600160a01b03166000908152600482526040808220898352909252208290555b60208a01516001600160a01b03163314611ba457828114611ba4576020808b01516001600160a01b03166000908152600482526040808220888352909252208190555b868a602001516001600160a01b03168d602001516001600160a01b03167fe8447df45ce371d4c2f6cfcb9342b06165f71b244e809b909977f0dab191a009898987876040518085815260200184815260200183815260200182815260200194505050505060405180910390a450506000805460ff1916905550505050505050505050565b6001546040805161190160f01b6020808301919091526022820193909352604280820194909452815180820390940184526062019052815191012090565b60007feb61b8100bcd004cad335a779aa74e9b176b520f4b98e7b487c133a82e9853dd82600001518360200151846040015185606001518660800151805190602001208760a001518860c001518960e001518a6101000151604051602001808b81526020018a6001600160a01b03168152602001896001600160a01b03168152602001886001600160a01b03168152602001876001600160e01b03191681526020018681526020018581526020018481526020018381526020018281526020019a5050505050505050505050604051602081830303815290604052805190602001209050919050565b6000428360c001511180611d75575060e083015115801590611d755750428360e0015111155b15611d8257506000610d64565b60a08301516020808501516001600160a01b03166000908152600482526040808220868352909252205410611db957506000610d64565b611dc68360400151611ddb565b611dd257506000610d64565b50600192915050565b3b151590565b6001600160a01b03831660009081526003602052604081205460ff16611e0657600080fd5b8151611e1190611ddb565b611e62576040805162461bcd60e51b815260206004820152601a60248201527f43616c6c2074617267657420646f6573206e6f74206578697374000000000000604482015290519081900360640190fd5b6000846001600160a01b031663c4552791856040518263ffffffff1660e01b815260040180826001600160a01b03168152602001915050602060405180830381600087803b158015611eb357600080fd5b505af1158015611ec7573d6000803e3d6000fd5b505050506040513d6020811015611edd57600080fd5b505190506001600160a01b038116611f265760405162461bcd60e51b81526004018080602001828103825260278152602001806126726027913960400191505060405180910390fd5b846001600160a01b03166397204d8e6040518163ffffffff1660e01b8152600401602060405180830381600087803b158015611f6157600080fd5b505af1158015611f75573d6000803e3d6000fd5b505050506040513d6020811015611f8b57600080fd5b505160408051635c60da1b60e01b815290516001600160a01b0392831692841691635c60da1b916004808301926020929190829003018186803b158015611fd157600080fd5b505afa158015611fe5573d6000803e3d6000fd5b505050506040513d6020811015611ffb57600080fd5b50516001600160a01b0316146120425760405162461bcd60e51b81526004018080602001828103825260318152602001806125f76031913960400191505060405180910390fd5b6000819050806001600160a01b0316631b0f7ba98560000151866020015187604001516040518463ffffffff1660e01b815260040180846001600160a01b0316815260200183600181111561209357fe5b815260200180602001828103825283818151815260200191508051906020019080838360005b838110156120d15781810151838201526020016120b9565b50505050905090810190601f1680156120fe5780820380516001836020036101000a031916815260200191505b50945050505050602060405180830381600087803b15801561211f57600080fd5b505af1158015612133573d6000803e3d6000fd5b505050506040513d602081101561214957600080fd5b50519695505050505050565b6000612173886040015161216e8a8a8a8a8a8a8a61217f565b612493565b98975050505050505050565b6060612189612552565b506040805160e08101825289516001600160a01b0390811682526020808c01518216818401528a5182169383019390935288518116606083015291880151821660808201528651821660a082015290851660c08201526121e7612570565b60405180604001604052808a60200151600181111561220257fe5b600181111561220d57fe5b81526020018860200151600181111561222257fe5b600181111561222d57fe5b9052905061223961258e565b6040518060c001604052808781526020018c60a0015181526020018c60c0015181526020018c60e0015181526020018a60c0015181526020018681525090508a606001518b608001518484848e604001518d60400151604051602401808060200187600760200280838360005b838110156122be5781810151838201526020016122a6565b5050505090500186600260200280838360005b838110156122e95781810151838201526020016122d1565b5050505090500185600660200280838360005b838110156123145781810151838201526020016122fc565b50505050905001806020018060200184810384528a818151815260200191508051906020019080838360005b83811015612358578181015183820152602001612340565b50505050905090810190601f1680156123855780820380516001836020036101000a031916815260200191505b50848103835286518152865160209182019188019080838360005b838110156123b85781810151838201526020016123a0565b50505050905090810190601f1680156123e55780820380516001836020036101000a031916815260200191505b50848103825285518152855160209182019187019080838360005b83811015612418578181015183820152602001612400565b50505050905090810190601f1680156124455780820380516001836020036101000a031916815260200191505b5060408051601f198184030181529190526020810180516001600160e01b03166001600160e01b0319909d169c909c17909b5250989c50505050505050505050505050979650505050505050565b60008060206040518181865160208801895afa925080519350505080612500576040805162461bcd60e51b815260206004820152601260248201527f5374617469632063616c6c206661696c65640000000000000000000000000000604482015290519081900360640190fd5b5092915050565b60408051610120810182526000808252602082018190529181018290526060808201839052608082015260a0810182905260c0810182905260e0810182905261010081019190915290565b6040518060e001604052806007906020820280368337509192915050565b60405180604001604052806002906020820280368337509192915050565b6040518060c00160405280600690602082028036833750919291505056fe53656e646572206973206e6f7420746865206d616b6572206f6620746865206f7264657220616e642074687573206e6f7420617574686f72697a656420746f20617070726f7665206974496e636f72726563742064656c65676174652070726f787920696d706c656d656e746174696f6e20666f72206d616b657246696c6c20697320616c72656164792073657420746f2074686520646573697265642076616c756553656c662d6d61746368696e67206f72646572732069732070726f6869626974656444656c65676174652070726f787920646f6573206e6f7420657869737420666f72206d616b65724669727374206f726465722068617320696e76616c696420706172616d65746572735365636f6e64206f72646572206661696c656420617574686f72697a6174696f6e5365636f6e64206f726465722068617320696e76616c696420706172616d6574657273a2646970667358221220721391200bc7f123758ee28c30bda6923dbc139ff15a024ffb6681cd1839873764736f6c63430007050033",
  "linkReferences": {},
  "deployedLinkReferences": {}
}